{
  "_format": "hh-sol-artifact-1",
  "contractName": "MyNFT",
  "sourceName": "contracts/MyNFT.sol",
  "abi": [
    {
      "inputs": [],
      "stateMutability": "nonpayable",
      "type": "constructor"
    },
    {
      "anonymous": false,
      "inputs": [
        {
          "indexed": true,
          "internalType": "address",
          "name": "owner",
          "type": "address"
        },
        {
          "indexed": true,
          "internalType": "address",
          "name": "approved",
          "type": "address"
        },
        {
          "indexed": true,
          "internalType": "uint256",
          "name": "tokenId",
          "type": "uint256"
        }
      ],
      "name": "Approval",
      "type": "event"
    },
    {
      "anonymous": false,
      "inputs": [
        {
          "indexed": true,
          "internalType": "address",
          "name": "owner",
          "type": "address"
        },
        {
          "indexed": true,
          "internalType": "address",
          "name": "operator",
          "type": "address"
        },
        {
          "indexed": false,
          "internalType": "bool",
          "name": "approved",
          "type": "bool"
        }
      ],
      "name": "ApprovalForAll",
      "type": "event"
    },
    {
      "anonymous": false,
      "inputs": [
        {
          "indexed": true,
          "internalType": "address",
          "name": "previousOwner",
          "type": "address"
        },
        {
          "indexed": true,
          "internalType": "address",
          "name": "newOwner",
          "type": "address"
        }
      ],
      "name": "OwnershipTransferred",
      "type": "event"
    },
    {
      "anonymous": false,
      "inputs": [
        {
          "indexed": true,
          "internalType": "address",
          "name": "from",
          "type": "address"
        },
        {
          "indexed": true,
          "internalType": "address",
          "name": "to",
          "type": "address"
        },
        {
          "indexed": true,
          "internalType": "uint256",
          "name": "tokenId",
          "type": "uint256"
        }
      ],
      "name": "Transfer",
      "type": "event"
    },
    {
      "inputs": [
        {
          "internalType": "address",
          "name": "to",
          "type": "address"
        },
        {
          "internalType": "uint256",
          "name": "tokenId",
          "type": "uint256"
        }
      ],
      "name": "approve",
      "outputs": [],
      "stateMutability": "nonpayable",
      "type": "function"
    },
    {
      "inputs": [
        {
          "internalType": "address",
          "name": "owner",
          "type": "address"
        }
      ],
      "name": "balanceOf",
      "outputs": [
        {
          "internalType": "uint256",
          "name": "",
          "type": "uint256"
        }
      ],
      "stateMutability": "view",
      "type": "function"
    },
    {
      "inputs": [
        {
          "internalType": "uint256",
          "name": "tokenId",
          "type": "uint256"
        }
      ],
      "name": "getApproved",
      "outputs": [
        {
          "internalType": "address",
          "name": "",
          "type": "address"
        }
      ],
      "stateMutability": "view",
      "type": "function"
    },
    {
      "inputs": [
        {
          "internalType": "address",
          "name": "owner",
          "type": "address"
        },
        {
          "internalType": "address",
          "name": "operator",
          "type": "address"
        }
      ],
      "name": "isApprovedForAll",
      "outputs": [
        {
          "internalType": "bool",
          "name": "",
          "type": "bool"
        }
      ],
      "stateMutability": "view",
      "type": "function"
    },
    {
      "inputs": [
        {
          "internalType": "address",
          "name": "recipient",
          "type": "address"
        },
        {
          "internalType": "string",
          "name": "tokenURI",
          "type": "string"
        }
      ],
      "name": "mintNFT",
      "outputs": [
        {
          "internalType": "uint256",
          "name": "",
          "type": "uint256"
        }
      ],
      "stateMutability": "nonpayable",
      "type": "function"
    },
    {
      "inputs": [],
      "name": "name",
      "outputs": [
        {
          "internalType": "string",
          "name": "",
          "type": "string"
        }
      ],
      "stateMutability": "view",
      "type": "function"
    },
    {
      "inputs": [],
      "name": "owner",
      "outputs": [
        {
          "internalType": "address",
          "name": "",
          "type": "address"
        }
      ],
      "stateMutability": "view",
      "type": "function"
    },
    {
      "inputs": [
        {
          "internalType": "uint256",
          "name": "tokenId",
          "type": "uint256"
        }
      ],
      "name": "ownerOf",
      "outputs": [
        {
          "internalType": "address",
          "name": "",
          "type": "address"
        }
      ],
      "stateMutability": "view",
      "type": "function"
    },
    {
      "inputs": [],
      "name": "renounceOwnership",
      "outputs": [],
      "stateMutability": "nonpayable",
      "type": "function"
    },
    {
      "inputs": [
        {
          "internalType": "address",
          "name": "from",
          "type": "address"
        },
        {
          "internalType": "address",
          "name": "to",
          "type": "address"
        },
        {
          "internalType": "uint256",
          "name": "tokenId",
          "type": "uint256"
        }
      ],
      "name": "safeTransferFrom",
      "outputs": [],
      "stateMutability": "nonpayable",
      "type": "function"
    },
    {
      "inputs": [
        {
          "internalType": "address",
          "name": "from",
          "type": "address"
        },
        {
          "internalType": "address",
          "name": "to",
          "type": "address"
        },
        {
          "internalType": "uint256",
          "name": "tokenId",
          "type": "uint256"
        },
        {
          "internalType": "bytes",
          "name": "_data",
          "type": "bytes"
        }
      ],
      "name": "safeTransferFrom",
      "outputs": [],
      "stateMutability": "nonpayable",
      "type": "function"
    },
    {
      "inputs": [
        {
          "internalType": "address",
          "name": "operator",
          "type": "address"
        },
        {
          "internalType": "bool",
          "name": "approved",
          "type": "bool"
        }
      ],
      "name": "setApprovalForAll",
      "outputs": [],
      "stateMutability": "nonpayable",
      "type": "function"
    },
    {
      "inputs": [
        {
          "internalType": "bytes4",
          "name": "interfaceId",
          "type": "bytes4"
        }
      ],
      "name": "supportsInterface",
      "outputs": [
        {
          "internalType": "bool",
          "name": "",
          "type": "bool"
        }
      ],
      "stateMutability": "view",
      "type": "function"
    },
    {
      "inputs": [],
      "name": "symbol",
      "outputs": [
        {
          "internalType": "string",
          "name": "",
          "type": "string"
        }
      ],
      "stateMutability": "view",
      "type": "function"
    },
    {
      "inputs": [
        {
          "internalType": "uint256",
          "name": "tokenId",
          "type": "uint256"
        }
      ],
      "name": "tokenURI",
      "outputs": [
        {
          "internalType": "string",
          "name": "",
          "type": "string"
        }
      ],
      "stateMutability": "view",
      "type": "function"
    },
    {
      "inputs": [
        {
          "internalType": "address",
          "name": "from",
          "type": "address"
        },
        {
          "internalType": "address",
          "name": "to",
          "type": "address"
        },
        {
          "internalType": "uint256",
          "name": "tokenId",
          "type": "uint256"
        }
      ],
      "name": "transferFrom",
      "outputs": [],
      "stateMutability": "nonpayable",
      "type": "function"
    },
    {
      "inputs": [
        {
          "internalType": "address",
          "name": "newOwner",
          "type": "address"
        }
      ],
      "name": "transferOwnership",
      "outputs": [],
      "stateMutability": "nonpayable",
      "type": "function"
    }
  ],
  "bytecode": "0x60803462000352576001600160401b03906040818101838111838210176200033c5781526005825260209164135e53919560da1b83820152815193828501858110828211176200033c578352600385526213919560ea1b8486015281518181116200033c576000948554916001948584811c9416801562000331575b838510146200031d578190601f94858111620002ca575b508390858311600114620002665789926200025a575b5050600019600383901b1c191690851b1786555b8651928311620002465783548481811c911680156200023b575b828210146200022757828111620001df575b5080918311600114620001785750849582939495926200016c575b5050600019600383901b1c191690821b1790555b60078054336001600160a01b03198216811790925591519290916001600160a01b0316907f8be0079c531659141344cd1fd0a4f28419497f9722a3daafe3b4186f6b6457e09080a36118ef9081620003588239f35b01519050388062000103565b90601f198316968487528287209287905b898210620001c7575050838596979810620001ad575b505050811b01905562000117565b015160001960f88460031b161c191690553880806200019f565b80878596829496860151815501950193019062000189565b8487528187208380860160051c8201928487106200021d575b0160051c019085905b82811062000211575050620000e8565b88815501859062000201565b92508192620001f8565b634e487b7160e01b87526022600452602487fd5b90607f1690620000d6565b634e487b7160e01b86526041600452602486fd5b015190503880620000a8565b898052848a208894509190601f1984168b5b87828210620002b3575050841162000299575b505050811b018655620000bc565b015160001960f88460031b161c191690553880806200028b565b8385015186558b9790950194938401930162000278565b9091508880528389208580850160051c82019286861062000313575b918991869594930160051c01915b8281106200030457505062000092565b8b8155859450899101620002f4565b92508192620002e6565b634e487b7160e01b88526022600452602488fd5b93607f16936200007b565b634e487b7160e01b600052604160045260246000fd5b600080fdfe6080604052600436101561001257600080fd5b60003560e01c806301ffc9a71461012757806306fdde0314610122578063081812fc1461011d578063095ea7b31461011857806323b872dd1461011357806342842e0e1461010e5780636352211e1461010957806370a0823114610104578063715018a6146100ff5780638da5cb5b146100fa57806395d89b41146100f5578063a22cb465146100f0578063b88d4fde146100eb578063c87b56dd146100e6578063e985e9c5146100e1578063eacabe14146100dc5763f2fde38b146100d757600080fd5b610ac1565b610938565b6108db565b6108a8565b610848565b6106b0565b61060b565b6105e2565b610581565b6104df565b6104c1565b610499565b610470565b61034c565b6102f0565b61020d565b610143565b6001600160e01b031981160361013e57565b600080fd5b3461013e57602036600319011261013e5760206004356101628161012c565b63ffffffff60e01b166380ac58cd60e01b81149081156101a0575b811561018f575b506040519015158152f35b6301ffc9a760e01b14905038610184565b635b5e139f60e01b8114915061017d565b60005b8381106101c45750506000910152565b81810151838201526020016101b4565b906020916101ed815180928185528580860191016101b1565b601f01601f1916010190565b90602061020a9281815201906101d4565b90565b3461013e576000806003193601126102ed576040519080805461022f81610c63565b808552916001918083169081156102c35750600114610269575b61026585610259818703826107d3565b604051918291826101f9565b0390f35b80809450527f290decd9548b62a8d60345a988386fc84ba6bc95484008f6362f93160ef3e5635b8284106102ab57505050810160200161025982610265610249565b80546020858701810191909152909301928101610290565b8695506102659693506020925061025994915060ff191682840152151560051b8201019293610249565b80fd5b3461013e57602036600319011261013e57602061030e600435610db5565b6040516001600160a01b039091168152f35b600435906001600160a01b038216820361013e57565b602435906001600160a01b038216820361013e57565b3461013e57604036600319011261013e57610365610320565b60243561037181610beb565b916001600160a01b0380841690821681146103ec576103a39361039e9133149081156103a5575b50610d43565b611254565b005b6001600160a01b031660009081526005602052604090206103e691506103df9033905b9060018060a01b0316600052602052604060002090565b5460ff1690565b38610398565b60405162461bcd60e51b815260206004820152602160248201527f4552433732313a20617070726f76616c20746f2063757272656e74206f776e656044820152603960f91b6064820152608490fd5b606090600319011261013e576001600160a01b0390600435828116810361013e5791602435908116810361013e579060443590565b3461013e576103a36104813661043b565b9161049461048f8433610f5b565b610e47565b6110e9565b3461013e576103a36104aa3661043b565b90604051926104b8846107b2565b60008452610ec0565b3461013e57602036600319011261013e57602061030e600435610beb565b3461013e57602036600319011261013e576001600160a01b03610500610320565b168015610529576000526003602052610265604060002054604051918291829190602083019252565b60405162461bcd60e51b815260206004820152602a60248201527f4552433732313a2062616c616e636520717565727920666f7220746865207a65604482015269726f206164647265737360b01b6064820152608490fd5b3461013e576000806003193601126102ed5760075481906001600160a01b038116906105ae338314610b57565b6001600160a01b0319166007557f8be0079c531659141344cd1fd0a4f28419497f9722a3daafe3b4186f6b6457e08280a380f35b3461013e57600036600319011261013e576007546040516001600160a01b039091168152602090f35b3461013e576000806003193601126102ed576040519080600180549161063083610c63565b808652928281169081156102c357506001146106565761026585610259818703826107d3565b92508083527fb10e2d527612073b26eecdfd717e6a320cf44b4afac2b0732d9fcbe2b7fa0cf65b82841061069857505050810160200161025982610265610249565b8054602085870181019190915290930192810161067d565b3461013e57604036600319011261013e576106c9610320565b602435801515810361013e576001600160a01b0382169133831461075757816107146107259233600052600560205260406000209060018060a01b0316600052602052604060002090565b9060ff801983541691151516179055565b604051901515815233907f17307eab39ab6107e8899845ad3d59bd9653f200f220920489ca2b5937696c3190602090a3005b60405162461bcd60e51b815260206004820152601960248201527f4552433732313a20617070726f766520746f2063616c6c6572000000000000006044820152606490fd5b634e487b7160e01b600052604160045260246000fd5b6020810190811067ffffffffffffffff8211176107ce57604052565b61079c565b90601f8019910116810190811067ffffffffffffffff8211176107ce57604052565b67ffffffffffffffff81116107ce57601f01601f191660200190565b92919261081d826107f5565b9161082b60405193846107d3565b82948184528183011161013e578281602093846000960137010152565b3461013e57608036600319011261013e57610861610320565b610869610336565b6064359167ffffffffffffffff831161013e573660238401121561013e5761089e6103a3933690602481600401359101610811565b9160443591610ec0565b3461013e57602036600319011261013e576102656108c7600435611408565b6040519182916020835260208301906101d4565b3461013e57604036600319011261013e57602060ff61092c6108fb610320565b610903610336565b6001600160a01b0391821660009081526005865260408082209290931681526020919091522090565b54166040519015158152f35b3461013e57604036600319011261013e57610951610320565b60243567ffffffffffffffff811161013e573660238201121561013e57610982903690602481600401359101610811565b6007546001600160a01b03919061099c9083163314610b57565b60016008540191826008558316908115610a7d5782610a6d92610a41610265966109ea6109e56109e186600052600260205260018060a01b0360406000205416151590565b1590565b6116c3565b6001600160a01b0381166000908152600360205260409020610a0c81546110cd565b9055610a22846000526002602052604060002090565b80546001600160a01b0319166001600160a01b03909216919091179055565b60007fddf252ad1be2c89b69c2b068fc378daa952ba7f163c4a11628f55a4df523b3ef8180a482611763565b6040519081529081906020820190565b606460405162461bcd60e51b815260206004820152602060248201527f4552433732313a206d696e7420746f20746865207a65726f20616464726573736044820152fd5b3461013e57602036600319011261013e57610ada610320565b6007546001600160a01b0390610af39082163314610b57565b811615610b03576103a390610ba2565b60405162461bcd60e51b815260206004820152602660248201527f4f776e61626c653a206e6577206f776e657220697320746865207a65726f206160448201526564647265737360d01b6064820152608490fd5b15610b5e57565b606460405162461bcd60e51b815260206004820152602060248201527f4f776e61626c653a2063616c6c6572206973206e6f7420746865206f776e65726044820152fd5b600780546001600160a01b039283166001600160a01b0319821681179092559091167f8be0079c531659141344cd1fd0a4f28419497f9722a3daafe3b4186f6b6457e0600080a3565b6000908152600260205260409020546001600160a01b03168015610c0c5790565b60405162461bcd60e51b815260206004820152602960248201527f4552433732313a206f776e657220717565727920666f72206e6f6e657869737460448201526832b73a103a37b5b2b760b91b6064820152608490fd5b90600182811c92168015610c93575b6020831014610c7d57565b634e487b7160e01b600052602260045260246000fd5b91607f1691610c72565b9060405191826000825492610cb184610c63565b908184526001948581169081600014610d205750600114610cdd575b5050610cdb925003836107d3565b565b9093915060005260209081600020936000915b818310610d08575050610cdb93508201013880610ccd565b85548884018501529485019487945091830191610cf0565b915050610cdb94506020925060ff191682840152151560051b8201013880610ccd565b15610d4a57565b60405162461bcd60e51b815260206004820152603860248201527f4552433732313a20617070726f76652063616c6c6572206973206e6f74206f7760448201527f6e6572206e6f7220617070726f76656420666f7220616c6c00000000000000006064820152608490fd5b6000818152600260205260409020546001600160a01b031615610ded576000908152600460205260409020546001600160a01b031690565b60405162461bcd60e51b815260206004820152602c60248201527f4552433732313a20617070726f76656420717565727920666f72206e6f6e657860448201526b34b9ba32b73a103a37b5b2b760a11b6064820152608490fd5b15610e4e57565b60405162461bcd60e51b815260206004820152603160248201527f4552433732313a207472616e736665722063616c6c6572206973206e6f74206f6044820152701ddb995c881b9bdc88185c1c1c9bdd9959607a1b6064820152608490fd5b60405190610eba826107b2565b60008252565b90610ee4939291610ed461048f8433610f5b565b610edf8383836110e9565b61132e565b15610eeb57565b60405162461bcd60e51b815280610f0460048201610f08565b0390fd5b60809060208152603260208201527f4552433732313a207472616e7366657220746f206e6f6e20455243373231526560408201527131b2b4bb32b91034b6b83632b6b2b73a32b960711b60608201520190565b6000828152600260205260409020546001600160a01b031615610ff157610f8182610beb565b9160018060a01b0390818316928285168414948515610fc0575b50508315610faa575b50505090565b610fb691929350610db5565b1614388080610fa4565b6001600160a01b0316600090815260056020526040902091945060ff91610fe791906103c8565b5416923880610f9b565b60405162461bcd60e51b815260206004820152602c60248201527f4552433732313a206f70657261746f7220717565727920666f72206e6f6e657860448201526b34b9ba32b73a103a37b5b2b760a11b6064820152608490fd5b1561105257565b60405162461bcd60e51b8152602060048201526024808201527f4552433732313a207472616e7366657220746f20746865207a65726f206164646044820152637265737360e01b6064820152608490fd5b634e487b7160e01b600052601160045260246000fd5b6000198101919082116110c857565b6110a3565b90600182018092116110c857565b60300190816030116110c857565b906110f383610beb565b6001600160a01b0383811692909182168390036111ad576111426111869282169461111f86151561104b565b61112887611200565b6001600160a01b0316600090815260036020526040902090565b61114c81546110b9565b90556001600160a01b038116600090815260036020526040902061117081546110cd565b9055610a22856000526002602052604060002090565b7fddf252ad1be2c89b69c2b068fc378daa952ba7f163c4a11628f55a4df523b3ef600080a4565b60405162461bcd60e51b815260206004820152602560248201527f4552433732313a207472616e736665722066726f6d20696e636f72726563742060448201526437bbb732b960d91b6064820152608490fd5b600081815260046020526040812080546001600160a01b03191690556001600160a01b0361122d83610beb565b167f8c5be1e5ebec7d5bd14f71427d1e84f3dd0314c0f7b2291e5b200ac8c7c3b9258280a4565b600082815260046020526040902080546001600160a01b0319166001600160a01b0383161790556001600160a01b038061128d84610beb565b169116907f8c5be1e5ebec7d5bd14f71427d1e84f3dd0314c0f7b2291e5b200ac8c7c3b925600080a4565b9081602091031261013e575161020a8161012c565b6001600160a01b03918216815291166020820152604081019190915260806060820181905261020a929101906101d4565b3d15611329573d9061130f826107f5565b9161131d60405193846107d3565b82523d6000602084013e565b606090565b92909190823b156113e857611361926020926000604051809681958294630a85bd0160e11b9a8b855233600486016112cd565b03926001600160a01b03165af1600091816113b8575b506113aa576113846112fe565b805190816113a55760405162461bcd60e51b815280610f0460048201610f08565b602001fd5b6001600160e01b0319161490565b6113da91925060203d81116113e1575b6113d281836107d3565b8101906112b8565b9038611377565b503d6113c8565b50505050600190565b90611404602092828151948592016101b1565b0190565b6000818152600260205260409020546001600160a01b0316156114975761144161143c826000526006602052604060002090565b610c9d565b9061144a610ead565b805115611492578251611462575061020a91506114f6565b61020a915061148461147e9360405194859360208501906113f1565b906113f1565b03601f1981018352826107d3565b505090565b60405162461bcd60e51b815260206004820152603160248201527f45524337323155524953746f726167653a2055524920717565727920666f72206044820152703737b732bc34b9ba32b73a103a37b5b2b760791b6064820152608490fd5b6000818152600260205260409020546001600160a01b0316156115525761151b610ead565b8051909190156115485761147e9161148461153861020a93611608565b60405194859360208501906113f1565b505061020a610ead565b60405162461bcd60e51b815260206004820152602f60248201527f4552433732314d657461646174613a2055524920717565727920666f72206e6f60448201526e3732bc34b9ba32b73a103a37b5b2b760891b6064820152608490fd5b906115b9826107f5565b6115c660405191826107d3565b82815280926115d7601f19916107f5565b0190602036910137565b9081518110156115f2570160200190565b634e487b7160e01b600052603260045260246000fd5b8015611694576000818181805b6116785750611623816115af565b935b61162f5750505090565b611638906110b9565b90600a9061166361165361164d8484066110db565b60ff1690565b60f81b6001600160f81b03191690565b841a61166f84876115e1565b53049081611625565b915060001981146110c8576001600a9101910480849291611615565b506040516040810181811067ffffffffffffffff8211176107ce5760405260018152600360fc1b602082015290565b156116ca57565b60405162461bcd60e51b815260206004820152601c60248201527f4552433732313a20746f6b656e20616c7265616479206d696e746564000000006044820152606490fd5b90601f811161171d57505050565b600091825260208220906020601f850160051c83019410611759575b601f0160051c01915b82811061174e57505050565b818155600101611742565b9092508290611739565b6000818152600260205260409020549192916001600160a01b03161561185d5760005260206006815260406000209083519067ffffffffffffffff82116107ce576117b8826117b28554610c63565b8561170f565b80601f83116001146117f25750819293946000926117e7575b50508160011b916000199060031b1c1916179055565b0151905038806117d1565b90601f1983169561180885600052602060002090565b926000905b8882106118455750508360019596971061182c575b505050811b019055565b015160001960f88460031b161c19169055388080611822565b8060018596829496860151815501950193019061180d565b60405162461bcd60e51b815260206004820152602e60248201527f45524337323155524953746f726167653a2055524920736574206f66206e6f6e60448201526d32bc34b9ba32b73a103a37b5b2b760911b6064820152608490fdfea26469706673582212209d70e4abf028cab3a64325ad2648d8f06205513affd8e16a5501ada03fd2c65c64736f6c63430008120033",
  "linkReferences": {},
  "deployedLinkReferences": {}
}