{"contracts/Caller.sol":{"GCaller":{"abi":[{"inputs":[{"internalType":"address","name":"_callAddress","type":"address"}],"stateMutability":"nonpayable","type":"constructor"},{"inputs":[],"name":"callAddress","outputs":[{"internalType":"address","name":"","type":"address"}],"stateMutability":"view","type":"function"},{"inputs":[],"name":"myAddress","outputs":[{"internalType":"address","name":"","type":"address"}],"stateMutability":"view","type":"function"},{"inputs":[],"name":"newCallGreeter","outputs":[{"internalType":"string","name":"","type":"string"}],"stateMutability":"view","type":"function"},{"inputs":[{"internalType":"string","name":"_greeting","type":"string"}],"name":"newSetGreet","outputs":[],"stateMutability":"nonpayable","type":"function"}],"evm":{"bytecode":{"linkReferences":{},"object":"60803461013357601f61058138819003918201601f19168301916001600160401b038311848410176101385780849260209460405283398101031261013357516001600160a01b0381169081900361013357600254906001918281811c91168015610129575b602082101461011357601f81116100c6575b507f48692066726f6d2043616c6c657200000000000000000000000000000000001c600255600080546001600160a01b03199081163017909155825416179055604051610432908161014f8239f35b6002600052601f0160051c7f405787fa12a823e0f2b7631cc41b3ba8828b3321ca811111fa75cd3aa3bb5ace9081019083905b828110610107575050610077565b600081550183906100f9565b634e487b7160e01b600052602260045260246000fd5b90607f1690610065565b600080fd5b634e487b7160e01b600052604160045260246000fdfe608060408181526004908136101561001657600080fd5b600092833560e01c90816326b85ee114610335575080633e23ee431461030c57806349900eec1461013a576370225fc71461005057600080fd5b3461013657826003193601126101365760015481516335ed0a4760e21b815292849184919082906001600160a01b03165afa91821561012c5783926100a1575b81518061009d85826103d0565b0390f35b9091503d8084833e6100b38183610359565b8101906020818303126101245780519067ffffffffffffffff8211610128570181601f82011215610124578051936100ea85610391565b926100f785519485610359565b85845260208684010111610121575061009d9361011a91602080850191016103ad565b9038610090565b80fd5b8380fd5b8480fd5b81513d85823e3d90fd5b8280fd5b5082903461030857602092836003193601126101365767ffffffffffffffff81358181116101285736602382011215610128578083013561017a81610391565b9161018786519384610359565b81835236602483830101116103045781879260248a93018386013783010152805115610228578495505b6001546001600160a01b031690813b156102245785916101e5918651978880948193639698086b60e01b83528983016103d0565b03925af1801561021a576101f7578480f35b8311610207575052818080808480f35b634e487b7160e01b845260419052602483fd5b83513d87823e3d90fd5b8580fd5b5082518495600254600181811c9181811680156102fa575b84841081146102e7578386529081156102c95750600114610271575b50505061026c8186970382610359565b6101b1565b6002885291975086917f405787fa12a823e0f2b7631cc41b3ba8828b3321ca811111fa75cd3aa3bb5ace5b8284106102b65750505081869761026c928201019761025c565b80548585018b015292890192810161029c565b60ff1916858501525050151560051b820101955061026c818661025c565b634e487b7160e01b8a526022885260248afd5b92607f1692610240565b8680fd5b5080fd5b83823461030857816003193601126103085760015490516001600160a01b039091168152602090f35b84903461030857816003193601126103085790546001600160a01b03168152602090f35b90601f8019910116810190811067ffffffffffffffff82111761037b57604052565b634e487b7160e01b600052604160045260246000fd5b67ffffffffffffffff811161037b57601f01601f191660200190565b60005b8381106103c05750506000910152565b81810151838201526020016103b0565b604091602082526103f081518092816020860152602086860191016103ad565b601f01601f191601019056fea264697066735822122023ed7494a3c851b54638a538e10284a07eb2354f9ff1fd3f11d3ecdb081936c464736f6c63430008120033","opcodes":"PUSH1 0x80 CALLVALUE PUSH2 0x133 JUMPI PUSH1 0x1F PUSH2 0x581 CODESIZE DUP2 SWAP1 SUB SWAP2 DUP3 ADD PUSH1 0x1F NOT AND DUP4 ADD SWAP2 PUSH1 0x1 PUSH1 0x1 PUSH1 0x40 SHL SUB DUP4 GT DUP5 DUP5 LT OR PUSH2 0x138 JUMPI DUP1 DUP5 SWAP3 PUSH1 0x20 SWAP5 PUSH1 0x40 MSTORE DUP4 CODECOPY DUP2 ADD SUB SLT PUSH2 0x133 JUMPI MLOAD PUSH1 0x1 PUSH1 0x1 PUSH1 0xA0 SHL SUB DUP2 AND SWAP1 DUP2 SWAP1 SUB PUSH2 0x133 JUMPI PUSH1 0x2 SLOAD SWAP1 PUSH1 0x1 SWAP2 DUP3 DUP2 DUP2 SHR SWAP2 AND DUP1 ISZERO PUSH2 0x129 JUMPI JUMPDEST PUSH1 0x20 DUP3 LT EQ PUSH2 0x113 JUMPI PUSH1 0x1F DUP2 GT PUSH2 0xC6 JUMPI JUMPDEST POP PUSH32 0x48692066726F6D2043616C6C657200000000000000000000000000000000001C PUSH1 0x2 SSTORE PUSH1 0x0 DUP1 SLOAD PUSH1 0x1 PUSH1 0x1 PUSH1 0xA0 SHL SUB NOT SWAP1 DUP2 AND ADDRESS OR SWAP1 SWAP2 SSTORE DUP3 SLOAD AND OR SWAP1 SSTORE PUSH1 0x40 MLOAD PUSH2 0x432 SWAP1 DUP2 PUSH2 0x14F DUP3 CODECOPY RETURN JUMPDEST PUSH1 0x2 PUSH1 0x0 MSTORE PUSH1 0x1F ADD PUSH1 0x5 SHR PUSH32 0x405787FA12A823E0F2B7631CC41B3BA8828B3321CA811111FA75CD3AA3BB5ACE SWAP1 DUP2 ADD SWAP1 DUP4 SWAP1 JUMPDEST DUP3 DUP2 LT PUSH2 0x107 JUMPI POP POP PUSH2 0x77 JUMP JUMPDEST PUSH1 0x0 DUP2 SSTORE ADD DUP4 SWAP1 PUSH2 0xF9 JUMP JUMPDEST PUSH4 0x4E487B71 PUSH1 0xE0 SHL PUSH1 0x0 MSTORE PUSH1 0x22 PUSH1 0x4 MSTORE PUSH1 0x24 PUSH1 0x0 REVERT JUMPDEST SWAP1 PUSH1 0x7F AND SWAP1 PUSH2 0x65 JUMP JUMPDEST PUSH1 0x0 DUP1 REVERT JUMPDEST PUSH4 0x4E487B71 PUSH1 0xE0 SHL PUSH1 0x0 MSTORE PUSH1 0x41 PUSH1 0x4 MSTORE PUSH1 0x24 PUSH1 0x0 REVERT INVALID PUSH1 0x80 PUSH1 0x40 DUP2 DUP2 MSTORE PUSH1 0x4 SWAP1 DUP2 CALLDATASIZE LT ISZERO PUSH2 0x16 JUMPI PUSH1 0x0 DUP1 REVERT JUMPDEST PUSH1 0x0 SWAP3 DUP4 CALLDATALOAD PUSH1 0xE0 SHR SWAP1 DUP2 PUSH4 0x26B85EE1 EQ PUSH2 0x335 JUMPI POP DUP1 PUSH4 0x3E23EE43 EQ PUSH2 0x30C JUMPI DUP1 PUSH4 0x49900EEC EQ PUSH2 0x13A JUMPI PUSH4 0x70225FC7 EQ PUSH2 0x50 JUMPI PUSH1 0x0 DUP1 REVERT JUMPDEST CALLVALUE PUSH2 0x136 JUMPI DUP3 PUSH1 0x3 NOT CALLDATASIZE ADD SLT PUSH2 0x136 JUMPI PUSH1 0x1 SLOAD DUP2 MLOAD PUSH4 0x35ED0A47 PUSH1 0xE2 SHL DUP2 MSTORE SWAP3 DUP5 SWAP2 DUP5 SWAP2 SWAP1 DUP3 SWAP1 PUSH1 0x1 PUSH1 0x1 PUSH1 0xA0 SHL SUB AND GAS STATICCALL SWAP2 DUP3 ISZERO PUSH2 0x12C JUMPI DUP4 SWAP3 PUSH2 0xA1 JUMPI JUMPDEST DUP2 MLOAD DUP1 PUSH2 0x9D DUP6 DUP3 PUSH2 0x3D0 JUMP JUMPDEST SUB SWAP1 RETURN JUMPDEST SWAP1 SWAP2 POP RETURNDATASIZE DUP1 DUP5 DUP4 RETURNDATACOPY PUSH2 0xB3 DUP2 DUP4 PUSH2 0x359 JUMP JUMPDEST DUP2 ADD SWAP1 PUSH1 0x20 DUP2 DUP4 SUB SLT PUSH2 0x124 JUMPI DUP1 MLOAD SWAP1 PUSH8 0xFFFFFFFFFFFFFFFF DUP3 GT PUSH2 0x128 JUMPI ADD DUP2 PUSH1 0x1F DUP3 ADD SLT ISZERO PUSH2 0x124 JUMPI DUP1 MLOAD SWAP4 PUSH2 0xEA DUP6 PUSH2 0x391 JUMP JUMPDEST SWAP3 PUSH2 0xF7 DUP6 MLOAD SWAP5 DUP6 PUSH2 0x359 JUMP JUMPDEST DUP6 DUP5 MSTORE PUSH1 0x20 DUP7 DUP5 ADD ADD GT PUSH2 0x121 JUMPI POP PUSH2 0x9D SWAP4 PUSH2 0x11A SWAP2 PUSH1 0x20 DUP1 DUP6 ADD SWAP2 ADD PUSH2 0x3AD JUMP JUMPDEST SWAP1 CODESIZE PUSH2 0x90 JUMP JUMPDEST DUP1 REVERT JUMPDEST DUP4 DUP1 REVERT JUMPDEST DUP5 DUP1 REVERT JUMPDEST DUP2 MLOAD RETURNDATASIZE DUP6 DUP3 RETURNDATACOPY RETURNDATASIZE SWAP1 REVERT JUMPDEST DUP3 DUP1 REVERT JUMPDEST POP DUP3 SWAP1 CALLVALUE PUSH2 0x308 JUMPI PUSH1 0x20 SWAP3 DUP4 PUSH1 0x3 NOT CALLDATASIZE ADD SLT PUSH2 0x136 JUMPI PUSH8 0xFFFFFFFFFFFFFFFF DUP2 CALLDATALOAD DUP2 DUP2 GT PUSH2 0x128 JUMPI CALLDATASIZE PUSH1 0x23 DUP3 ADD SLT ISZERO PUSH2 0x128 JUMPI DUP1 DUP4 ADD CALLDATALOAD PUSH2 0x17A DUP2 PUSH2 0x391 JUMP JUMPDEST SWAP2 PUSH2 0x187 DUP7 MLOAD SWAP4 DUP5 PUSH2 0x359 JUMP JUMPDEST DUP2 DUP4 MSTORE CALLDATASIZE PUSH1 0x24 DUP4 DUP4 ADD ADD GT PUSH2 0x304 JUMPI DUP2 DUP8 SWAP3 PUSH1 0x24 DUP11 SWAP4 ADD DUP4 DUP7 ADD CALLDATACOPY DUP4 ADD ADD MSTORE DUP1 MLOAD ISZERO PUSH2 0x228 JUMPI DUP5 SWAP6 POP JUMPDEST PUSH1 0x1 SLOAD PUSH1 0x1 PUSH1 0x1 PUSH1 0xA0 SHL SUB AND SWAP1 DUP2 EXTCODESIZE ISZERO PUSH2 0x224 JUMPI DUP6 SWAP2 PUSH2 0x1E5 SWAP2 DUP7 MLOAD SWAP8 DUP9 DUP1 SWAP5 DUP2 SWAP4 PUSH4 0x9698086B PUSH1 0xE0 SHL DUP4 MSTORE DUP10 DUP4 ADD PUSH2 0x3D0 JUMP JUMPDEST SUB SWAP3 GAS CALL DUP1 ISZERO PUSH2 0x21A JUMPI PUSH2 0x1F7 JUMPI DUP5 DUP1 RETURN JUMPDEST DUP4 GT PUSH2 0x207 JUMPI POP MSTORE DUP2 DUP1 DUP1 DUP1 DUP5 DUP1 RETURN JUMPDEST PUSH4 0x4E487B71 PUSH1 0xE0 SHL DUP5 MSTORE PUSH1 0x41 SWAP1 MSTORE PUSH1 0x24 DUP4 REVERT JUMPDEST DUP4 MLOAD RETURNDATASIZE DUP8 DUP3 RETURNDATACOPY RETURNDATASIZE SWAP1 REVERT JUMPDEST DUP6 DUP1 REVERT JUMPDEST POP DUP3 MLOAD DUP5 SWAP6 PUSH1 0x2 SLOAD PUSH1 0x1 DUP2 DUP2 SHR SWAP2 DUP2 DUP2 AND DUP1 ISZERO PUSH2 0x2FA JUMPI JUMPDEST DUP5 DUP5 LT DUP2 EQ PUSH2 0x2E7 JUMPI DUP4 DUP7 MSTORE SWAP1 DUP2 ISZERO PUSH2 0x2C9 JUMPI POP PUSH1 0x1 EQ PUSH2 0x271 JUMPI JUMPDEST POP POP POP PUSH2 0x26C DUP2 DUP7 SWAP8 SUB DUP3 PUSH2 0x359 JUMP JUMPDEST PUSH2 0x1B1 JUMP JUMPDEST PUSH1 0x2 DUP9 MSTORE SWAP2 SWAP8 POP DUP7 SWAP2 PUSH32 0x405787FA12A823E0F2B7631CC41B3BA8828B3321CA811111FA75CD3AA3BB5ACE JUMPDEST DUP3 DUP5 LT PUSH2 0x2B6 JUMPI POP POP POP DUP2 DUP7 SWAP8 PUSH2 0x26C SWAP3 DUP3 ADD ADD SWAP8 PUSH2 0x25C JUMP JUMPDEST DUP1 SLOAD DUP6 DUP6 ADD DUP12 ADD MSTORE SWAP3 DUP10 ADD SWAP3 DUP2 ADD PUSH2 0x29C JUMP JUMPDEST PUSH1 0xFF NOT AND DUP6 DUP6 ADD MSTORE POP POP ISZERO ISZERO PUSH1 0x5 SHL DUP3 ADD ADD SWAP6 POP PUSH2 0x26C DUP2 DUP7 PUSH2 0x25C JUMP JUMPDEST PUSH4 0x4E487B71 PUSH1 0xE0 SHL DUP11 MSTORE PUSH1 0x22 DUP9 MSTORE PUSH1 0x24 DUP11 REVERT JUMPDEST SWAP3 PUSH1 0x7F AND SWAP3 PUSH2 0x240 JUMP JUMPDEST DUP7 DUP1 REVERT JUMPDEST POP DUP1 REVERT JUMPDEST DUP4 DUP3 CALLVALUE PUSH2 0x308 JUMPI DUP2 PUSH1 0x3 NOT CALLDATASIZE ADD SLT PUSH2 0x308 JUMPI PUSH1 0x1 SLOAD SWAP1 MLOAD PUSH1 0x1 PUSH1 0x1 PUSH1 0xA0 SHL SUB SWAP1 SWAP2 AND DUP2 MSTORE PUSH1 0x20 SWAP1 RETURN JUMPDEST DUP5 SWAP1 CALLVALUE PUSH2 0x308 JUMPI DUP2 PUSH1 0x3 NOT CALLDATASIZE ADD SLT PUSH2 0x308 JUMPI SWAP1 SLOAD PUSH1 0x1 PUSH1 0x1 PUSH1 0xA0 SHL SUB AND DUP2 MSTORE PUSH1 0x20 SWAP1 RETURN JUMPDEST SWAP1 PUSH1 0x1F DUP1 NOT SWAP2 ADD AND DUP2 ADD SWAP1 DUP2 LT PUSH8 0xFFFFFFFFFFFFFFFF DUP3 GT OR PUSH2 0x37B JUMPI PUSH1 0x40 MSTORE JUMP JUMPDEST PUSH4 0x4E487B71 PUSH1 0xE0 SHL PUSH1 0x0 MSTORE PUSH1 0x41 PUSH1 0x4 MSTORE PUSH1 0x24 PUSH1 0x0 REVERT JUMPDEST PUSH8 0xFFFFFFFFFFFFFFFF DUP2 GT PUSH2 0x37B JUMPI PUSH1 0x1F ADD PUSH1 0x1F NOT AND PUSH1 0x20 ADD SWAP1 JUMP JUMPDEST PUSH1 0x0 JUMPDEST DUP4 DUP2 LT PUSH2 0x3C0 JUMPI POP POP PUSH1 0x0 SWAP2 ADD MSTORE JUMP JUMPDEST DUP2 DUP2 ADD MLOAD DUP4 DUP3 ADD MSTORE PUSH1 0x20 ADD PUSH2 0x3B0 JUMP JUMPDEST PUSH1 0x40 SWAP2 PUSH1 0x20 DUP3 MSTORE PUSH2 0x3F0 DUP2 MLOAD DUP1 SWAP3 DUP2 PUSH1 0x20 DUP7 ADD MSTORE PUSH1 0x20 DUP7 DUP7 ADD SWAP2 ADD PUSH2 0x3AD JUMP JUMPDEST PUSH1 0x1F ADD PUSH1 0x1F NOT AND ADD ADD SWAP1 JUMP INVALID LOG2 PUSH5 0x6970667358 0x22 SLT KECCAK256 0x23 0xED PUSH21 0x94A3C851B54638A538E10284A07EB2354F9FF1FD3F GT 0xD3 0xEC 0xDB ADDMOD NOT CALLDATASIZE 0xC4 PUSH5 0x736F6C6343 STOP ADDMOD SLT STOP CALLER "},"methodIdentifiers":{"callAddress()":"3e23ee43","myAddress()":"26b85ee1","newCallGreeter()":"70225fc7","newSetGreet(string)":"49900eec"}}}}}