{"contracts/Greeter.sol":{"Greeter":{"abi":[{"inputs":[{"internalType":"string","name":"_greeting","type":"string"}],"stateMutability":"nonpayable","type":"constructor"},{"anonymous":false,"inputs":[{"indexed":false,"internalType":"string","name":"greeting","type":"string"}],"name":"SetGreeting","type":"event"},{"inputs":[],"name":"greet","outputs":[{"internalType":"string","name":"","type":"string"}],"stateMutability":"view","type":"function"},{"inputs":[{"internalType":"string","name":"_greeting","type":"string"}],"name":"setGreeting","outputs":[],"stateMutability":"nonpayable","type":"function"}],"evm":{"bytecode":{"linkReferences":{},"object":"6080604052346101f55761066380380380610019816101fa565b928339810190602080828403126101f55781516001600160401b03928382116101f5570192601f908082860112156101f55784518481116101cb57601f1995610067828501881686016101fa565b928284528583830101116101f557849060005b8381106101e15750506000918301015280519384116101cb57600054926001938481811c911680156101c1575b828210146101ab57838111610165575b50809285116001146101005750839450908392916000946100f5575b50501b916000199060031b1c1916176000555b60405161044390816102208239f35b0151925038806100d3565b9294849081166000805284600020946000905b8883831061014b5750505010610132575b505050811b016000556100e6565b015160001960f88460031b161c19169055388080610124565b858701518855909601959485019487935090810190610113565b60008052816000208480880160051c8201928489106101a2575b0160051c019085905b8281106101965750506100b7565b60008155018590610188565b9250819261017f565b634e487b7160e01b600052602260045260246000fd5b90607f16906100a7565b634e487b7160e01b600052604160045260246000fd5b81810183015185820184015286920161007a565b600080fd5b6040519190601f01601f191682016001600160401b038111838210176101cb5760405256fe608080604052600436101561001357600080fd5b600090813560e01c908163a413686214610118575063cfae32171461003757600080fd5b3461011557806003193601126101155760405190808054610057816103d3565b808552916001918083169081156100eb5750600114610091575b61008d8561008181870382610352565b6040519182918261038a565b0390f35b80809450527f290decd9548b62a8d60345a988386fc84ba6bc95484008f6362f93160ef3e5635b8284106100d35750505081016020016100818261008d610071565b805460208587018101919091529093019281016100b8565b86955061008d9693506020925061008194915060ff191682840152151560051b8201019293610071565b80fd5b8234610115576020918260031936011261034e5760043567ffffffffffffffff9384821161034a573660238301121561034a57816004013585811161033657601f199261016c601f83018516840186610352565b81855236602483830101116103325781869260248593018388013785010152825194851161031e5761019e84546103d3565b601f81116102bd575b508091601f861160011461021757505090838394610206937f4dabe8361a35a905ec9d530e301d2e5c6cf44c65cdd7768f522a77a373436da9959161020c575b508160011b916000199060031b1c19161784556040519182918261038a565b0390a180f35b9050820151866101e7565b85929192168480527f290decd9548b62a8d60345a988386fc84ba6bc95484008f6362f93160ef3e5639285905b8282106102a5575050946102069392600192827f4dabe8361a35a905ec9d530e301d2e5c6cf44c65cdd7768f522a77a373436da997981061028c575b5050811b018455610081565b84015160001960f88460031b161c191690558680610280565b80600185968294968901518155019501930190610244565b8480527f290decd9548b62a8d60345a988386fc84ba6bc95484008f6362f93160ef3e563601f870160051c810191838810610314575b601f0160051c01905b81811061030957506101a7565b8581556001016102fc565b90915081906102f3565b634e487b7160e01b84526041600452602484fd5b8580fd5b634e487b7160e01b85526041600452602485fd5b8380fd5b5080fd5b90601f8019910116810190811067ffffffffffffffff82111761037457604052565b634e487b7160e01b600052604160045260246000fd5b6020808252825181830181905290939260005b8281106103bf57505060409293506000838284010152601f8019910116010190565b81810186015184820160400152850161039d565b90600182811c92168015610403575b60208310146103ed57565b634e487b7160e01b600052602260045260246000fd5b91607f16916103e256fea26469706673582212205202fe51dd83dc87143aaf4812eb74f95b34eec3501aa105dcaf98250fae7bda64736f6c63430008120033","opcodes":"PUSH1 0x80 PUSH1 0x40 MSTORE CALLVALUE PUSH2 0x1F5 JUMPI PUSH2 0x663 DUP1 CODESIZE SUB DUP1 PUSH2 0x19 DUP2 PUSH2 0x1FA JUMP JUMPDEST SWAP3 DUP4 CODECOPY DUP2 ADD SWAP1 PUSH1 0x20 DUP1 DUP3 DUP5 SUB SLT PUSH2 0x1F5 JUMPI DUP2 MLOAD PUSH1 0x1 PUSH1 0x1 PUSH1 0x40 SHL SUB SWAP3 DUP4 DUP3 GT PUSH2 0x1F5 JUMPI ADD SWAP3 PUSH1 0x1F SWAP1 DUP1 DUP3 DUP7 ADD SLT ISZERO PUSH2 0x1F5 JUMPI DUP5 MLOAD DUP5 DUP2 GT PUSH2 0x1CB JUMPI PUSH1 0x1F NOT SWAP6 PUSH2 0x67 DUP3 DUP6 ADD DUP9 AND DUP7 ADD PUSH2 0x1FA JUMP JUMPDEST SWAP3 DUP3 DUP5 MSTORE DUP6 DUP4 DUP4 ADD ADD GT PUSH2 0x1F5 JUMPI DUP5 SWAP1 PUSH1 0x0 JUMPDEST DUP4 DUP2 LT PUSH2 0x1E1 JUMPI POP POP PUSH1 0x0 SWAP2 DUP4 ADD ADD MSTORE DUP1 MLOAD SWAP4 DUP5 GT PUSH2 0x1CB JUMPI PUSH1 0x0 SLOAD SWAP3 PUSH1 0x1 SWAP4 DUP5 DUP2 DUP2 SHR SWAP2 AND DUP1 ISZERO PUSH2 0x1C1 JUMPI JUMPDEST DUP3 DUP3 LT EQ PUSH2 0x1AB JUMPI DUP4 DUP2 GT PUSH2 0x165 JUMPI JUMPDEST POP DUP1 SWAP3 DUP6 GT PUSH1 0x1 EQ PUSH2 0x100 JUMPI POP DUP4 SWAP5 POP SWAP1 DUP4 SWAP3 SWAP2 PUSH1 0x0 SWAP5 PUSH2 0xF5 JUMPI JUMPDEST POP POP SHL SWAP2 PUSH1 0x0 NOT SWAP1 PUSH1 0x3 SHL SHR NOT AND OR PUSH1 0x0 SSTORE JUMPDEST PUSH1 0x40 MLOAD PUSH2 0x443 SWAP1 DUP2 PUSH2 0x220 DUP3 CODECOPY RETURN JUMPDEST ADD MLOAD SWAP3 POP CODESIZE DUP1 PUSH2 0xD3 JUMP JUMPDEST SWAP3 SWAP5 DUP5 SWAP1 DUP2 AND PUSH1 0x0 DUP1 MSTORE DUP5 PUSH1 0x0 KECCAK256 SWAP5 PUSH1 0x0 SWAP1 JUMPDEST DUP9 DUP4 DUP4 LT PUSH2 0x14B JUMPI POP POP POP LT PUSH2 0x132 JUMPI JUMPDEST POP POP POP DUP2 SHL ADD PUSH1 0x0 SSTORE PUSH2 0xE6 JUMP JUMPDEST ADD MLOAD PUSH1 0x0 NOT PUSH1 0xF8 DUP5 PUSH1 0x3 SHL AND SHR NOT AND SWAP1 SSTORE CODESIZE DUP1 DUP1 PUSH2 0x124 JUMP JUMPDEST DUP6 DUP8 ADD MLOAD DUP9 SSTORE SWAP1 SWAP7 ADD SWAP6 SWAP5 DUP6 ADD SWAP5 DUP8 SWAP4 POP SWAP1 DUP2 ADD SWAP1 PUSH2 0x113 JUMP JUMPDEST PUSH1 0x0 DUP1 MSTORE DUP2 PUSH1 0x0 KECCAK256 DUP5 DUP1 DUP9 ADD PUSH1 0x5 SHR DUP3 ADD SWAP3 DUP5 DUP10 LT PUSH2 0x1A2 JUMPI JUMPDEST ADD PUSH1 0x5 SHR ADD SWAP1 DUP6 SWAP1 JUMPDEST DUP3 DUP2 LT PUSH2 0x196 JUMPI POP POP PUSH2 0xB7 JUMP JUMPDEST PUSH1 0x0 DUP2 SSTORE ADD DUP6 SWAP1 PUSH2 0x188 JUMP JUMPDEST SWAP3 POP DUP2 SWAP3 PUSH2 0x17F JUMP JUMPDEST PUSH4 0x4E487B71 PUSH1 0xE0 SHL PUSH1 0x0 MSTORE PUSH1 0x22 PUSH1 0x4 MSTORE PUSH1 0x24 PUSH1 0x0 REVERT JUMPDEST SWAP1 PUSH1 0x7F AND SWAP1 PUSH2 0xA7 JUMP JUMPDEST PUSH4 0x4E487B71 PUSH1 0xE0 SHL PUSH1 0x0 MSTORE PUSH1 0x41 PUSH1 0x4 MSTORE PUSH1 0x24 PUSH1 0x0 REVERT JUMPDEST DUP2 DUP2 ADD DUP4 ADD MLOAD DUP6 DUP3 ADD DUP5 ADD MSTORE DUP7 SWAP3 ADD PUSH2 0x7A JUMP JUMPDEST PUSH1 0x0 DUP1 REVERT JUMPDEST PUSH1 0x40 MLOAD SWAP2 SWAP1 PUSH1 0x1F ADD PUSH1 0x1F NOT AND DUP3 ADD PUSH1 0x1 PUSH1 0x1 PUSH1 0x40 SHL SUB DUP2 GT DUP4 DUP3 LT OR PUSH2 0x1CB JUMPI PUSH1 0x40 MSTORE JUMP INVALID PUSH1 0x80 DUP1 PUSH1 0x40 MSTORE PUSH1 0x4 CALLDATASIZE LT ISZERO PUSH2 0x13 JUMPI PUSH1 0x0 DUP1 REVERT JUMPDEST PUSH1 0x0 SWAP1 DUP2 CALLDATALOAD PUSH1 0xE0 SHR SWAP1 DUP2 PUSH4 0xA4136862 EQ PUSH2 0x118 JUMPI POP PUSH4 0xCFAE3217 EQ PUSH2 0x37 JUMPI PUSH1 0x0 DUP1 REVERT JUMPDEST CALLVALUE PUSH2 0x115 JUMPI DUP1 PUSH1 0x3 NOT CALLDATASIZE ADD SLT PUSH2 0x115 JUMPI PUSH1 0x40 MLOAD SWAP1 DUP1 DUP1 SLOAD PUSH2 0x57 DUP2 PUSH2 0x3D3 JUMP JUMPDEST DUP1 DUP6 MSTORE SWAP2 PUSH1 0x1 SWAP2 DUP1 DUP4 AND SWAP1 DUP2 ISZERO PUSH2 0xEB JUMPI POP PUSH1 0x1 EQ PUSH2 0x91 JUMPI JUMPDEST PUSH2 0x8D DUP6 PUSH2 0x81 DUP2 DUP8 SUB DUP3 PUSH2 0x352 JUMP JUMPDEST PUSH1 0x40 MLOAD SWAP2 DUP3 SWAP2 DUP3 PUSH2 0x38A JUMP JUMPDEST SUB SWAP1 RETURN JUMPDEST DUP1 DUP1 SWAP5 POP MSTORE PUSH32 0x290DECD9548B62A8D60345A988386FC84BA6BC95484008F6362F93160EF3E563 JUMPDEST DUP3 DUP5 LT PUSH2 0xD3 JUMPI POP POP POP DUP2 ADD PUSH1 0x20 ADD PUSH2 0x81 DUP3 PUSH2 0x8D PUSH2 0x71 JUMP JUMPDEST DUP1 SLOAD PUSH1 0x20 DUP6 DUP8 ADD DUP2 ADD SWAP2 SWAP1 SWAP2 MSTORE SWAP1 SWAP4 ADD SWAP3 DUP2 ADD PUSH2 0xB8 JUMP JUMPDEST DUP7 SWAP6 POP PUSH2 0x8D SWAP7 SWAP4 POP PUSH1 0x20 SWAP3 POP PUSH2 0x81 SWAP5 SWAP2 POP PUSH1 0xFF NOT AND DUP3 DUP5 ADD MSTORE ISZERO ISZERO PUSH1 0x5 SHL DUP3 ADD ADD SWAP3 SWAP4 PUSH2 0x71 JUMP JUMPDEST DUP1 REVERT JUMPDEST DUP3 CALLVALUE PUSH2 0x115 JUMPI PUSH1 0x20 SWAP2 DUP3 PUSH1 0x3 NOT CALLDATASIZE ADD SLT PUSH2 0x34E JUMPI PUSH1 0x4 CALLDATALOAD PUSH8 0xFFFFFFFFFFFFFFFF SWAP4 DUP5 DUP3 GT PUSH2 0x34A JUMPI CALLDATASIZE PUSH1 0x23 DUP4 ADD SLT ISZERO PUSH2 0x34A JUMPI DUP2 PUSH1 0x4 ADD CALLDATALOAD DUP6 DUP2 GT PUSH2 0x336 JUMPI PUSH1 0x1F NOT SWAP3 PUSH2 0x16C PUSH1 0x1F DUP4 ADD DUP6 AND DUP5 ADD DUP7 PUSH2 0x352 JUMP JUMPDEST DUP2 DUP6 MSTORE CALLDATASIZE PUSH1 0x24 DUP4 DUP4 ADD ADD GT PUSH2 0x332 JUMPI DUP2 DUP7 SWAP3 PUSH1 0x24 DUP6 SWAP4 ADD DUP4 DUP9 ADD CALLDATACOPY DUP6 ADD ADD MSTORE DUP3 MLOAD SWAP5 DUP6 GT PUSH2 0x31E JUMPI PUSH2 0x19E DUP5 SLOAD PUSH2 0x3D3 JUMP JUMPDEST PUSH1 0x1F DUP2 GT PUSH2 0x2BD JUMPI JUMPDEST POP DUP1 SWAP2 PUSH1 0x1F DUP7 GT PUSH1 0x1 EQ PUSH2 0x217 JUMPI POP POP SWAP1 DUP4 DUP4 SWAP5 PUSH2 0x206 SWAP4 PUSH32 0x4DABE8361A35A905EC9D530E301D2E5C6CF44C65CDD7768F522A77A373436DA9 SWAP6 SWAP2 PUSH2 0x20C JUMPI JUMPDEST POP DUP2 PUSH1 0x1 SHL SWAP2 PUSH1 0x0 NOT SWAP1 PUSH1 0x3 SHL SHR NOT AND OR DUP5 SSTORE PUSH1 0x40 MLOAD SWAP2 DUP3 SWAP2 DUP3 PUSH2 0x38A JUMP JUMPDEST SUB SWAP1 LOG1 DUP1 RETURN JUMPDEST SWAP1 POP DUP3 ADD MLOAD DUP7 PUSH2 0x1E7 JUMP JUMPDEST DUP6 SWAP3 SWAP2 SWAP3 AND DUP5 DUP1 MSTORE PUSH32 0x290DECD9548B62A8D60345A988386FC84BA6BC95484008F6362F93160EF3E563 SWAP3 DUP6 SWAP1 JUMPDEST DUP3 DUP3 LT PUSH2 0x2A5 JUMPI POP POP SWAP5 PUSH2 0x206 SWAP4 SWAP3 PUSH1 0x1 SWAP3 DUP3 PUSH32 0x4DABE8361A35A905EC9D530E301D2E5C6CF44C65CDD7768F522A77A373436DA9 SWAP8 SWAP9 LT PUSH2 0x28C JUMPI JUMPDEST POP POP DUP2 SHL ADD DUP5 SSTORE PUSH2 0x81 JUMP JUMPDEST DUP5 ADD MLOAD PUSH1 0x0 NOT PUSH1 0xF8 DUP5 PUSH1 0x3 SHL AND SHR NOT AND SWAP1 SSTORE DUP7 DUP1 PUSH2 0x280 JUMP JUMPDEST DUP1 PUSH1 0x1 DUP6 SWAP7 DUP3 SWAP5 SWAP7 DUP10 ADD MLOAD DUP2 SSTORE ADD SWAP6 ADD SWAP4 ADD SWAP1 PUSH2 0x244 JUMP JUMPDEST DUP5 DUP1 MSTORE PUSH32 0x290DECD9548B62A8D60345A988386FC84BA6BC95484008F6362F93160EF3E563 PUSH1 0x1F DUP8 ADD PUSH1 0x5 SHR DUP2 ADD SWAP2 DUP4 DUP9 LT PUSH2 0x314 JUMPI JUMPDEST PUSH1 0x1F ADD PUSH1 0x5 SHR ADD SWAP1 JUMPDEST DUP2 DUP2 LT PUSH2 0x309 JUMPI POP PUSH2 0x1A7 JUMP JUMPDEST DUP6 DUP2 SSTORE PUSH1 0x1 ADD PUSH2 0x2FC JUMP JUMPDEST SWAP1 SWAP2 POP DUP2 SWAP1 PUSH2 0x2F3 JUMP JUMPDEST PUSH4 0x4E487B71 PUSH1 0xE0 SHL DUP5 MSTORE PUSH1 0x41 PUSH1 0x4 MSTORE PUSH1 0x24 DUP5 REVERT JUMPDEST DUP6 DUP1 REVERT JUMPDEST PUSH4 0x4E487B71 PUSH1 0xE0 SHL DUP6 MSTORE PUSH1 0x41 PUSH1 0x4 MSTORE PUSH1 0x24 DUP6 REVERT JUMPDEST DUP4 DUP1 REVERT JUMPDEST POP DUP1 REVERT JUMPDEST SWAP1 PUSH1 0x1F DUP1 NOT SWAP2 ADD AND DUP2 ADD SWAP1 DUP2 LT PUSH8 0xFFFFFFFFFFFFFFFF DUP3 GT OR PUSH2 0x374 JUMPI PUSH1 0x40 MSTORE JUMP JUMPDEST PUSH4 0x4E487B71 PUSH1 0xE0 SHL PUSH1 0x0 MSTORE PUSH1 0x41 PUSH1 0x4 MSTORE PUSH1 0x24 PUSH1 0x0 REVERT JUMPDEST PUSH1 0x20 DUP1 DUP3 MSTORE DUP3 MLOAD DUP2 DUP4 ADD DUP2 SWAP1 MSTORE SWAP1 SWAP4 SWAP3 PUSH1 0x0 JUMPDEST DUP3 DUP2 LT PUSH2 0x3BF JUMPI POP POP PUSH1 0x40 SWAP3 SWAP4 POP PUSH1 0x0 DUP4 DUP3 DUP5 ADD ADD MSTORE PUSH1 0x1F DUP1 NOT SWAP2 ADD AND ADD ADD SWAP1 JUMP JUMPDEST DUP2 DUP2 ADD DUP7 ADD MLOAD DUP5 DUP3 ADD PUSH1 0x40 ADD MSTORE DUP6 ADD PUSH2 0x39D JUMP JUMPDEST SWAP1 PUSH1 0x1 DUP3 DUP2 SHR SWAP3 AND DUP1 ISZERO PUSH2 0x403 JUMPI JUMPDEST PUSH1 0x20 DUP4 LT EQ PUSH2 0x3ED JUMPI JUMP JUMPDEST PUSH4 0x4E487B71 PUSH1 0xE0 SHL PUSH1 0x0 MSTORE PUSH1 0x22 PUSH1 0x4 MSTORE PUSH1 0x24 PUSH1 0x0 REVERT JUMPDEST SWAP2 PUSH1 0x7F AND SWAP2 PUSH2 0x3E2 JUMP INVALID LOG2 PUSH5 0x6970667358 0x22 SLT KECCAK256 MSTORE MUL INVALID MLOAD 0xDD DUP4 0xDC DUP8 EQ GASPRICE 0xAF BASEFEE SLT 0xEB PUSH21 0xF95B34EEC3501AA105DCAF98250FAE7BDA64736F6C PUSH4 0x43000812 STOP CALLER "},"methodIdentifiers":{"greet()":"cfae3217","setGreeting(string)":"a4136862"}}}}}