{"@matterlabs/zksync-contracts/l2/system-contracts/BootloaderUtilities.sol":{"BootloaderUtilities":{"abi":[{"inputs":[{"components":[{"internalType":"uint256","name":"txType","type":"uint256"},{"internalType":"uint256","name":"from","type":"uint256"},{"internalType":"uint256","name":"to","type":"uint256"},{"internalType":"uint256","name":"gasLimit","type":"uint256"},{"internalType":"uint256","name":"gasPerPubdataByteLimit","type":"uint256"},{"internalType":"uint256","name":"maxFeePerGas","type":"uint256"},{"internalType":"uint256","name":"maxPriorityFeePerGas","type":"uint256"},{"internalType":"uint256","name":"paymaster","type":"uint256"},{"internalType":"uint256","name":"nonce","type":"uint256"},{"internalType":"uint256","name":"value","type":"uint256"},{"internalType":"uint256[4]","name":"reserved","type":"uint256[4]"},{"internalType":"bytes","name":"data","type":"bytes"},{"internalType":"bytes","name":"signature","type":"bytes"},{"internalType":"bytes32[]","name":"factoryDeps","type":"bytes32[]"},{"internalType":"bytes","name":"paymasterInput","type":"bytes"},{"internalType":"bytes","name":"reservedDynamic","type":"bytes"}],"internalType":"struct Transaction","name":"_transaction","type":"tuple"}],"name":"getTransactionHashes","outputs":[{"internalType":"bytes32","name":"txHash","type":"bytes32"},{"internalType":"bytes32","name":"signedTxHash","type":"bytes32"}],"stateMutability":"view","type":"function"}],"evm":{"bytecode":{"linkReferences":{},"object":"60808060405234610016576114e4908161001c8239f35b600080fdfe6080604052600436101561001257600080fd5b6000803560e01c63ebe4a3d71461002857600080fd5b346101205760031960203682011261012357600435916001600160401b0383116101205761026083600401928436030112610120575061006781610e4a565b918135607181036100ad5750610088610094926101e461008e930190610127565b90610a6a565b826101b5565b602081519101205b604080519182526020820192909252f35b9050806100c357506100be906103f5565b61009c565b600281036100d557506100be90610889565b6001036100e5576100be90610671565b60405162461bcd60e51b8152602060048201526013602482015272556e737570706f72746564207478207479706560681b6044820152606490fd5b80fd5b5080fd5b903590601e198136030182121561015957018035906001600160401b0382116101595760200191813603831361015957565b600080fd5b634e487b7160e01b600052604160045260246000fd5b604081019081106001600160401b0382111761018f57604052565b61015e565b90601f801991011681019081106001600160401b0382111761018f57604052565b9190604051926020840152604083015260408252606082018281106001600160401b0382111761018f57604052565b9081519160005b8381106101fc575050016000815290565b80602080928401015181850152016101eb565b61023f9061023161022b949360405195869360208501906101e4565b906101e4565b03601f198101845283610194565b565b634e487b7160e01b600052603260045260246000fd5b90156102605790565b610241565b90604010156102605760400190565b6001600160401b03811161018f57601f01601f191660200190565b6040519061029c82610174565b60018252608160f81b6020830152565b906020116101595790602090565b906040116101595760200190602090565b3590602081106102d9575090565b6000199060200360031b1b1690565b156102ef57565b60405162461bcd60e51b815260206004820152600f60248201526e496e76616c696420762076616c756560881b6044820152606490fd5b634e487b7160e01b600052601160045260246000fd5b908160011b918083046002149015171561035257565b610326565b600801908160081161035257565b9190820180921161035257565b989694919285939b9a989694919b6040519c8d9b60208d01610393916101e4565b61039c916101e4565b6103a5916101e4565b6103ae916101e4565b6103b7916101e4565b6103c0916101e4565b91823701600081526103d1916101e4565b6103da916101e4565b6103e3916101e4565b03601f198101835261023f9083610194565b610403610100820135610bfe565b61042661041360a0840135610bfe565b6104206060850135610bfe565b9061020f565b9161043d60408201356001600160a01b0316610bba565b9061044c610120820135610bfe565b926101c082019160606001600160401b036104678584610127565b9050166001811415600014610598576104809150610c81565b6101e08201956104908784610127565b610499916102ac565b6104a2916102cb565b6104ab90610bfe565b956104b68885610127565b6104bf916102ba565b6104c8916102cb565b6104d190610bfe565b976104dc9085610127565b6104e591610265565b610564999061055c90610519903560f81c601b8114801561058e575b61050a906102e8565b61014088013561056e57610bfe565b976105566105518951855101865101875101885101610538848b610127565b90508d519101018d51018b51016001600160401b031690565b610d32565b96610127565b969095610372565b6020815191012090565b6105899061058361057e4661033c565b610357565b90610365565b610bfe565b50601c8114610501565b506105a38483610127565b600160ff1b916001600160f81b0319916105cf916105c19190610257565b356001600160f81b03191690565b161061048057506105de61028f565b610480565b9261023f9461022b61022b9261022b6102319661022b61022b9c9b976040519d8e9b60208d01906101e4565b601a1981019190821161035257565b969492909897959380926040519a8b99600160f81b60208c015260218b01610645916101e4565b61064e916101e4565b610657916101e4565b9182370160008152610668916101e4565b6103d1916101e4565b6106d161067d46610bfe565b61068b610100840135610bfe565b61069860a0850135610bfe565b6106a56060860135610bfe565b906106bc60408701356001600160a01b0316610bba565b926106cb610120880135610bfe565b946105e3565b6101c082019160606001600160401b036106eb8584610127565b9050169060018214156000146107ec575061070590610c81565b925b61070f610d1e565b6101e083019361071f8585610127565b610728916102ac565b610731916102cb565b61073a90610bfe565b936107458682610127565b61074e916102ba565b610757916102cb565b61076090610bfe565b9561076b9082610127565b61077491610265565b61056497906107da906107a290610589903560f81c601b811480156107e2575b61079d906102e8565b61060f565b956107d461055186518551016107b88488610127565b905089519101018a51018b51018951016001600160401b031690565b93610127565b93909261061e565b50601c8114610794565b9390506107f98183610127565b600160ff1b916001600160f81b031991610817916105c19190610257565b161061070757925061082761028f565b92610707565b9492909695939160405197889660208801610847916101e4565b610850916101e4565b610859916101e4565b610668916101e4565b969492909897959380926040519a8b99600160f91b60208c015260218b01610645916101e4565b6108f661089546610bfe565b6108a3610100840135610bfe565b6108b060c0850135610bfe565b6108bd60a0860135610bfe565b6108ca6060870135610bfe565b916108e160408801356001600160a01b0316610bba565b936108f0610120890135610bfe565b9561082d565b6101c082019160606001600160401b036109108584610127565b9050169060018214156000146109c9575061092a90610c81565b925b610934610d1e565b6101e08301936109448585610127565b61094d916102ac565b610956916102cb565b61095f90610bfe565b9361096a8682610127565b610973916102ba565b61097c916102cb565b61098590610bfe565b956109909082610127565b61099991610265565b61056497906109c1906107a290610589903560f81c601b811480156107e25761079d906102e8565b939092610862565b9390506109d68183610127565b600160ff1b916001600160f81b0319916109f4916105c19190610257565b161061092c579250610a0461028f565b9261092c565b15610a1157565b60405162461bcd60e51b815260206004820152601f60248201527f6b656363616b3235362072657475726e656420696e76616c69642064617461006044820152606490fd5b6020815191015190602081106102d9575090565b905a9160009061ffff928280858161ffeb81fa5080610b16575050610a9463ffffffff3616610e35565b63ffffffff8311610ae657610ae392610ad1928291610ac49060c01b63ffffffff60c01b16600160e01b17610e26565b8161fff6618010fa610b96565b610ade6020825114610a0a565b610a56565b90565b60405162461bcd60e51b81526020600482015260086024820152674f766572666c6f7760c01b6044820152606490fd5b63ffffffff918380868161ffe9878616fa5081018091116103525736039036821161035257610b459116610e35565b610a94565b60405190610b5782610174565b6001825260203681840137565b90610b6e82610274565b610b7b6040519182610194565b8281528092610b8c601f1991610274565b0190602036910137565b15610bb0573d90610ba682610b64565b916000602084013e565b3d806000803e6000fd5b90604051610bc781610174565b60158152602560fa1b602082015260609290921b6bffffffffffffffffffffffff19166021830152565b8051156102605760200190565b906080821015610c3e57610c10610b4a565b9180610c2c5750600160ff1b5b60001a610c2983610bf1565b53565b60f81b6001600160f81b031916610c1d565b610c4782610d9e565b91610c5460028401610b64565b926081810160f81b6001600160f81b03191660001a610c7285610bf1565b53601f0360031b1b6021830152565b6001600160401b031660018114610d08576038811015610cc457610ca3610b4a565b9060800160f81b6001600160f81b03191660001a610cc082610bf1565b5390565b610ccd81610d9e565b90610cda60028301610b64565b9160b8810160f81b6001600160f81b03191660001a610cf884610bf1565b53601f0360031b1b602182015290565b634e487b7160e01b600052600160045260246000fd5b610d26610b4a565b9060c0610c2983610bf1565b6001600160401b0316906038821015610d6a57610d4d610b4a565b9160c00160f81b6001600160f81b03191660001a610c2983610bf1565b610d7382610d9e565b91610d8060028401610b64565b9260f8808201901b6001600160f81b03191660001a610c7285610bf1565b906000916fffffffffffffffffffffffffffffffff8111610e1a575b806001600160401b0360ff9211610e0c575b63ffffffff8111610dfe575b61ffff8111610df0575b11610de957565b9060010190565b60029060101c930192610de2565b60049060201c930192610dd8565b60089060401c930192610dcc565b6010925060801c610dba565b600061ffff8161ffe78194fa50565b600061ffff8161ffe863ffffffff829516fa50565b803580610e5b5750610ae3906111c7565b60718103610e6d5750610ae390610f24565b60028103610e7f5750610ae39061141b565b600103610e8f57610ae39061132e565b60405162461bcd60e51b815260206004820152601760248201527f456e636f64696e6720756e737570706f727465642074780000000000000000006044820152606490fd5b903590601e198136030182121561015957018035906001600160401b03821161015957602001918160051b3603831361015957565b91906001600160fb1b0381116101595760051b809282370190565b611127611133610f6292610f3f6100886101c0830183610127565b61105f610f50610200840184610ed4565b60405197602089019289928491610f09565b0396610f76601f1998898101835282610194565b51902091611053610f8e610088610220870187610127565b6040519485936020850197610120810135906101008101359060e08101359060c0810135908c60a0820135916080810135916060820135916040810135916020820135913590999693909d9c9b9895926101a09b9895926101c08c019f7f848e1bfa1ac4e3576b728bda6721b215c70a7799a5b4866282a71bab954baac88d5260208d015260408c015260608b015260808a015260a089015260c088015260e08701526101008601526101208501526101408401526101608301526101808201520152565b03868101835282610194565b5190209260405160208101906110fc816110f046859190606060808401937fc2f8787176b8ac6bf7215b4adcc1e069bf4ab82d9ab1df05a57a91d425935b6e81527f19b453ce45aaaaf3a300f5a9ec95869b4f28ab10430b572ee218c3a6a5e07d6f60208201527fad7c5bef027816a800da1736444fb58a807ef4c9603b7848673f7e3a68eb14a560408201520152565b03848101835282610194565b51902093604051938491602083019687909160429261190160f01b8352600283015260228201520190565b03908101835282610194565b51902090565b9061023f60026111539360405194859160208301906101e4565b61010160f71b815203601d19810185520183610194565b9694919285939998969491996040519a8b9960208b01611189916101e4565b611192916101e4565b61119b916101e4565b6111a4916101e4565b6111ad916101e4565b6111b6916101e4565b91823701600081526103e3916101e4565b610564906111d9610100820135610bfe565b6111e961041360a0840135610bfe565b9161120060408201356001600160a01b0316610bba565b9261120f610120830135610bfe565b6101c083019460606001600160401b036112298887610127565b9050169060018214156000146112ae575061124390610c81565b925b606096610140860135611290575b611288906105566105518951855101865101875101885101611275848b610127565b90508c519101016001600160401b031690565b96909561116a565b96506112886112a66112a146610bfe565b611139565b979050611253565b9390506112bb8786610127565b600160ff1b916001600160f81b0319916112d9916105c19190610257565b16106112455792506112e961028f565b92611245565b929361023f94816113206102319561022b61022b9b9a966040519c8d9a600160f81b60208d015260218c01906101e4565b9182370190600082526101e4565b6105649061133e61067d46610bfe565b6101c082019160606001600160401b036113588584610127565b90501660018114156000146113ad576113719150610c81565b6113a561137c610d1e565b946107d461055186518551016113928488610127565b905089519101016001600160401b031690565b9390926112ef565b506113b88483610127565b600160ff1b916001600160f81b0319916113d6916105c19190610257565b161061137157506113e561028f565b611371565b929361023f94816113206102319561022b61022b9b9a966040519c8d9a600160f91b60208d015260218c01906101e4565b6105649061142b61089546610bfe565b6101c082019160606001600160401b036114458584610127565b90501660018114156000146114715761145e9150610c81565b61146961137c610d1e565b9390926113ea565b5061147c8483610127565b600160ff1b916001600160f81b03199161149a916105c19190610257565b161061145e57506114a961028f565b61145e56fea26469706673582212201ec62201581e0bc2ce1269f0fb33fcd1a9bb5abf856e4634e565726ba47cf39864736f6c63430008120033","opcodes":"PUSH1 0x80 DUP1 PUSH1 0x40 MSTORE CALLVALUE PUSH2 0x16 JUMPI PUSH2 0x14E4 SWAP1 DUP2 PUSH2 0x1C DUP3 CODECOPY RETURN JUMPDEST PUSH1 0x0 DUP1 REVERT INVALID PUSH1 0x80 PUSH1 0x40 MSTORE PUSH1 0x4 CALLDATASIZE LT ISZERO PUSH2 0x12 JUMPI PUSH1 0x0 DUP1 REVERT JUMPDEST PUSH1 0x0 DUP1 CALLDATALOAD PUSH1 0xE0 SHR PUSH4 0xEBE4A3D7 EQ PUSH2 0x28 JUMPI PUSH1 0x0 DUP1 REVERT JUMPDEST CALLVALUE PUSH2 0x120 JUMPI PUSH1 0x3 NOT PUSH1 0x20 CALLDATASIZE DUP3 ADD SLT PUSH2 0x123 JUMPI PUSH1 0x4 CALLDATALOAD SWAP2 PUSH1 0x1 PUSH1 0x1 PUSH1 0x40 SHL SUB DUP4 GT PUSH2 0x120 JUMPI PUSH2 0x260 DUP4 PUSH1 0x4 ADD SWAP3 DUP5 CALLDATASIZE SUB ADD SLT PUSH2 0x120 JUMPI POP PUSH2 0x67 DUP2 PUSH2 0xE4A JUMP JUMPDEST SWAP2 DUP2 CALLDATALOAD PUSH1 0x71 DUP2 SUB PUSH2 0xAD JUMPI POP PUSH2 0x88 PUSH2 0x94 SWAP3 PUSH2 0x1E4 PUSH2 0x8E SWAP4 ADD SWAP1 PUSH2 0x127 JUMP JUMPDEST SWAP1 PUSH2 0xA6A JUMP JUMPDEST DUP3 PUSH2 0x1B5 JUMP JUMPDEST PUSH1 0x20 DUP2 MLOAD SWAP2 ADD KECCAK256 JUMPDEST PUSH1 0x40 DUP1 MLOAD SWAP2 DUP3 MSTORE PUSH1 0x20 DUP3 ADD SWAP3 SWAP1 SWAP3 MSTORE RETURN JUMPDEST SWAP1 POP DUP1 PUSH2 0xC3 JUMPI POP PUSH2 0xBE SWAP1 PUSH2 0x3F5 JUMP JUMPDEST PUSH2 0x9C JUMP JUMPDEST PUSH1 0x2 DUP2 SUB PUSH2 0xD5 JUMPI POP PUSH2 0xBE SWAP1 PUSH2 0x889 JUMP JUMPDEST PUSH1 0x1 SUB PUSH2 0xE5 JUMPI PUSH2 0xBE SWAP1 PUSH2 0x671 JUMP JUMPDEST PUSH1 0x40 MLOAD PUSH3 0x461BCD PUSH1 0xE5 SHL DUP2 MSTORE PUSH1 0x20 PUSH1 0x4 DUP3 ADD MSTORE PUSH1 0x13 PUSH1 0x24 DUP3 ADD MSTORE PUSH19 0x556E737570706F727465642074782074797065 PUSH1 0x68 SHL PUSH1 0x44 DUP3 ADD MSTORE PUSH1 0x64 SWAP1 REVERT JUMPDEST DUP1 REVERT JUMPDEST POP DUP1 REVERT JUMPDEST SWAP1 CALLDATALOAD SWAP1 PUSH1 0x1E NOT DUP2 CALLDATASIZE SUB ADD DUP3 SLT ISZERO PUSH2 0x159 JUMPI ADD DUP1 CALLDATALOAD SWAP1 PUSH1 0x1 PUSH1 0x1 PUSH1 0x40 SHL SUB DUP3 GT PUSH2 0x159 JUMPI PUSH1 0x20 ADD SWAP2 DUP2 CALLDATASIZE SUB DUP4 SGT PUSH2 0x159 JUMPI JUMP JUMPDEST PUSH1 0x0 DUP1 REVERT JUMPDEST PUSH4 0x4E487B71 PUSH1 0xE0 SHL PUSH1 0x0 MSTORE PUSH1 0x41 PUSH1 0x4 MSTORE PUSH1 0x24 PUSH1 0x0 REVERT JUMPDEST PUSH1 0x40 DUP2 ADD SWAP1 DUP2 LT PUSH1 0x1 PUSH1 0x1 PUSH1 0x40 SHL SUB DUP3 GT OR PUSH2 0x18F JUMPI PUSH1 0x40 MSTORE JUMP JUMPDEST PUSH2 0x15E JUMP JUMPDEST SWAP1 PUSH1 0x1F DUP1 NOT SWAP2 ADD AND DUP2 ADD SWAP1 DUP2 LT PUSH1 0x1 PUSH1 0x1 PUSH1 0x40 SHL SUB DUP3 GT OR PUSH2 0x18F JUMPI PUSH1 0x40 MSTORE JUMP JUMPDEST SWAP2 SWAP1 PUSH1 0x40 MLOAD SWAP3 PUSH1 0x20 DUP5 ADD MSTORE PUSH1 0x40 DUP4 ADD MSTORE PUSH1 0x40 DUP3 MSTORE PUSH1 0x60 DUP3 ADD DUP3 DUP2 LT PUSH1 0x1 PUSH1 0x1 PUSH1 0x40 SHL SUB DUP3 GT OR PUSH2 0x18F JUMPI PUSH1 0x40 MSTORE JUMP JUMPDEST SWAP1 DUP2 MLOAD SWAP2 PUSH1 0x0 JUMPDEST DUP4 DUP2 LT PUSH2 0x1FC JUMPI POP POP ADD PUSH1 0x0 DUP2 MSTORE SWAP1 JUMP JUMPDEST DUP1 PUSH1 0x20 DUP1 SWAP3 DUP5 ADD ADD MLOAD DUP2 DUP6 ADD MSTORE ADD PUSH2 0x1EB JUMP JUMPDEST PUSH2 0x23F SWAP1 PUSH2 0x231 PUSH2 0x22B SWAP5 SWAP4 PUSH1 0x40 MLOAD SWAP6 DUP7 SWAP4 PUSH1 0x20 DUP6 ADD SWAP1 PUSH2 0x1E4 JUMP JUMPDEST SWAP1 PUSH2 0x1E4 JUMP JUMPDEST SUB PUSH1 0x1F NOT DUP2 ADD DUP5 MSTORE DUP4 PUSH2 0x194 JUMP JUMPDEST JUMP JUMPDEST PUSH4 0x4E487B71 PUSH1 0xE0 SHL PUSH1 0x0 MSTORE PUSH1 0x32 PUSH1 0x4 MSTORE PUSH1 0x24 PUSH1 0x0 REVERT JUMPDEST SWAP1 ISZERO PUSH2 0x260 JUMPI SWAP1 JUMP JUMPDEST PUSH2 0x241 JUMP JUMPDEST SWAP1 PUSH1 0x40 LT ISZERO PUSH2 0x260 JUMPI PUSH1 0x40 ADD SWAP1 JUMP JUMPDEST PUSH1 0x1 PUSH1 0x1 PUSH1 0x40 SHL SUB DUP2 GT PUSH2 0x18F JUMPI PUSH1 0x1F ADD PUSH1 0x1F NOT AND PUSH1 0x20 ADD SWAP1 JUMP JUMPDEST PUSH1 0x40 MLOAD SWAP1 PUSH2 0x29C DUP3 PUSH2 0x174 JUMP JUMPDEST PUSH1 0x1 DUP3 MSTORE PUSH1 0x81 PUSH1 0xF8 SHL PUSH1 0x20 DUP4 ADD MSTORE JUMP JUMPDEST SWAP1 PUSH1 0x20 GT PUSH2 0x159 JUMPI SWAP1 PUSH1 0x20 SWAP1 JUMP JUMPDEST SWAP1 PUSH1 0x40 GT PUSH2 0x159 JUMPI PUSH1 0x20 ADD SWAP1 PUSH1 0x20 SWAP1 JUMP JUMPDEST CALLDATALOAD SWAP1 PUSH1 0x20 DUP2 LT PUSH2 0x2D9 JUMPI POP SWAP1 JUMP JUMPDEST PUSH1 0x0 NOT SWAP1 PUSH1 0x20 SUB PUSH1 0x3 SHL SHL AND SWAP1 JUMP JUMPDEST ISZERO PUSH2 0x2EF JUMPI JUMP JUMPDEST PUSH1 0x40 MLOAD PUSH3 0x461BCD PUSH1 0xE5 SHL DUP2 MSTORE PUSH1 0x20 PUSH1 0x4 DUP3 ADD MSTORE PUSH1 0xF PUSH1 0x24 DUP3 ADD MSTORE PUSH15 0x496E76616C696420762076616C7565 PUSH1 0x88 SHL PUSH1 0x44 DUP3 ADD MSTORE PUSH1 0x64 SWAP1 REVERT JUMPDEST PUSH4 0x4E487B71 PUSH1 0xE0 SHL PUSH1 0x0 MSTORE PUSH1 0x11 PUSH1 0x4 MSTORE PUSH1 0x24 PUSH1 0x0 REVERT JUMPDEST SWAP1 DUP2 PUSH1 0x1 SHL SWAP2 DUP1 DUP4 DIV PUSH1 0x2 EQ SWAP1 ISZERO OR ISZERO PUSH2 0x352 JUMPI JUMP JUMPDEST PUSH2 0x326 JUMP JUMPDEST PUSH1 0x8 ADD SWAP1 DUP2 PUSH1 0x8 GT PUSH2 0x352 JUMPI JUMP JUMPDEST SWAP2 SWAP1 DUP3 ADD DUP1 SWAP3 GT PUSH2 0x352 JUMPI JUMP JUMPDEST SWAP9 SWAP7 SWAP5 SWAP2 SWAP3 DUP6 SWAP4 SWAP12 SWAP11 SWAP9 SWAP7 SWAP5 SWAP2 SWAP12 PUSH1 0x40 MLOAD SWAP13 DUP14 SWAP12 PUSH1 0x20 DUP14 ADD PUSH2 0x393 SWAP2 PUSH2 0x1E4 JUMP JUMPDEST PUSH2 0x39C SWAP2 PUSH2 0x1E4 JUMP JUMPDEST PUSH2 0x3A5 SWAP2 PUSH2 0x1E4 JUMP JUMPDEST PUSH2 0x3AE SWAP2 PUSH2 0x1E4 JUMP JUMPDEST PUSH2 0x3B7 SWAP2 PUSH2 0x1E4 JUMP JUMPDEST PUSH2 0x3C0 SWAP2 PUSH2 0x1E4 JUMP JUMPDEST SWAP2 DUP3 CALLDATACOPY ADD PUSH1 0x0 DUP2 MSTORE PUSH2 0x3D1 SWAP2 PUSH2 0x1E4 JUMP JUMPDEST PUSH2 0x3DA SWAP2 PUSH2 0x1E4 JUMP JUMPDEST PUSH2 0x3E3 SWAP2 PUSH2 0x1E4 JUMP JUMPDEST SUB PUSH1 0x1F NOT DUP2 ADD DUP4 MSTORE PUSH2 0x23F SWAP1 DUP4 PUSH2 0x194 JUMP JUMPDEST PUSH2 0x403 PUSH2 0x100 DUP3 ADD CALLDATALOAD PUSH2 0xBFE JUMP JUMPDEST PUSH2 0x426 PUSH2 0x413 PUSH1 0xA0 DUP5 ADD CALLDATALOAD PUSH2 0xBFE JUMP JUMPDEST PUSH2 0x420 PUSH1 0x60 DUP6 ADD CALLDATALOAD PUSH2 0xBFE JUMP JUMPDEST SWAP1 PUSH2 0x20F JUMP JUMPDEST SWAP2 PUSH2 0x43D PUSH1 0x40 DUP3 ADD CALLDATALOAD PUSH1 0x1 PUSH1 0x1 PUSH1 0xA0 SHL SUB AND PUSH2 0xBBA JUMP JUMPDEST SWAP1 PUSH2 0x44C PUSH2 0x120 DUP3 ADD CALLDATALOAD PUSH2 0xBFE JUMP JUMPDEST SWAP3 PUSH2 0x1C0 DUP3 ADD SWAP2 PUSH1 0x60 PUSH1 0x1 PUSH1 0x1 PUSH1 0x40 SHL SUB PUSH2 0x467 DUP6 DUP5 PUSH2 0x127 JUMP JUMPDEST SWAP1 POP AND PUSH1 0x1 DUP2 EQ ISZERO PUSH1 0x0 EQ PUSH2 0x598 JUMPI PUSH2 0x480 SWAP2 POP PUSH2 0xC81 JUMP JUMPDEST PUSH2 0x1E0 DUP3 ADD SWAP6 PUSH2 0x490 DUP8 DUP5 PUSH2 0x127 JUMP JUMPDEST PUSH2 0x499 SWAP2 PUSH2 0x2AC JUMP JUMPDEST PUSH2 0x4A2 SWAP2 PUSH2 0x2CB JUMP JUMPDEST PUSH2 0x4AB SWAP1 PUSH2 0xBFE JUMP JUMPDEST SWAP6 PUSH2 0x4B6 DUP9 DUP6 PUSH2 0x127 JUMP JUMPDEST PUSH2 0x4BF SWAP2 PUSH2 0x2BA JUMP JUMPDEST PUSH2 0x4C8 SWAP2 PUSH2 0x2CB JUMP JUMPDEST PUSH2 0x4D1 SWAP1 PUSH2 0xBFE JUMP JUMPDEST SWAP8 PUSH2 0x4DC SWAP1 DUP6 PUSH2 0x127 JUMP JUMPDEST PUSH2 0x4E5 SWAP2 PUSH2 0x265 JUMP JUMPDEST PUSH2 0x564 SWAP10 SWAP1 PUSH2 0x55C SWAP1 PUSH2 0x519 SWAP1 CALLDATALOAD PUSH1 0xF8 SHR PUSH1 0x1B DUP2 EQ DUP1 ISZERO PUSH2 0x58E JUMPI JUMPDEST PUSH2 0x50A SWAP1 PUSH2 0x2E8 JUMP JUMPDEST PUSH2 0x140 DUP9 ADD CALLDATALOAD PUSH2 0x56E JUMPI PUSH2 0xBFE JUMP JUMPDEST SWAP8 PUSH2 0x556 PUSH2 0x551 DUP10 MLOAD DUP6 MLOAD ADD DUP7 MLOAD ADD DUP8 MLOAD ADD DUP9 MLOAD ADD PUSH2 0x538 DUP5 DUP12 PUSH2 0x127 JUMP JUMPDEST SWAP1 POP DUP14 MLOAD SWAP2 ADD ADD DUP14 MLOAD ADD DUP12 MLOAD ADD PUSH1 0x1 PUSH1 0x1 PUSH1 0x40 SHL SUB AND SWAP1 JUMP JUMPDEST PUSH2 0xD32 JUMP JUMPDEST SWAP7 PUSH2 0x127 JUMP JUMPDEST SWAP7 SWAP1 SWAP6 PUSH2 0x372 JUMP JUMPDEST PUSH1 0x20 DUP2 MLOAD SWAP2 ADD KECCAK256 SWAP1 JUMP JUMPDEST PUSH2 0x589 SWAP1 PUSH2 0x583 PUSH2 0x57E CHAINID PUSH2 0x33C JUMP JUMPDEST PUSH2 0x357 JUMP JUMPDEST SWAP1 PUSH2 0x365 JUMP JUMPDEST PUSH2 0xBFE JUMP JUMPDEST POP PUSH1 0x1C DUP2 EQ PUSH2 0x501 JUMP JUMPDEST POP PUSH2 0x5A3 DUP5 DUP4 PUSH2 0x127 JUMP JUMPDEST PUSH1 0x1 PUSH1 0xFF SHL SWAP2 PUSH1 0x1 PUSH1 0x1 PUSH1 0xF8 SHL SUB NOT SWAP2 PUSH2 0x5CF SWAP2 PUSH2 0x5C1 SWAP2 SWAP1 PUSH2 0x257 JUMP JUMPDEST CALLDATALOAD PUSH1 0x1 PUSH1 0x1 PUSH1 0xF8 SHL SUB NOT AND SWAP1 JUMP JUMPDEST AND LT PUSH2 0x480 JUMPI POP PUSH2 0x5DE PUSH2 0x28F JUMP JUMPDEST PUSH2 0x480 JUMP JUMPDEST SWAP3 PUSH2 0x23F SWAP5 PUSH2 0x22B PUSH2 0x22B SWAP3 PUSH2 0x22B PUSH2 0x231 SWAP7 PUSH2 0x22B PUSH2 0x22B SWAP13 SWAP12 SWAP8 PUSH1 0x40 MLOAD SWAP14 DUP15 SWAP12 PUSH1 0x20 DUP14 ADD SWAP1 PUSH2 0x1E4 JUMP JUMPDEST PUSH1 0x1A NOT DUP2 ADD SWAP2 SWAP1 DUP3 GT PUSH2 0x352 JUMPI JUMP JUMPDEST SWAP7 SWAP5 SWAP3 SWAP1 SWAP9 SWAP8 SWAP6 SWAP4 DUP1 SWAP3 PUSH1 0x40 MLOAD SWAP11 DUP12 SWAP10 PUSH1 0x1 PUSH1 0xF8 SHL PUSH1 0x20 DUP13 ADD MSTORE PUSH1 0x21 DUP12 ADD PUSH2 0x645 SWAP2 PUSH2 0x1E4 JUMP JUMPDEST PUSH2 0x64E SWAP2 PUSH2 0x1E4 JUMP JUMPDEST PUSH2 0x657 SWAP2 PUSH2 0x1E4 JUMP JUMPDEST SWAP2 DUP3 CALLDATACOPY ADD PUSH1 0x0 DUP2 MSTORE PUSH2 0x668 SWAP2 PUSH2 0x1E4 JUMP JUMPDEST PUSH2 0x3D1 SWAP2 PUSH2 0x1E4 JUMP JUMPDEST PUSH2 0x6D1 PUSH2 0x67D CHAINID PUSH2 0xBFE JUMP JUMPDEST PUSH2 0x68B PUSH2 0x100 DUP5 ADD CALLDATALOAD PUSH2 0xBFE JUMP JUMPDEST PUSH2 0x698 PUSH1 0xA0 DUP6 ADD CALLDATALOAD PUSH2 0xBFE JUMP JUMPDEST PUSH2 0x6A5 PUSH1 0x60 DUP7 ADD CALLDATALOAD PUSH2 0xBFE JUMP JUMPDEST SWAP1 PUSH2 0x6BC PUSH1 0x40 DUP8 ADD CALLDATALOAD PUSH1 0x1 PUSH1 0x1 PUSH1 0xA0 SHL SUB AND PUSH2 0xBBA JUMP JUMPDEST SWAP3 PUSH2 0x6CB PUSH2 0x120 DUP9 ADD CALLDATALOAD PUSH2 0xBFE JUMP JUMPDEST SWAP5 PUSH2 0x5E3 JUMP JUMPDEST PUSH2 0x1C0 DUP3 ADD SWAP2 PUSH1 0x60 PUSH1 0x1 PUSH1 0x1 PUSH1 0x40 SHL SUB PUSH2 0x6EB DUP6 DUP5 PUSH2 0x127 JUMP JUMPDEST SWAP1 POP AND SWAP1 PUSH1 0x1 DUP3 EQ ISZERO PUSH1 0x0 EQ PUSH2 0x7EC JUMPI POP PUSH2 0x705 SWAP1 PUSH2 0xC81 JUMP JUMPDEST SWAP3 JUMPDEST PUSH2 0x70F PUSH2 0xD1E JUMP JUMPDEST PUSH2 0x1E0 DUP4 ADD SWAP4 PUSH2 0x71F DUP6 DUP6 PUSH2 0x127 JUMP JUMPDEST PUSH2 0x728 SWAP2 PUSH2 0x2AC JUMP JUMPDEST PUSH2 0x731 SWAP2 PUSH2 0x2CB JUMP JUMPDEST PUSH2 0x73A SWAP1 PUSH2 0xBFE JUMP JUMPDEST SWAP4 PUSH2 0x745 DUP7 DUP3 PUSH2 0x127 JUMP JUMPDEST PUSH2 0x74E SWAP2 PUSH2 0x2BA JUMP JUMPDEST PUSH2 0x757 SWAP2 PUSH2 0x2CB JUMP JUMPDEST PUSH2 0x760 SWAP1 PUSH2 0xBFE JUMP JUMPDEST SWAP6 PUSH2 0x76B SWAP1 DUP3 PUSH2 0x127 JUMP JUMPDEST PUSH2 0x774 SWAP2 PUSH2 0x265 JUMP JUMPDEST PUSH2 0x564 SWAP8 SWAP1 PUSH2 0x7DA SWAP1 PUSH2 0x7A2 SWAP1 PUSH2 0x589 SWAP1 CALLDATALOAD PUSH1 0xF8 SHR PUSH1 0x1B DUP2 EQ DUP1 ISZERO PUSH2 0x7E2 JUMPI JUMPDEST PUSH2 0x79D SWAP1 PUSH2 0x2E8 JUMP JUMPDEST PUSH2 0x60F JUMP JUMPDEST SWAP6 PUSH2 0x7D4 PUSH2 0x551 DUP7 MLOAD DUP6 MLOAD ADD PUSH2 0x7B8 DUP5 DUP9 PUSH2 0x127 JUMP JUMPDEST SWAP1 POP DUP10 MLOAD SWAP2 ADD ADD DUP11 MLOAD ADD DUP12 MLOAD ADD DUP10 MLOAD ADD PUSH1 0x1 PUSH1 0x1 PUSH1 0x40 SHL SUB AND SWAP1 JUMP JUMPDEST SWAP4 PUSH2 0x127 JUMP JUMPDEST SWAP4 SWAP1 SWAP3 PUSH2 0x61E JUMP JUMPDEST POP PUSH1 0x1C DUP2 EQ PUSH2 0x794 JUMP JUMPDEST SWAP4 SWAP1 POP PUSH2 0x7F9 DUP2 DUP4 PUSH2 0x127 JUMP JUMPDEST PUSH1 0x1 PUSH1 0xFF SHL SWAP2 PUSH1 0x1 PUSH1 0x1 PUSH1 0xF8 SHL SUB NOT SWAP2 PUSH2 0x817 SWAP2 PUSH2 0x5C1 SWAP2 SWAP1 PUSH2 0x257 JUMP JUMPDEST AND LT PUSH2 0x707 JUMPI SWAP3 POP PUSH2 0x827 PUSH2 0x28F JUMP JUMPDEST SWAP3 PUSH2 0x707 JUMP JUMPDEST SWAP5 SWAP3 SWAP1 SWAP7 SWAP6 SWAP4 SWAP2 PUSH1 0x40 MLOAD SWAP8 DUP9 SWAP7 PUSH1 0x20 DUP9 ADD PUSH2 0x847 SWAP2 PUSH2 0x1E4 JUMP JUMPDEST PUSH2 0x850 SWAP2 PUSH2 0x1E4 JUMP JUMPDEST PUSH2 0x859 SWAP2 PUSH2 0x1E4 JUMP JUMPDEST PUSH2 0x668 SWAP2 PUSH2 0x1E4 JUMP JUMPDEST SWAP7 SWAP5 SWAP3 SWAP1 SWAP9 SWAP8 SWAP6 SWAP4 DUP1 SWAP3 PUSH1 0x40 MLOAD SWAP11 DUP12 SWAP10 PUSH1 0x1 PUSH1 0xF9 SHL PUSH1 0x20 DUP13 ADD MSTORE PUSH1 0x21 DUP12 ADD PUSH2 0x645 SWAP2 PUSH2 0x1E4 JUMP JUMPDEST PUSH2 0x8F6 PUSH2 0x895 CHAINID PUSH2 0xBFE JUMP JUMPDEST PUSH2 0x8A3 PUSH2 0x100 DUP5 ADD CALLDATALOAD PUSH2 0xBFE JUMP JUMPDEST PUSH2 0x8B0 PUSH1 0xC0 DUP6 ADD CALLDATALOAD PUSH2 0xBFE JUMP JUMPDEST PUSH2 0x8BD PUSH1 0xA0 DUP7 ADD CALLDATALOAD PUSH2 0xBFE JUMP JUMPDEST PUSH2 0x8CA PUSH1 0x60 DUP8 ADD CALLDATALOAD PUSH2 0xBFE JUMP JUMPDEST SWAP2 PUSH2 0x8E1 PUSH1 0x40 DUP9 ADD CALLDATALOAD PUSH1 0x1 PUSH1 0x1 PUSH1 0xA0 SHL SUB AND PUSH2 0xBBA JUMP JUMPDEST SWAP4 PUSH2 0x8F0 PUSH2 0x120 DUP10 ADD CALLDATALOAD PUSH2 0xBFE JUMP JUMPDEST SWAP6 PUSH2 0x82D JUMP JUMPDEST PUSH2 0x1C0 DUP3 ADD SWAP2 PUSH1 0x60 PUSH1 0x1 PUSH1 0x1 PUSH1 0x40 SHL SUB PUSH2 0x910 DUP6 DUP5 PUSH2 0x127 JUMP JUMPDEST SWAP1 POP AND SWAP1 PUSH1 0x1 DUP3 EQ ISZERO PUSH1 0x0 EQ PUSH2 0x9C9 JUMPI POP PUSH2 0x92A SWAP1 PUSH2 0xC81 JUMP JUMPDEST SWAP3 JUMPDEST PUSH2 0x934 PUSH2 0xD1E JUMP JUMPDEST PUSH2 0x1E0 DUP4 ADD SWAP4 PUSH2 0x944 DUP6 DUP6 PUSH2 0x127 JUMP JUMPDEST PUSH2 0x94D SWAP2 PUSH2 0x2AC JUMP JUMPDEST PUSH2 0x956 SWAP2 PUSH2 0x2CB JUMP JUMPDEST PUSH2 0x95F SWAP1 PUSH2 0xBFE JUMP JUMPDEST SWAP4 PUSH2 0x96A DUP7 DUP3 PUSH2 0x127 JUMP JUMPDEST PUSH2 0x973 SWAP2 PUSH2 0x2BA JUMP JUMPDEST PUSH2 0x97C SWAP2 PUSH2 0x2CB JUMP JUMPDEST PUSH2 0x985 SWAP1 PUSH2 0xBFE JUMP JUMPDEST SWAP6 PUSH2 0x990 SWAP1 DUP3 PUSH2 0x127 JUMP JUMPDEST PUSH2 0x999 SWAP2 PUSH2 0x265 JUMP JUMPDEST PUSH2 0x564 SWAP8 SWAP1 PUSH2 0x9C1 SWAP1 PUSH2 0x7A2 SWAP1 PUSH2 0x589 SWAP1 CALLDATALOAD PUSH1 0xF8 SHR PUSH1 0x1B DUP2 EQ DUP1 ISZERO PUSH2 0x7E2 JUMPI PUSH2 0x79D SWAP1 PUSH2 0x2E8 JUMP JUMPDEST SWAP4 SWAP1 SWAP3 PUSH2 0x862 JUMP JUMPDEST SWAP4 SWAP1 POP PUSH2 0x9D6 DUP2 DUP4 PUSH2 0x127 JUMP JUMPDEST PUSH1 0x1 PUSH1 0xFF SHL SWAP2 PUSH1 0x1 PUSH1 0x1 PUSH1 0xF8 SHL SUB NOT SWAP2 PUSH2 0x9F4 SWAP2 PUSH2 0x5C1 SWAP2 SWAP1 PUSH2 0x257 JUMP JUMPDEST AND LT PUSH2 0x92C JUMPI SWAP3 POP PUSH2 0xA04 PUSH2 0x28F JUMP JUMPDEST SWAP3 PUSH2 0x92C JUMP JUMPDEST ISZERO PUSH2 0xA11 JUMPI JUMP JUMPDEST PUSH1 0x40 MLOAD PUSH3 0x461BCD PUSH1 0xE5 SHL DUP2 MSTORE PUSH1 0x20 PUSH1 0x4 DUP3 ADD MSTORE PUSH1 0x1F PUSH1 0x24 DUP3 ADD MSTORE PUSH32 0x6B656363616B3235362072657475726E656420696E76616C6964206461746100 PUSH1 0x44 DUP3 ADD MSTORE PUSH1 0x64 SWAP1 REVERT JUMPDEST PUSH1 0x20 DUP2 MLOAD SWAP2 ADD MLOAD SWAP1 PUSH1 0x20 DUP2 LT PUSH2 0x2D9 JUMPI POP SWAP1 JUMP JUMPDEST SWAP1 GAS SWAP2 PUSH1 0x0 SWAP1 PUSH2 0xFFFF SWAP3 DUP3 DUP1 DUP6 DUP2 PUSH2 0xFFEB DUP2 STATICCALL POP DUP1 PUSH2 0xB16 JUMPI POP POP PUSH2 0xA94 PUSH4 0xFFFFFFFF CALLDATASIZE AND PUSH2 0xE35 JUMP JUMPDEST PUSH4 0xFFFFFFFF DUP4 GT PUSH2 0xAE6 JUMPI PUSH2 0xAE3 SWAP3 PUSH2 0xAD1 SWAP3 DUP3 SWAP2 PUSH2 0xAC4 SWAP1 PUSH1 0xC0 SHL PUSH4 0xFFFFFFFF PUSH1 0xC0 SHL AND PUSH1 0x1 PUSH1 0xE0 SHL OR PUSH2 0xE26 JUMP JUMPDEST DUP2 PUSH2 0xFFF6 PUSH2 0x8010 STATICCALL PUSH2 0xB96 JUMP JUMPDEST PUSH2 0xADE PUSH1 0x20 DUP3 MLOAD EQ PUSH2 0xA0A JUMP JUMPDEST PUSH2 0xA56 JUMP JUMPDEST SWAP1 JUMP JUMPDEST PUSH1 0x40 MLOAD PUSH3 0x461BCD PUSH1 0xE5 SHL DUP2 MSTORE PUSH1 0x20 PUSH1 0x4 DUP3 ADD MSTORE PUSH1 0x8 PUSH1 0x24 DUP3 ADD MSTORE PUSH8 0x4F766572666C6F77 PUSH1 0xC0 SHL PUSH1 0x44 DUP3 ADD MSTORE PUSH1 0x64 SWAP1 REVERT JUMPDEST PUSH4 0xFFFFFFFF SWAP2 DUP4 DUP1 DUP7 DUP2 PUSH2 0xFFE9 DUP8 DUP7 AND STATICCALL POP DUP2 ADD DUP1 SWAP2 GT PUSH2 0x352 JUMPI CALLDATASIZE SUB SWAP1 CALLDATASIZE DUP3 GT PUSH2 0x352 JUMPI PUSH2 0xB45 SWAP2 AND PUSH2 0xE35 JUMP JUMPDEST PUSH2 0xA94 JUMP JUMPDEST PUSH1 0x40 MLOAD SWAP1 PUSH2 0xB57 DUP3 PUSH2 0x174 JUMP JUMPDEST PUSH1 0x1 DUP3 MSTORE PUSH1 0x20 CALLDATASIZE DUP2 DUP5 ADD CALLDATACOPY JUMP JUMPDEST SWAP1 PUSH2 0xB6E DUP3 PUSH2 0x274 JUMP JUMPDEST PUSH2 0xB7B PUSH1 0x40 MLOAD SWAP2 DUP3 PUSH2 0x194 JUMP JUMPDEST DUP3 DUP2 MSTORE DUP1 SWAP3 PUSH2 0xB8C PUSH1 0x1F NOT SWAP2 PUSH2 0x274 JUMP JUMPDEST ADD SWAP1 PUSH1 0x20 CALLDATASIZE SWAP2 ADD CALLDATACOPY JUMP JUMPDEST ISZERO PUSH2 0xBB0 JUMPI RETURNDATASIZE SWAP1 PUSH2 0xBA6 DUP3 PUSH2 0xB64 JUMP JUMPDEST SWAP2 PUSH1 0x0 PUSH1 0x20 DUP5 ADD RETURNDATACOPY JUMP JUMPDEST RETURNDATASIZE DUP1 PUSH1 0x0 DUP1 RETURNDATACOPY PUSH1 0x0 REVERT JUMPDEST SWAP1 PUSH1 0x40 MLOAD PUSH2 0xBC7 DUP2 PUSH2 0x174 JUMP JUMPDEST PUSH1 0x15 DUP2 MSTORE PUSH1 0x25 PUSH1 0xFA SHL PUSH1 0x20 DUP3 ADD MSTORE PUSH1 0x60 SWAP3 SWAP1 SWAP3 SHL PUSH12 0xFFFFFFFFFFFFFFFFFFFFFFFF NOT AND PUSH1 0x21 DUP4 ADD MSTORE JUMP JUMPDEST DUP1 MLOAD ISZERO PUSH2 0x260 JUMPI PUSH1 0x20 ADD SWAP1 JUMP JUMPDEST SWAP1 PUSH1 0x80 DUP3 LT ISZERO PUSH2 0xC3E JUMPI PUSH2 0xC10 PUSH2 0xB4A JUMP JUMPDEST SWAP2 DUP1 PUSH2 0xC2C JUMPI POP PUSH1 0x1 PUSH1 0xFF SHL JUMPDEST PUSH1 0x0 BYTE PUSH2 0xC29 DUP4 PUSH2 0xBF1 JUMP JUMPDEST MSTORE8 JUMP JUMPDEST PUSH1 0xF8 SHL PUSH1 0x1 PUSH1 0x1 PUSH1 0xF8 SHL SUB NOT AND PUSH2 0xC1D JUMP JUMPDEST PUSH2 0xC47 DUP3 PUSH2 0xD9E JUMP JUMPDEST SWAP2 PUSH2 0xC54 PUSH1 0x2 DUP5 ADD PUSH2 0xB64 JUMP JUMPDEST SWAP3 PUSH1 0x81 DUP2 ADD PUSH1 0xF8 SHL PUSH1 0x1 PUSH1 0x1 PUSH1 0xF8 SHL SUB NOT AND PUSH1 0x0 BYTE PUSH2 0xC72 DUP6 PUSH2 0xBF1 JUMP JUMPDEST MSTORE8 PUSH1 0x1F SUB PUSH1 0x3 SHL SHL PUSH1 0x21 DUP4 ADD MSTORE JUMP JUMPDEST PUSH1 0x1 PUSH1 0x1 PUSH1 0x40 SHL SUB AND PUSH1 0x1 DUP2 EQ PUSH2 0xD08 JUMPI PUSH1 0x38 DUP2 LT ISZERO PUSH2 0xCC4 JUMPI PUSH2 0xCA3 PUSH2 0xB4A JUMP JUMPDEST SWAP1 PUSH1 0x80 ADD PUSH1 0xF8 SHL PUSH1 0x1 PUSH1 0x1 PUSH1 0xF8 SHL SUB NOT AND PUSH1 0x0 BYTE PUSH2 0xCC0 DUP3 PUSH2 0xBF1 JUMP JUMPDEST MSTORE8 SWAP1 JUMP JUMPDEST PUSH2 0xCCD DUP2 PUSH2 0xD9E JUMP JUMPDEST SWAP1 PUSH2 0xCDA PUSH1 0x2 DUP4 ADD PUSH2 0xB64 JUMP JUMPDEST SWAP2 PUSH1 0xB8 DUP2 ADD PUSH1 0xF8 SHL PUSH1 0x1 PUSH1 0x1 PUSH1 0xF8 SHL SUB NOT AND PUSH1 0x0 BYTE PUSH2 0xCF8 DUP5 PUSH2 0xBF1 JUMP JUMPDEST MSTORE8 PUSH1 0x1F SUB PUSH1 0x3 SHL SHL PUSH1 0x21 DUP3 ADD MSTORE SWAP1 JUMP JUMPDEST PUSH4 0x4E487B71 PUSH1 0xE0 SHL PUSH1 0x0 MSTORE PUSH1 0x1 PUSH1 0x4 MSTORE PUSH1 0x24 PUSH1 0x0 REVERT JUMPDEST PUSH2 0xD26 PUSH2 0xB4A JUMP JUMPDEST SWAP1 PUSH1 0xC0 PUSH2 0xC29 DUP4 PUSH2 0xBF1 JUMP JUMPDEST PUSH1 0x1 PUSH1 0x1 PUSH1 0x40 SHL SUB AND SWAP1 PUSH1 0x38 DUP3 LT ISZERO PUSH2 0xD6A JUMPI PUSH2 0xD4D PUSH2 0xB4A JUMP JUMPDEST SWAP2 PUSH1 0xC0 ADD PUSH1 0xF8 SHL PUSH1 0x1 PUSH1 0x1 PUSH1 0xF8 SHL SUB NOT AND PUSH1 0x0 BYTE PUSH2 0xC29 DUP4 PUSH2 0xBF1 JUMP JUMPDEST PUSH2 0xD73 DUP3 PUSH2 0xD9E JUMP JUMPDEST SWAP2 PUSH2 0xD80 PUSH1 0x2 DUP5 ADD PUSH2 0xB64 JUMP JUMPDEST SWAP3 PUSH1 0xF8 DUP1 DUP3 ADD SWAP1 SHL PUSH1 0x1 PUSH1 0x1 PUSH1 0xF8 SHL SUB NOT AND PUSH1 0x0 BYTE PUSH2 0xC72 DUP6 PUSH2 0xBF1 JUMP JUMPDEST SWAP1 PUSH1 0x0 SWAP2 PUSH16 0xFFFFFFFFFFFFFFFFFFFFFFFFFFFFFFFF DUP2 GT PUSH2 0xE1A JUMPI JUMPDEST DUP1 PUSH1 0x1 PUSH1 0x1 PUSH1 0x40 SHL SUB PUSH1 0xFF SWAP3 GT PUSH2 0xE0C JUMPI JUMPDEST PUSH4 0xFFFFFFFF DUP2 GT PUSH2 0xDFE JUMPI JUMPDEST PUSH2 0xFFFF DUP2 GT PUSH2 0xDF0 JUMPI JUMPDEST GT PUSH2 0xDE9 JUMPI JUMP JUMPDEST SWAP1 PUSH1 0x1 ADD SWAP1 JUMP JUMPDEST PUSH1 0x2 SWAP1 PUSH1 0x10 SHR SWAP4 ADD SWAP3 PUSH2 0xDE2 JUMP JUMPDEST PUSH1 0x4 SWAP1 PUSH1 0x20 SHR SWAP4 ADD SWAP3 PUSH2 0xDD8 JUMP JUMPDEST PUSH1 0x8 SWAP1 PUSH1 0x40 SHR SWAP4 ADD SWAP3 PUSH2 0xDCC JUMP JUMPDEST PUSH1 0x10 SWAP3 POP PUSH1 0x80 SHR PUSH2 0xDBA JUMP JUMPDEST PUSH1 0x0 PUSH2 0xFFFF DUP2 PUSH2 0xFFE7 DUP2 SWAP5 STATICCALL POP JUMP JUMPDEST PUSH1 0x0 PUSH2 0xFFFF DUP2 PUSH2 0xFFE8 PUSH4 0xFFFFFFFF DUP3 SWAP6 AND STATICCALL POP JUMP JUMPDEST DUP1 CALLDATALOAD DUP1 PUSH2 0xE5B JUMPI POP PUSH2 0xAE3 SWAP1 PUSH2 0x11C7 JUMP JUMPDEST PUSH1 0x71 DUP2 SUB PUSH2 0xE6D JUMPI POP PUSH2 0xAE3 SWAP1 PUSH2 0xF24 JUMP JUMPDEST PUSH1 0x2 DUP2 SUB PUSH2 0xE7F JUMPI POP PUSH2 0xAE3 SWAP1 PUSH2 0x141B JUMP JUMPDEST PUSH1 0x1 SUB PUSH2 0xE8F JUMPI PUSH2 0xAE3 SWAP1 PUSH2 0x132E JUMP JUMPDEST PUSH1 0x40 MLOAD PUSH3 0x461BCD PUSH1 0xE5 SHL DUP2 MSTORE PUSH1 0x20 PUSH1 0x4 DUP3 ADD MSTORE PUSH1 0x17 PUSH1 0x24 DUP3 ADD MSTORE PUSH32 0x456E636F64696E6720756E737570706F72746564207478000000000000000000 PUSH1 0x44 DUP3 ADD MSTORE PUSH1 0x64 SWAP1 REVERT JUMPDEST SWAP1 CALLDATALOAD SWAP1 PUSH1 0x1E NOT DUP2 CALLDATASIZE SUB ADD DUP3 SLT ISZERO PUSH2 0x159 JUMPI ADD DUP1 CALLDATALOAD SWAP1 PUSH1 0x1 PUSH1 0x1 PUSH1 0x40 SHL SUB DUP3 GT PUSH2 0x159 JUMPI PUSH1 0x20 ADD SWAP2 DUP2 PUSH1 0x5 SHL CALLDATASIZE SUB DUP4 SGT PUSH2 0x159 JUMPI JUMP JUMPDEST SWAP2 SWAP1 PUSH1 0x1 PUSH1 0x1 PUSH1 0xFB SHL SUB DUP2 GT PUSH2 0x159 JUMPI PUSH1 0x5 SHL DUP1 SWAP3 DUP3 CALLDATACOPY ADD SWAP1 JUMP JUMPDEST PUSH2 0x1127 PUSH2 0x1133 PUSH2 0xF62 SWAP3 PUSH2 0xF3F PUSH2 0x88 PUSH2 0x1C0 DUP4 ADD DUP4 PUSH2 0x127 JUMP JUMPDEST PUSH2 0x105F PUSH2 0xF50 PUSH2 0x200 DUP5 ADD DUP5 PUSH2 0xED4 JUMP JUMPDEST PUSH1 0x40 MLOAD SWAP8 PUSH1 0x20 DUP10 ADD SWAP3 DUP10 SWAP3 DUP5 SWAP2 PUSH2 0xF09 JUMP JUMPDEST SUB SWAP7 PUSH2 0xF76 PUSH1 0x1F NOT SWAP9 DUP10 DUP2 ADD DUP4 MSTORE DUP3 PUSH2 0x194 JUMP JUMPDEST MLOAD SWAP1 KECCAK256 SWAP2 PUSH2 0x1053 PUSH2 0xF8E PUSH2 0x88 PUSH2 0x220 DUP8 ADD DUP8 PUSH2 0x127 JUMP JUMPDEST PUSH1 0x40 MLOAD SWAP5 DUP6 SWAP4 PUSH1 0x20 DUP6 ADD SWAP8 PUSH2 0x120 DUP2 ADD CALLDATALOAD SWAP1 PUSH2 0x100 DUP2 ADD CALLDATALOAD SWAP1 PUSH1 0xE0 DUP2 ADD CALLDATALOAD SWAP1 PUSH1 0xC0 DUP2 ADD CALLDATALOAD SWAP1 DUP13 PUSH1 0xA0 DUP3 ADD CALLDATALOAD SWAP2 PUSH1 0x80 DUP2 ADD CALLDATALOAD SWAP2 PUSH1 0x60 DUP3 ADD CALLDATALOAD SWAP2 PUSH1 0x40 DUP2 ADD CALLDATALOAD SWAP2 PUSH1 0x20 DUP3 ADD CALLDATALOAD SWAP2 CALLDATALOAD SWAP1 SWAP10 SWAP7 SWAP4 SWAP1 SWAP14 SWAP13 SWAP12 SWAP9 SWAP6 SWAP3 PUSH2 0x1A0 SWAP12 SWAP9 SWAP6 SWAP3 PUSH2 0x1C0 DUP13 ADD SWAP16 PUSH32 0x848E1BFA1AC4E3576B728BDA6721B215C70A7799A5B4866282A71BAB954BAAC8 DUP14 MSTORE PUSH1 0x20 DUP14 ADD MSTORE PUSH1 0x40 DUP13 ADD MSTORE PUSH1 0x60 DUP12 ADD MSTORE PUSH1 0x80 DUP11 ADD MSTORE PUSH1 0xA0 DUP10 ADD MSTORE PUSH1 0xC0 DUP9 ADD MSTORE PUSH1 0xE0 DUP8 ADD MSTORE PUSH2 0x100 DUP7 ADD MSTORE PUSH2 0x120 DUP6 ADD MSTORE PUSH2 0x140 DUP5 ADD MSTORE PUSH2 0x160 DUP4 ADD MSTORE PUSH2 0x180 DUP3 ADD MSTORE ADD MSTORE JUMP JUMPDEST SUB DUP7 DUP2 ADD DUP4 MSTORE DUP3 PUSH2 0x194 JUMP JUMPDEST MLOAD SWAP1 KECCAK256 SWAP3 PUSH1 0x40 MLOAD PUSH1 0x20 DUP2 ADD SWAP1 PUSH2 0x10FC DUP2 PUSH2 0x10F0 CHAINID DUP6 SWAP2 SWAP1 PUSH1 0x60 PUSH1 0x80 DUP5 ADD SWAP4 PUSH32 0xC2F8787176B8AC6BF7215B4ADCC1E069BF4AB82D9AB1DF05A57A91D425935B6E DUP2 MSTORE PUSH32 0x19B453CE45AAAAF3A300F5A9EC95869B4F28AB10430B572EE218C3A6A5E07D6F PUSH1 0x20 DUP3 ADD MSTORE PUSH32 0xAD7C5BEF027816A800DA1736444FB58A807EF4C9603B7848673F7E3A68EB14A5 PUSH1 0x40 DUP3 ADD MSTORE ADD MSTORE JUMP JUMPDEST SUB DUP5 DUP2 ADD DUP4 MSTORE DUP3 PUSH2 0x194 JUMP JUMPDEST MLOAD SWAP1 KECCAK256 SWAP4 PUSH1 0x40 MLOAD SWAP4 DUP5 SWAP2 PUSH1 0x20 DUP4 ADD SWAP7 DUP8 SWAP1 SWAP2 PUSH1 0x42 SWAP3 PUSH2 0x1901 PUSH1 0xF0 SHL DUP4 MSTORE PUSH1 0x2 DUP4 ADD MSTORE PUSH1 0x22 DUP3 ADD MSTORE ADD SWAP1 JUMP JUMPDEST SUB SWAP1 DUP2 ADD DUP4 MSTORE DUP3 PUSH2 0x194 JUMP JUMPDEST MLOAD SWAP1 KECCAK256 SWAP1 JUMP JUMPDEST SWAP1 PUSH2 0x23F PUSH1 0x2 PUSH2 0x1153 SWAP4 PUSH1 0x40 MLOAD SWAP5 DUP6 SWAP2 PUSH1 0x20 DUP4 ADD SWAP1 PUSH2 0x1E4 JUMP JUMPDEST PUSH2 0x101 PUSH1 0xF7 SHL DUP2 MSTORE SUB PUSH1 0x1D NOT DUP2 ADD DUP6 MSTORE ADD DUP4 PUSH2 0x194 JUMP JUMPDEST SWAP7 SWAP5 SWAP2 SWAP3 DUP6 SWAP4 SWAP10 SWAP9 SWAP7 SWAP5 SWAP2 SWAP10 PUSH1 0x40 MLOAD SWAP11 DUP12 SWAP10 PUSH1 0x20 DUP12 ADD PUSH2 0x1189 SWAP2 PUSH2 0x1E4 JUMP JUMPDEST PUSH2 0x1192 SWAP2 PUSH2 0x1E4 JUMP JUMPDEST PUSH2 0x119B SWAP2 PUSH2 0x1E4 JUMP JUMPDEST PUSH2 0x11A4 SWAP2 PUSH2 0x1E4 JUMP JUMPDEST PUSH2 0x11AD SWAP2 PUSH2 0x1E4 JUMP JUMPDEST PUSH2 0x11B6 SWAP2 PUSH2 0x1E4 JUMP JUMPDEST SWAP2 DUP3 CALLDATACOPY ADD PUSH1 0x0 DUP2 MSTORE PUSH2 0x3E3 SWAP2 PUSH2 0x1E4 JUMP JUMPDEST PUSH2 0x564 SWAP1 PUSH2 0x11D9 PUSH2 0x100 DUP3 ADD CALLDATALOAD PUSH2 0xBFE JUMP JUMPDEST PUSH2 0x11E9 PUSH2 0x413 PUSH1 0xA0 DUP5 ADD CALLDATALOAD PUSH2 0xBFE JUMP JUMPDEST SWAP2 PUSH2 0x1200 PUSH1 0x40 DUP3 ADD CALLDATALOAD PUSH1 0x1 PUSH1 0x1 PUSH1 0xA0 SHL SUB AND PUSH2 0xBBA JUMP JUMPDEST SWAP3 PUSH2 0x120F PUSH2 0x120 DUP4 ADD CALLDATALOAD PUSH2 0xBFE JUMP JUMPDEST PUSH2 0x1C0 DUP4 ADD SWAP5 PUSH1 0x60 PUSH1 0x1 PUSH1 0x1 PUSH1 0x40 SHL SUB PUSH2 0x1229 DUP9 DUP8 PUSH2 0x127 JUMP JUMPDEST SWAP1 POP AND SWAP1 PUSH1 0x1 DUP3 EQ ISZERO PUSH1 0x0 EQ PUSH2 0x12AE JUMPI POP PUSH2 0x1243 SWAP1 PUSH2 0xC81 JUMP JUMPDEST SWAP3 JUMPDEST PUSH1 0x60 SWAP7 PUSH2 0x140 DUP7 ADD CALLDATALOAD PUSH2 0x1290 JUMPI JUMPDEST PUSH2 0x1288 SWAP1 PUSH2 0x556 PUSH2 0x551 DUP10 MLOAD DUP6 MLOAD ADD DUP7 MLOAD ADD DUP8 MLOAD ADD DUP9 MLOAD ADD PUSH2 0x1275 DUP5 DUP12 PUSH2 0x127 JUMP JUMPDEST SWAP1 POP DUP13 MLOAD SWAP2 ADD ADD PUSH1 0x1 PUSH1 0x1 PUSH1 0x40 SHL SUB AND SWAP1 JUMP JUMPDEST SWAP7 SWAP1 SWAP6 PUSH2 0x116A JUMP JUMPDEST SWAP7 POP PUSH2 0x1288 PUSH2 0x12A6 PUSH2 0x12A1 CHAINID PUSH2 0xBFE JUMP JUMPDEST PUSH2 0x1139 JUMP JUMPDEST SWAP8 SWAP1 POP PUSH2 0x1253 JUMP JUMPDEST SWAP4 SWAP1 POP PUSH2 0x12BB DUP8 DUP7 PUSH2 0x127 JUMP JUMPDEST PUSH1 0x1 PUSH1 0xFF SHL SWAP2 PUSH1 0x1 PUSH1 0x1 PUSH1 0xF8 SHL SUB NOT SWAP2 PUSH2 0x12D9 SWAP2 PUSH2 0x5C1 SWAP2 SWAP1 PUSH2 0x257 JUMP JUMPDEST AND LT PUSH2 0x1245 JUMPI SWAP3 POP PUSH2 0x12E9 PUSH2 0x28F JUMP JUMPDEST SWAP3 PUSH2 0x1245 JUMP JUMPDEST SWAP3 SWAP4 PUSH2 0x23F SWAP5 DUP2 PUSH2 0x1320 PUSH2 0x231 SWAP6 PUSH2 0x22B PUSH2 0x22B SWAP12 SWAP11 SWAP7 PUSH1 0x40 MLOAD SWAP13 DUP14 SWAP11 PUSH1 0x1 PUSH1 0xF8 SHL PUSH1 0x20 DUP14 ADD MSTORE PUSH1 0x21 DUP13 ADD SWAP1 PUSH2 0x1E4 JUMP JUMPDEST SWAP2 DUP3 CALLDATACOPY ADD SWAP1 PUSH1 0x0 DUP3 MSTORE PUSH2 0x1E4 JUMP JUMPDEST PUSH2 0x564 SWAP1 PUSH2 0x133E PUSH2 0x67D CHAINID PUSH2 0xBFE JUMP JUMPDEST PUSH2 0x1C0 DUP3 ADD SWAP2 PUSH1 0x60 PUSH1 0x1 PUSH1 0x1 PUSH1 0x40 SHL SUB PUSH2 0x1358 DUP6 DUP5 PUSH2 0x127 JUMP JUMPDEST SWAP1 POP AND PUSH1 0x1 DUP2 EQ ISZERO PUSH1 0x0 EQ PUSH2 0x13AD JUMPI PUSH2 0x1371 SWAP2 POP PUSH2 0xC81 JUMP JUMPDEST PUSH2 0x13A5 PUSH2 0x137C PUSH2 0xD1E JUMP JUMPDEST SWAP5 PUSH2 0x7D4 PUSH2 0x551 DUP7 MLOAD DUP6 MLOAD ADD PUSH2 0x1392 DUP5 DUP9 PUSH2 0x127 JUMP JUMPDEST SWAP1 POP DUP10 MLOAD SWAP2 ADD ADD PUSH1 0x1 PUSH1 0x1 PUSH1 0x40 SHL SUB AND SWAP1 JUMP JUMPDEST SWAP4 SWAP1 SWAP3 PUSH2 0x12EF JUMP JUMPDEST POP PUSH2 0x13B8 DUP5 DUP4 PUSH2 0x127 JUMP JUMPDEST PUSH1 0x1 PUSH1 0xFF SHL SWAP2 PUSH1 0x1 PUSH1 0x1 PUSH1 0xF8 SHL SUB NOT SWAP2 PUSH2 0x13D6 SWAP2 PUSH2 0x5C1 SWAP2 SWAP1 PUSH2 0x257 JUMP JUMPDEST AND LT PUSH2 0x1371 JUMPI POP PUSH2 0x13E5 PUSH2 0x28F JUMP JUMPDEST PUSH2 0x1371 JUMP JUMPDEST SWAP3 SWAP4 PUSH2 0x23F SWAP5 DUP2 PUSH2 0x1320 PUSH2 0x231 SWAP6 PUSH2 0x22B PUSH2 0x22B SWAP12 SWAP11 SWAP7 PUSH1 0x40 MLOAD SWAP13 DUP14 SWAP11 PUSH1 0x1 PUSH1 0xF9 SHL PUSH1 0x20 DUP14 ADD MSTORE PUSH1 0x21 DUP13 ADD SWAP1 PUSH2 0x1E4 JUMP JUMPDEST PUSH2 0x564 SWAP1 PUSH2 0x142B PUSH2 0x895 CHAINID PUSH2 0xBFE JUMP JUMPDEST PUSH2 0x1C0 DUP3 ADD SWAP2 PUSH1 0x60 PUSH1 0x1 PUSH1 0x1 PUSH1 0x40 SHL SUB PUSH2 0x1445 DUP6 DUP5 PUSH2 0x127 JUMP JUMPDEST SWAP1 POP AND PUSH1 0x1 DUP2 EQ ISZERO PUSH1 0x0 EQ PUSH2 0x1471 JUMPI PUSH2 0x145E SWAP2 POP PUSH2 0xC81 JUMP JUMPDEST PUSH2 0x1469 PUSH2 0x137C PUSH2 0xD1E JUMP JUMPDEST SWAP4 SWAP1 SWAP3 PUSH2 0x13EA JUMP JUMPDEST POP PUSH2 0x147C DUP5 DUP4 PUSH2 0x127 JUMP JUMPDEST PUSH1 0x1 PUSH1 0xFF SHL SWAP2 PUSH1 0x1 PUSH1 0x1 PUSH1 0xF8 SHL SUB NOT SWAP2 PUSH2 0x149A SWAP2 PUSH2 0x5C1 SWAP2 SWAP1 PUSH2 0x257 JUMP JUMPDEST AND LT PUSH2 0x145E JUMPI POP PUSH2 0x14A9 PUSH2 0x28F JUMP JUMPDEST PUSH2 0x145E JUMP INVALID LOG2 PUSH5 0x6970667358 0x22 SLT KECCAK256 0x1E 0xC6 0x22 ADD PC 0x1E SIGNEXTEND 0xC2 0xCE SLT PUSH10 0xF0FB33FCD1A9BB5ABF85 PUSH15 0x4634E565726BA47CF39864736F6C63 NUMBER STOP ADDMOD SLT STOP CALLER "},"methodIdentifiers":{"getTransactionHashes((uint256,uint256,uint256,uint256,uint256,uint256,uint256,uint256,uint256,uint256,uint256[4],bytes,bytes,bytes32[],bytes,bytes))":"ebe4a3d7"}}}}}