{"contracts/MyPaymaster.sol":{"MyPaymaster":{"abi":[{"inputs":[{"internalType":"address","name":"_erc20","type":"address"}],"stateMutability":"nonpayable","type":"constructor"},{"inputs":[],"name":"allowedToken","outputs":[{"internalType":"address","name":"","type":"address"}],"stateMutability":"view","type":"function"},{"inputs":[{"internalType":"bytes","name":"_context","type":"bytes"},{"components":[{"internalType":"uint256","name":"txType","type":"uint256"},{"internalType":"uint256","name":"from","type":"uint256"},{"internalType":"uint256","name":"to","type":"uint256"},{"internalType":"uint256","name":"gasLimit","type":"uint256"},{"internalType":"uint256","name":"gasPerPubdataByteLimit","type":"uint256"},{"internalType":"uint256","name":"maxFeePerGas","type":"uint256"},{"internalType":"uint256","name":"maxPriorityFeePerGas","type":"uint256"},{"internalType":"uint256","name":"paymaster","type":"uint256"},{"internalType":"uint256","name":"nonce","type":"uint256"},{"internalType":"uint256","name":"value","type":"uint256"},{"internalType":"uint256[4]","name":"reserved","type":"uint256[4]"},{"internalType":"bytes","name":"data","type":"bytes"},{"internalType":"bytes","name":"signature","type":"bytes"},{"internalType":"bytes32[]","name":"factoryDeps","type":"bytes32[]"},{"internalType":"bytes","name":"paymasterInput","type":"bytes"},{"internalType":"bytes","name":"reservedDynamic","type":"bytes"}],"internalType":"struct Transaction","name":"_transaction","type":"tuple"},{"internalType":"bytes32","name":"","type":"bytes32"},{"internalType":"bytes32","name":"","type":"bytes32"},{"internalType":"enum ExecutionResult","name":"_txResult","type":"uint8"},{"internalType":"uint256","name":"_maxRefundedGas","type":"uint256"}],"name":"postTransaction","outputs":[],"stateMutability":"payable","type":"function"},{"inputs":[{"internalType":"bytes32","name":"","type":"bytes32"},{"internalType":"bytes32","name":"","type":"bytes32"},{"components":[{"internalType":"uint256","name":"txType","type":"uint256"},{"internalType":"uint256","name":"from","type":"uint256"},{"internalType":"uint256","name":"to","type":"uint256"},{"internalType":"uint256","name":"gasLimit","type":"uint256"},{"internalType":"uint256","name":"gasPerPubdataByteLimit","type":"uint256"},{"internalType":"uint256","name":"maxFeePerGas","type":"uint256"},{"internalType":"uint256","name":"maxPriorityFeePerGas","type":"uint256"},{"internalType":"uint256","name":"paymaster","type":"uint256"},{"internalType":"uint256","name":"nonce","type":"uint256"},{"internalType":"uint256","name":"value","type":"uint256"},{"internalType":"uint256[4]","name":"reserved","type":"uint256[4]"},{"internalType":"bytes","name":"data","type":"bytes"},{"internalType":"bytes","name":"signature","type":"bytes"},{"internalType":"bytes32[]","name":"factoryDeps","type":"bytes32[]"},{"internalType":"bytes","name":"paymasterInput","type":"bytes"},{"internalType":"bytes","name":"reservedDynamic","type":"bytes"}],"internalType":"struct Transaction","name":"_transaction","type":"tuple"}],"name":"validateAndPayForPaymasterTransaction","outputs":[{"internalType":"bytes4","name":"magic","type":"bytes4"},{"internalType":"bytes","name":"context","type":"bytes"}],"stateMutability":"payable","type":"function"},{"stateMutability":"payable","type":"receive"}],"evm":{"bytecode":{"linkReferences":{},"object":"60803461007457601f61083038819003918201601f19168301916001600160401b038311848410176100795780849260209460405283398101031261007457516001600160a01b0381169081900361007457600080546001600160a01b0319169190911790556040516107a090816100908239f35b600080fd5b634e487b7160e01b600052604160045260246000fdfe60406080815260048036101561001f575b5050361561001d57600080fd5b005b600090813560e01c928363038a24bc1461005c575050508063817b17f014610057576385fa292f14610052573880610010565b6103ff565b61039d565b60603660031901126103265760443567ffffffffffffffff811161032257610087903690840161032a565b9261022084016100a48461009b8388610428565b9050101561045b565b6100b76100b18287610428565b906104cd565b6325250c7760e21b916001600160e01b0319916100d3916104f8565b16036102d7576100f06100e96100f89287610428565b80916104db565b81019061057d565b5082546001600160a01b0396919287169061011690881682146105ff565b8451636eb1769f60e11b81526001600160a01b0360208481013590991690811688830190815230818b015290949192908990849081906040010381845afa9384156102d2578661018a8a9261017b60016101c6998f9986916102a5575b501015610656565b606060a082013591013561069a565b89516323b872dd60e01b81526001600160a01b039098169288019283523060208401526040830194909452929594859384929091839160600190565b03925af19081610278575b5061024e5750506101e06106db565b80519383851161024857825162461bcd60e51b81526020818601818152602a918101919091527f4661696c656420746f207472616e7366657246726f6d2066726f6d20757365726040820152691cc9c81858d8dbdd5b9d60b21b606082015281906080010390fd5b84925001fd5b90808080610269946180015af16102636106db565b5061070b565b51806102748161033e565b0390f35b61029790873d891161029e575b61028f818361053a565b8101906106c3565b50866101d1565b503d610285565b6102c591508a3d8c116102cb575b6102bd818361053a565b81019061063b565b38610173565b503d6102b3565b61064a565b825162461bcd60e51b81526020818601818152601a918101919091527f556e737570706f72746564207061796d617374657220666c6f77000000000000604082015281906060010390fd5b8380fd5b8280fd5b90816102609103126103395790565b600080fd5b62e2892f60e21b815260209060408282015260609182519081604084015260005b82811061037c5750506000828201840152601f01601f1916010190565b6080810151848201860152810161035f565b60843590600282101561033957565b60c03660031901126103395767ffffffffffffffff6004358181116103395736602382011215610339578060040135828111610339573691016024011161033957602435908111610339576103f690369060040161032a565b5061001d61038e565b34610339576000366003190112610339576000546040516001600160a01b039091168152602090f35b903590601e1981360301821215610339570180359067ffffffffffffffff82116103395760200191813603831361033957565b1561046257565b60405162461bcd60e51b815260206004820152603a60248201527f546865207374616e64617264207061796d617374657220696e707574206d757360448201527f74206265206174206c656173742034206279746573206c6f6e670000000000006064820152608490fd5b906004116103395790600490565b909291928360041161033957831161033957600401916003190190565b6001600160e01b0319903581811693926004811061051557505050565b60040360031b82901b16169150565b634e487b7160e01b600052604160045260246000fd5b90601f8019910116810190811067ffffffffffffffff82111761055c57604052565b610524565b67ffffffffffffffff811161055c57601f01601f191660200190565b90916060828403126103395781356001600160a01b0381168103610339579260208301359260408101359067ffffffffffffffff8211610339570181601f82011215610339578035906105cf82610561565b926105dd604051948561053a565b8284526020838301011161033957816000926020809301838601378301015290565b1561060657565b60405162461bcd60e51b815260206004820152600d60248201526c24b73b30b634b2103a37b5b2b760991b6044820152606490fd5b90816020910312610339575190565b6040513d6000823e3d90fd5b1561065d57565b60405162461bcd60e51b81526020600482015260156024820152744d696e20616c6c6f77616e636520746f6f206c6f7760581b6044820152606490fd5b818102929181159184041417156106ad57565b634e487b7160e01b600052601160045260246000fd5b90816020910312610339575180151581036103395790565b3d15610706573d906106ec82610561565b916106fa604051938461053a565b82523d6000602084013e565b606090565b1561071257565b60405162461bcd60e51b815260206004820152602a60248201527f4661696c656420746f207472616e736665722066756e647320746f20746865206044820152693137b7ba3637b0b232b960b11b6064820152608490fdfea2646970667358221220b99ef07141bf7f486036e0b62c9970053bfbb59093df49b0de39c9ea0cd9b2a564736f6c63430008120033","opcodes":"PUSH1 0x80 CALLVALUE PUSH2 0x74 JUMPI PUSH1 0x1F PUSH2 0x830 CODESIZE DUP2 SWAP1 SUB SWAP2 DUP3 ADD PUSH1 0x1F NOT AND DUP4 ADD SWAP2 PUSH1 0x1 PUSH1 0x1 PUSH1 0x40 SHL SUB DUP4 GT DUP5 DUP5 LT OR PUSH2 0x79 JUMPI DUP1 DUP5 SWAP3 PUSH1 0x20 SWAP5 PUSH1 0x40 MSTORE DUP4 CODECOPY DUP2 ADD SUB SLT PUSH2 0x74 JUMPI MLOAD PUSH1 0x1 PUSH1 0x1 PUSH1 0xA0 SHL SUB DUP2 AND SWAP1 DUP2 SWAP1 SUB PUSH2 0x74 JUMPI PUSH1 0x0 DUP1 SLOAD PUSH1 0x1 PUSH1 0x1 PUSH1 0xA0 SHL SUB NOT AND SWAP2 SWAP1 SWAP2 OR SWAP1 SSTORE PUSH1 0x40 MLOAD PUSH2 0x7A0 SWAP1 DUP2 PUSH2 0x90 DUP3 CODECOPY RETURN JUMPDEST PUSH1 0x0 DUP1 REVERT JUMPDEST PUSH4 0x4E487B71 PUSH1 0xE0 SHL PUSH1 0x0 MSTORE PUSH1 0x41 PUSH1 0x4 MSTORE PUSH1 0x24 PUSH1 0x0 REVERT INVALID PUSH1 0x40 PUSH1 0x80 DUP2 MSTORE PUSH1 0x4 DUP1 CALLDATASIZE LT ISZERO PUSH2 0x1F JUMPI JUMPDEST POP POP CALLDATASIZE ISZERO PUSH2 0x1D JUMPI PUSH1 0x0 DUP1 REVERT JUMPDEST STOP JUMPDEST PUSH1 0x0 SWAP1 DUP2 CALLDATALOAD PUSH1 0xE0 SHR SWAP3 DUP4 PUSH4 0x38A24BC EQ PUSH2 0x5C JUMPI POP POP POP DUP1 PUSH4 0x817B17F0 EQ PUSH2 0x57 JUMPI PUSH4 0x85FA292F EQ PUSH2 0x52 JUMPI CODESIZE DUP1 PUSH2 0x10 JUMP JUMPDEST PUSH2 0x3FF JUMP JUMPDEST PUSH2 0x39D JUMP JUMPDEST PUSH1 0x60 CALLDATASIZE PUSH1 0x3 NOT ADD SLT PUSH2 0x326 JUMPI PUSH1 0x44 CALLDATALOAD PUSH8 0xFFFFFFFFFFFFFFFF DUP2 GT PUSH2 0x322 JUMPI PUSH2 0x87 SWAP1 CALLDATASIZE SWAP1 DUP5 ADD PUSH2 0x32A JUMP JUMPDEST SWAP3 PUSH2 0x220 DUP5 ADD PUSH2 0xA4 DUP5 PUSH2 0x9B DUP4 DUP9 PUSH2 0x428 JUMP JUMPDEST SWAP1 POP LT ISZERO PUSH2 0x45B JUMP JUMPDEST PUSH2 0xB7 PUSH2 0xB1 DUP3 DUP8 PUSH2 0x428 JUMP JUMPDEST SWAP1 PUSH2 0x4CD JUMP JUMPDEST PUSH4 0x25250C77 PUSH1 0xE2 SHL SWAP2 PUSH1 0x1 PUSH1 0x1 PUSH1 0xE0 SHL SUB NOT SWAP2 PUSH2 0xD3 SWAP2 PUSH2 0x4F8 JUMP JUMPDEST AND SUB PUSH2 0x2D7 JUMPI PUSH2 0xF0 PUSH2 0xE9 PUSH2 0xF8 SWAP3 DUP8 PUSH2 0x428 JUMP JUMPDEST DUP1 SWAP2 PUSH2 0x4DB JUMP JUMPDEST DUP2 ADD SWAP1 PUSH2 0x57D JUMP JUMPDEST POP DUP3 SLOAD PUSH1 0x1 PUSH1 0x1 PUSH1 0xA0 SHL SUB SWAP7 SWAP2 SWAP3 DUP8 AND SWAP1 PUSH2 0x116 SWAP1 DUP9 AND DUP3 EQ PUSH2 0x5FF JUMP JUMPDEST DUP5 MLOAD PUSH4 0x6EB1769F PUSH1 0xE1 SHL DUP2 MSTORE PUSH1 0x1 PUSH1 0x1 PUSH1 0xA0 SHL SUB PUSH1 0x20 DUP5 DUP2 ADD CALLDATALOAD SWAP1 SWAP10 AND SWAP1 DUP2 AND DUP9 DUP4 ADD SWAP1 DUP2 MSTORE ADDRESS DUP2 DUP12 ADD MSTORE SWAP1 SWAP5 SWAP2 SWAP3 SWAP1 DUP10 SWAP1 DUP5 SWAP1 DUP2 SWAP1 PUSH1 0x40 ADD SUB DUP2 DUP5 GAS STATICCALL SWAP4 DUP5 ISZERO PUSH2 0x2D2 JUMPI DUP7 PUSH2 0x18A DUP11 SWAP3 PUSH2 0x17B PUSH1 0x1 PUSH2 0x1C6 SWAP10 DUP16 SWAP10 DUP7 SWAP2 PUSH2 0x2A5 JUMPI JUMPDEST POP LT ISZERO PUSH2 0x656 JUMP JUMPDEST PUSH1 0x60 PUSH1 0xA0 DUP3 ADD CALLDATALOAD SWAP2 ADD CALLDATALOAD PUSH2 0x69A JUMP JUMPDEST DUP10 MLOAD PUSH4 0x23B872DD PUSH1 0xE0 SHL DUP2 MSTORE PUSH1 0x1 PUSH1 0x1 PUSH1 0xA0 SHL SUB SWAP1 SWAP9 AND SWAP3 DUP9 ADD SWAP3 DUP4 MSTORE ADDRESS PUSH1 0x20 DUP5 ADD MSTORE PUSH1 0x40 DUP4 ADD SWAP5 SWAP1 SWAP5 MSTORE SWAP3 SWAP6 SWAP5 DUP6 SWAP4 DUP5 SWAP3 SWAP1 SWAP2 DUP4 SWAP2 PUSH1 0x60 ADD SWAP1 JUMP JUMPDEST SUB SWAP3 GAS CALL SWAP1 DUP2 PUSH2 0x278 JUMPI JUMPDEST POP PUSH2 0x24E JUMPI POP POP PUSH2 0x1E0 PUSH2 0x6DB JUMP JUMPDEST DUP1 MLOAD SWAP4 DUP4 DUP6 GT PUSH2 0x248 JUMPI DUP3 MLOAD PUSH3 0x461BCD PUSH1 0xE5 SHL DUP2 MSTORE PUSH1 0x20 DUP2 DUP7 ADD DUP2 DUP2 MSTORE PUSH1 0x2A SWAP2 DUP2 ADD SWAP2 SWAP1 SWAP2 MSTORE PUSH32 0x4661696C656420746F207472616E7366657246726F6D2066726F6D2075736572 PUSH1 0x40 DUP3 ADD MSTORE PUSH10 0x1CC9C81858D8DBDD5B9D PUSH1 0xB2 SHL PUSH1 0x60 DUP3 ADD MSTORE DUP2 SWAP1 PUSH1 0x80 ADD SUB SWAP1 REVERT JUMPDEST DUP5 SWAP3 POP ADD REVERT JUMPDEST SWAP1 DUP1 DUP1 DUP1 PUSH2 0x269 SWAP5 PUSH2 0x8001 GAS CALL PUSH2 0x263 PUSH2 0x6DB JUMP JUMPDEST POP PUSH2 0x70B JUMP JUMPDEST MLOAD DUP1 PUSH2 0x274 DUP2 PUSH2 0x33E JUMP JUMPDEST SUB SWAP1 RETURN JUMPDEST PUSH2 0x297 SWAP1 DUP8 RETURNDATASIZE DUP10 GT PUSH2 0x29E JUMPI JUMPDEST PUSH2 0x28F DUP2 DUP4 PUSH2 0x53A JUMP JUMPDEST DUP2 ADD SWAP1 PUSH2 0x6C3 JUMP JUMPDEST POP DUP7 PUSH2 0x1D1 JUMP JUMPDEST POP RETURNDATASIZE PUSH2 0x285 JUMP JUMPDEST PUSH2 0x2C5 SWAP2 POP DUP11 RETURNDATASIZE DUP13 GT PUSH2 0x2CB JUMPI JUMPDEST PUSH2 0x2BD DUP2 DUP4 PUSH2 0x53A JUMP JUMPDEST DUP2 ADD SWAP1 PUSH2 0x63B JUMP JUMPDEST CODESIZE PUSH2 0x173 JUMP JUMPDEST POP RETURNDATASIZE PUSH2 0x2B3 JUMP JUMPDEST PUSH2 0x64A JUMP JUMPDEST DUP3 MLOAD PUSH3 0x461BCD PUSH1 0xE5 SHL DUP2 MSTORE PUSH1 0x20 DUP2 DUP7 ADD DUP2 DUP2 MSTORE PUSH1 0x1A SWAP2 DUP2 ADD SWAP2 SWAP1 SWAP2 MSTORE PUSH32 0x556E737570706F72746564207061796D617374657220666C6F77000000000000 PUSH1 0x40 DUP3 ADD MSTORE DUP2 SWAP1 PUSH1 0x60 ADD SUB SWAP1 REVERT JUMPDEST DUP4 DUP1 REVERT JUMPDEST DUP3 DUP1 REVERT JUMPDEST SWAP1 DUP2 PUSH2 0x260 SWAP2 SUB SLT PUSH2 0x339 JUMPI SWAP1 JUMP JUMPDEST PUSH1 0x0 DUP1 REVERT JUMPDEST PUSH3 0xE2892F PUSH1 0xE2 SHL DUP2 MSTORE PUSH1 0x20 SWAP1 PUSH1 0x40 DUP3 DUP3 ADD MSTORE PUSH1 0x60 SWAP2 DUP3 MLOAD SWAP1 DUP2 PUSH1 0x40 DUP5 ADD MSTORE PUSH1 0x0 JUMPDEST DUP3 DUP2 LT PUSH2 0x37C JUMPI POP POP PUSH1 0x0 DUP3 DUP3 ADD DUP5 ADD MSTORE PUSH1 0x1F ADD PUSH1 0x1F NOT AND ADD ADD SWAP1 JUMP JUMPDEST PUSH1 0x80 DUP2 ADD MLOAD DUP5 DUP3 ADD DUP7 ADD MSTORE DUP2 ADD PUSH2 0x35F JUMP JUMPDEST PUSH1 0x84 CALLDATALOAD SWAP1 PUSH1 0x2 DUP3 LT ISZERO PUSH2 0x339 JUMPI JUMP JUMPDEST PUSH1 0xC0 CALLDATASIZE PUSH1 0x3 NOT ADD SLT PUSH2 0x339 JUMPI PUSH8 0xFFFFFFFFFFFFFFFF PUSH1 0x4 CALLDATALOAD DUP2 DUP2 GT PUSH2 0x339 JUMPI CALLDATASIZE PUSH1 0x23 DUP3 ADD SLT ISZERO PUSH2 0x339 JUMPI DUP1 PUSH1 0x4 ADD CALLDATALOAD DUP3 DUP2 GT PUSH2 0x339 JUMPI CALLDATASIZE SWAP2 ADD PUSH1 0x24 ADD GT PUSH2 0x339 JUMPI PUSH1 0x24 CALLDATALOAD SWAP1 DUP2 GT PUSH2 0x339 JUMPI PUSH2 0x3F6 SWAP1 CALLDATASIZE SWAP1 PUSH1 0x4 ADD PUSH2 0x32A JUMP JUMPDEST POP PUSH2 0x1D PUSH2 0x38E JUMP JUMPDEST CALLVALUE PUSH2 0x339 JUMPI PUSH1 0x0 CALLDATASIZE PUSH1 0x3 NOT ADD SLT PUSH2 0x339 JUMPI PUSH1 0x0 SLOAD PUSH1 0x40 MLOAD PUSH1 0x1 PUSH1 0x1 PUSH1 0xA0 SHL SUB SWAP1 SWAP2 AND DUP2 MSTORE PUSH1 0x20 SWAP1 RETURN JUMPDEST SWAP1 CALLDATALOAD SWAP1 PUSH1 0x1E NOT DUP2 CALLDATASIZE SUB ADD DUP3 SLT ISZERO PUSH2 0x339 JUMPI ADD DUP1 CALLDATALOAD SWAP1 PUSH8 0xFFFFFFFFFFFFFFFF DUP3 GT PUSH2 0x339 JUMPI PUSH1 0x20 ADD SWAP2 DUP2 CALLDATASIZE SUB DUP4 SGT PUSH2 0x339 JUMPI JUMP JUMPDEST ISZERO PUSH2 0x462 JUMPI JUMP JUMPDEST PUSH1 0x40 MLOAD PUSH3 0x461BCD PUSH1 0xE5 SHL DUP2 MSTORE PUSH1 0x20 PUSH1 0x4 DUP3 ADD MSTORE PUSH1 0x3A PUSH1 0x24 DUP3 ADD MSTORE PUSH32 0x546865207374616E64617264207061796D617374657220696E707574206D7573 PUSH1 0x44 DUP3 ADD MSTORE PUSH32 0x74206265206174206C656173742034206279746573206C6F6E67000000000000 PUSH1 0x64 DUP3 ADD MSTORE PUSH1 0x84 SWAP1 REVERT JUMPDEST SWAP1 PUSH1 0x4 GT PUSH2 0x339 JUMPI SWAP1 PUSH1 0x4 SWAP1 JUMP JUMPDEST SWAP1 SWAP3 SWAP2 SWAP3 DUP4 PUSH1 0x4 GT PUSH2 0x339 JUMPI DUP4 GT PUSH2 0x339 JUMPI PUSH1 0x4 ADD SWAP2 PUSH1 0x3 NOT ADD SWAP1 JUMP JUMPDEST PUSH1 0x1 PUSH1 0x1 PUSH1 0xE0 SHL SUB NOT SWAP1 CALLDATALOAD DUP2 DUP2 AND SWAP4 SWAP3 PUSH1 0x4 DUP2 LT PUSH2 0x515 JUMPI POP POP POP JUMP JUMPDEST PUSH1 0x4 SUB PUSH1 0x3 SHL DUP3 SWAP1 SHL AND AND SWAP2 POP JUMP JUMPDEST PUSH4 0x4E487B71 PUSH1 0xE0 SHL PUSH1 0x0 MSTORE PUSH1 0x41 PUSH1 0x4 MSTORE PUSH1 0x24 PUSH1 0x0 REVERT JUMPDEST SWAP1 PUSH1 0x1F DUP1 NOT SWAP2 ADD AND DUP2 ADD SWAP1 DUP2 LT PUSH8 0xFFFFFFFFFFFFFFFF DUP3 GT OR PUSH2 0x55C JUMPI PUSH1 0x40 MSTORE JUMP JUMPDEST PUSH2 0x524 JUMP JUMPDEST PUSH8 0xFFFFFFFFFFFFFFFF DUP2 GT PUSH2 0x55C JUMPI PUSH1 0x1F ADD PUSH1 0x1F NOT AND PUSH1 0x20 ADD SWAP1 JUMP JUMPDEST SWAP1 SWAP2 PUSH1 0x60 DUP3 DUP5 SUB SLT PUSH2 0x339 JUMPI DUP2 CALLDATALOAD PUSH1 0x1 PUSH1 0x1 PUSH1 0xA0 SHL SUB DUP2 AND DUP2 SUB PUSH2 0x339 JUMPI SWAP3 PUSH1 0x20 DUP4 ADD CALLDATALOAD SWAP3 PUSH1 0x40 DUP2 ADD CALLDATALOAD SWAP1 PUSH8 0xFFFFFFFFFFFFFFFF DUP3 GT PUSH2 0x339 JUMPI ADD DUP2 PUSH1 0x1F DUP3 ADD SLT ISZERO PUSH2 0x339 JUMPI DUP1 CALLDATALOAD SWAP1 PUSH2 0x5CF DUP3 PUSH2 0x561 JUMP JUMPDEST SWAP3 PUSH2 0x5DD PUSH1 0x40 MLOAD SWAP5 DUP6 PUSH2 0x53A JUMP JUMPDEST DUP3 DUP5 MSTORE PUSH1 0x20 DUP4 DUP4 ADD ADD GT PUSH2 0x339 JUMPI DUP2 PUSH1 0x0 SWAP3 PUSH1 0x20 DUP1 SWAP4 ADD DUP4 DUP7 ADD CALLDATACOPY DUP4 ADD ADD MSTORE SWAP1 JUMP JUMPDEST ISZERO PUSH2 0x606 JUMPI JUMP JUMPDEST PUSH1 0x40 MLOAD PUSH3 0x461BCD PUSH1 0xE5 SHL DUP2 MSTORE PUSH1 0x20 PUSH1 0x4 DUP3 ADD MSTORE PUSH1 0xD PUSH1 0x24 DUP3 ADD MSTORE PUSH13 0x24B73B30B634B2103A37B5B2B7 PUSH1 0x99 SHL PUSH1 0x44 DUP3 ADD MSTORE PUSH1 0x64 SWAP1 REVERT JUMPDEST SWAP1 DUP2 PUSH1 0x20 SWAP2 SUB SLT PUSH2 0x339 JUMPI MLOAD SWAP1 JUMP JUMPDEST PUSH1 0x40 MLOAD RETURNDATASIZE PUSH1 0x0 DUP3 RETURNDATACOPY RETURNDATASIZE SWAP1 REVERT JUMPDEST ISZERO PUSH2 0x65D JUMPI JUMP JUMPDEST PUSH1 0x40 MLOAD PUSH3 0x461BCD PUSH1 0xE5 SHL DUP2 MSTORE PUSH1 0x20 PUSH1 0x4 DUP3 ADD MSTORE PUSH1 0x15 PUSH1 0x24 DUP3 ADD MSTORE PUSH21 0x4D696E20616C6C6F77616E636520746F6F206C6F77 PUSH1 0x58 SHL PUSH1 0x44 DUP3 ADD MSTORE PUSH1 0x64 SWAP1 REVERT JUMPDEST DUP2 DUP2 MUL SWAP3 SWAP2 DUP2 ISZERO SWAP2 DUP5 DIV EQ OR ISZERO PUSH2 0x6AD JUMPI JUMP JUMPDEST PUSH4 0x4E487B71 PUSH1 0xE0 SHL PUSH1 0x0 MSTORE PUSH1 0x11 PUSH1 0x4 MSTORE PUSH1 0x24 PUSH1 0x0 REVERT JUMPDEST SWAP1 DUP2 PUSH1 0x20 SWAP2 SUB SLT PUSH2 0x339 JUMPI MLOAD DUP1 ISZERO ISZERO DUP2 SUB PUSH2 0x339 JUMPI SWAP1 JUMP JUMPDEST RETURNDATASIZE ISZERO PUSH2 0x706 JUMPI RETURNDATASIZE SWAP1 PUSH2 0x6EC DUP3 PUSH2 0x561 JUMP JUMPDEST SWAP2 PUSH2 0x6FA PUSH1 0x40 MLOAD SWAP4 DUP5 PUSH2 0x53A JUMP JUMPDEST DUP3 MSTORE RETURNDATASIZE PUSH1 0x0 PUSH1 0x20 DUP5 ADD RETURNDATACOPY JUMP JUMPDEST PUSH1 0x60 SWAP1 JUMP JUMPDEST ISZERO PUSH2 0x712 JUMPI JUMP JUMPDEST PUSH1 0x40 MLOAD PUSH3 0x461BCD PUSH1 0xE5 SHL DUP2 MSTORE PUSH1 0x20 PUSH1 0x4 DUP3 ADD MSTORE PUSH1 0x2A PUSH1 0x24 DUP3 ADD MSTORE PUSH32 0x4661696C656420746F207472616E736665722066756E647320746F2074686520 PUSH1 0x44 DUP3 ADD MSTORE PUSH10 0x3137B7BA3637B0B232B9 PUSH1 0xB1 SHL PUSH1 0x64 DUP3 ADD MSTORE PUSH1 0x84 SWAP1 REVERT INVALID LOG2 PUSH5 0x6970667358 0x22 SLT KECCAK256 0xB9 SWAP15 CREATE PUSH18 0x41BF7F486036E0B62C9970053BFBB59093DF 0x49 0xB0 0xDE CODECOPY 0xC9 0xEA 0xC 0xD9 0xB2 0xA5 PUSH5 0x736F6C6343 STOP ADDMOD SLT STOP CALLER "},"methodIdentifiers":{"allowedToken()":"85fa292f","postTransaction(bytes,(uint256,uint256,uint256,uint256,uint256,uint256,uint256,uint256,uint256,uint256,uint256[4],bytes,bytes,bytes32[],bytes,bytes),bytes32,bytes32,uint8,uint256)":"817b17f0","validateAndPayForPaymasterTransaction(bytes32,bytes32,(uint256,uint256,uint256,uint256,uint256,uint256,uint256,uint256,uint256,uint256,uint256[4],bytes,bytes,bytes32[],bytes,bytes))":"038a24bc"}}}}}