{"contracts/MultiTransfer.sol":{"TokenF2L2":{"abi":[{"inputs":[{"internalType":"address","name":"_owner","type":"address"}],"stateMutability":"nonpayable","type":"constructor"},{"anonymous":false,"inputs":[{"indexed":true,"internalType":"address","name":"_from","type":"address"},{"indexed":false,"internalType":"uint256","name":"_amount","type":"uint256"},{"indexed":false,"internalType":"uint256","name":"_timestamp","type":"uint256"}],"name":"Paid","type":"event"},{"inputs":[],"name":"getBalance","outputs":[{"internalType":"uint256","name":"","type":"uint256"}],"stateMutability":"view","type":"function"},{"inputs":[{"internalType":"address[]","name":"_recivers","type":"address[]"},{"internalType":"address[]","name":"_tokenAddresses","type":"address[]"},{"internalType":"uint256[]","name":"_tokenAmounts","type":"uint256[]"}],"name":"multiTransfer","outputs":[],"stateMutability":"payable","type":"function"},{"inputs":[],"name":"owner","outputs":[{"internalType":"address","name":"","type":"address"}],"stateMutability":"view","type":"function"},{"inputs":[],"name":"pay","outputs":[],"stateMutability":"payable","type":"function"},{"stateMutability":"payable","type":"receive"}],"evm":{"bytecode":{"linkReferences":{},"object":"60803461007457601f61082a38819003918201601f19168301916001600160401b038311848410176100795780849260209460405283398101031261007457516001600160a01b0381169081900361007457600080546001600160a01b03191691909117905560405161079a90816100908239f35b600080fd5b634e487b7160e01b600052604160045260246000fdfe60806040526004361015610023575b361561001957600080fd5b610021610275565b005b6000803560e01c90816312065fe01461007a5781631b9265b814610061575080638da5cb5b1461005c5763cd72250d0361000e576101bd565b610094565b8060031936011261007757610074610275565b80f35b80fd5b346100775780600319360112610077574760805260206080f35b346100bd5760003660031901126100bd576000546040516001600160a01b039091168152602090f35b600080fd5b634e487b7160e01b600052604160045260246000fd5b6080810190811067ffffffffffffffff8211176100f457604052565b6100c2565b6040810190811067ffffffffffffffff8211176100f457604052565b90601f8019910116810190811067ffffffffffffffff8211176100f457604052565b67ffffffffffffffff81116100f45760051b60200190565b81601f820112156100bd5780359161016683610137565b926101746040519485610115565b808452602092838086019260051b8201019283116100bd578301905b82821061019e575050505090565b81356001600160a01b03811681036100bd578152908301908301610190565b60603660031901126100bd5767ffffffffffffffff6004358181116100bd576101ea90369060040161014f565b906024358181116100bd5761020390369060040161014f565b6044359182116100bd57366023830112156100bd5781600401359261022784610137565b926102356040519485610115565b84845260209460248686019160051b830101913683116100bd57602401905b828210610266576100218686866102a9565b81358152908601908601610254565b6040513481524260208201527fdf9a51129930649214df58f542322c245372c6f2fa6fc3c9b40d927c597cd23060403392a2565b60005491939290916001600160a01b0316330361037d576102cd84518251146103ba565b6102da84518351146103ba565b60005b845181101561037657806103136103076102fa610340948961042a565b516001600160a01b031690565b6001600160a01b031690565b6103455761033b61032a6103076102fa848861042a565b610334838661042a565b519061060e565b610405565b6102dd565b61033b6103586103076102fa848a61042a565b6103656102fa848861042a565b61036f848761042a565b5191610454565b5050509050565b60405162461bcd60e51b81526020600482015260156024820152742cb7ba9030b932903737ba103a34329037bbb732b960591b6044820152606490fd5b156103c157565b606460405162461bcd60e51b815260206004820152602060248201527f417272617973206d7573742068617665207468652073616d65206c656e6774686044820152fd5b60001981146104145760010190565b634e487b7160e01b600052601160045260246000fd5b805182101561043e5760209160051b010190565b634e487b7160e01b600052603260045260246000fd5b60405163a9059cbb60e01b60208083019182526001600160a01b03948516602484015260448084019690965294825290929091610490846100d8565b16906040519261049f846100f9565b8484527f5361666545524332303a206c6f772d6c6576656c2063616c6c206661696c656485850152823b15610512576104eb939260009283809351925af16104e56105ce565b906106e9565b805190816104f857505050565b826105109361050b938301019101610557565b61056f565b565b60405162461bcd60e51b815260048101869052601d60248201527f416464726573733a2063616c6c20746f206e6f6e2d636f6e74726163740000006044820152606490fd5b908160209103126100bd575180151581036100bd5790565b1561057657565b60405162461bcd60e51b815260206004820152602a60248201527f5361666545524332303a204552433230206f7065726174696f6e20646964206e6044820152691bdd081cdd58d8d9595960b21b6064820152608490fd5b3d15610609573d9067ffffffffffffffff82116100f457604051916105fd601f8201601f191660200184610115565b82523d6000602084013e565b606090565b8147106106a4576000918291829182916001600160a01b03165af16106316105ce565b501561063957565b60405162461bcd60e51b815260206004820152603a60248201527f416464726573733a20756e61626c6520746f2073656e642076616c75652c207260448201527f6563697069656e74206d617920686176652072657665727465640000000000006064820152608490fd5b60405162461bcd60e51b815260206004820152601d60248201527f416464726573733a20696e73756666696369656e742062616c616e63650000006044820152606490fd5b909190156106f5575090565b8151156107055750805190602001fd5b6040519062461bcd60e51b82528160208060048301528251908160248401526000935b82851061074b575050604492506000838284010152601f80199101168101030190fd5b848101820151868601604401529381019385935061072856fea264697066735822122060555dc8e10dce7d7d6e3e1a4e2f44d4de56d3ebdece296c24ffaa6553a61a1564736f6c63430008120033","opcodes":"PUSH1 0x80 CALLVALUE PUSH2 0x74 JUMPI PUSH1 0x1F PUSH2 0x82A CODESIZE DUP2 SWAP1 SUB SWAP2 DUP3 ADD PUSH1 0x1F NOT AND DUP4 ADD SWAP2 PUSH1 0x1 PUSH1 0x1 PUSH1 0x40 SHL SUB DUP4 GT DUP5 DUP5 LT OR PUSH2 0x79 JUMPI DUP1 DUP5 SWAP3 PUSH1 0x20 SWAP5 PUSH1 0x40 MSTORE DUP4 CODECOPY DUP2 ADD SUB SLT PUSH2 0x74 JUMPI MLOAD PUSH1 0x1 PUSH1 0x1 PUSH1 0xA0 SHL SUB DUP2 AND SWAP1 DUP2 SWAP1 SUB PUSH2 0x74 JUMPI PUSH1 0x0 DUP1 SLOAD PUSH1 0x1 PUSH1 0x1 PUSH1 0xA0 SHL SUB NOT AND SWAP2 SWAP1 SWAP2 OR SWAP1 SSTORE PUSH1 0x40 MLOAD PUSH2 0x79A SWAP1 DUP2 PUSH2 0x90 DUP3 CODECOPY RETURN JUMPDEST PUSH1 0x0 DUP1 REVERT JUMPDEST PUSH4 0x4E487B71 PUSH1 0xE0 SHL PUSH1 0x0 MSTORE PUSH1 0x41 PUSH1 0x4 MSTORE PUSH1 0x24 PUSH1 0x0 REVERT INVALID PUSH1 0x80 PUSH1 0x40 MSTORE PUSH1 0x4 CALLDATASIZE LT ISZERO PUSH2 0x23 JUMPI JUMPDEST CALLDATASIZE ISZERO PUSH2 0x19 JUMPI PUSH1 0x0 DUP1 REVERT JUMPDEST PUSH2 0x21 PUSH2 0x275 JUMP JUMPDEST STOP JUMPDEST PUSH1 0x0 DUP1 CALLDATALOAD PUSH1 0xE0 SHR SWAP1 DUP2 PUSH4 0x12065FE0 EQ PUSH2 0x7A JUMPI DUP2 PUSH4 0x1B9265B8 EQ PUSH2 0x61 JUMPI POP DUP1 PUSH4 0x8DA5CB5B EQ PUSH2 0x5C JUMPI PUSH4 0xCD72250D SUB PUSH2 0xE JUMPI PUSH2 0x1BD JUMP JUMPDEST PUSH2 0x94 JUMP JUMPDEST DUP1 PUSH1 0x3 NOT CALLDATASIZE ADD SLT PUSH2 0x77 JUMPI PUSH2 0x74 PUSH2 0x275 JUMP JUMPDEST DUP1 RETURN JUMPDEST DUP1 REVERT JUMPDEST CALLVALUE PUSH2 0x77 JUMPI DUP1 PUSH1 0x3 NOT CALLDATASIZE ADD SLT PUSH2 0x77 JUMPI SELFBALANCE PUSH1 0x80 MSTORE PUSH1 0x20 PUSH1 0x80 RETURN JUMPDEST CALLVALUE PUSH2 0xBD JUMPI PUSH1 0x0 CALLDATASIZE PUSH1 0x3 NOT ADD SLT PUSH2 0xBD JUMPI PUSH1 0x0 SLOAD PUSH1 0x40 MLOAD PUSH1 0x1 PUSH1 0x1 PUSH1 0xA0 SHL SUB SWAP1 SWAP2 AND DUP2 MSTORE PUSH1 0x20 SWAP1 RETURN JUMPDEST PUSH1 0x0 DUP1 REVERT JUMPDEST PUSH4 0x4E487B71 PUSH1 0xE0 SHL PUSH1 0x0 MSTORE PUSH1 0x41 PUSH1 0x4 MSTORE PUSH1 0x24 PUSH1 0x0 REVERT JUMPDEST PUSH1 0x80 DUP2 ADD SWAP1 DUP2 LT PUSH8 0xFFFFFFFFFFFFFFFF DUP3 GT OR PUSH2 0xF4 JUMPI PUSH1 0x40 MSTORE JUMP JUMPDEST PUSH2 0xC2 JUMP JUMPDEST PUSH1 0x40 DUP2 ADD SWAP1 DUP2 LT PUSH8 0xFFFFFFFFFFFFFFFF DUP3 GT OR PUSH2 0xF4 JUMPI PUSH1 0x40 MSTORE JUMP JUMPDEST SWAP1 PUSH1 0x1F DUP1 NOT SWAP2 ADD AND DUP2 ADD SWAP1 DUP2 LT PUSH8 0xFFFFFFFFFFFFFFFF DUP3 GT OR PUSH2 0xF4 JUMPI PUSH1 0x40 MSTORE JUMP JUMPDEST PUSH8 0xFFFFFFFFFFFFFFFF DUP2 GT PUSH2 0xF4 JUMPI PUSH1 0x5 SHL PUSH1 0x20 ADD SWAP1 JUMP JUMPDEST DUP2 PUSH1 0x1F DUP3 ADD SLT ISZERO PUSH2 0xBD JUMPI DUP1 CALLDATALOAD SWAP2 PUSH2 0x166 DUP4 PUSH2 0x137 JUMP JUMPDEST SWAP3 PUSH2 0x174 PUSH1 0x40 MLOAD SWAP5 DUP6 PUSH2 0x115 JUMP JUMPDEST DUP1 DUP5 MSTORE PUSH1 0x20 SWAP3 DUP4 DUP1 DUP7 ADD SWAP3 PUSH1 0x5 SHL DUP3 ADD ADD SWAP3 DUP4 GT PUSH2 0xBD JUMPI DUP4 ADD SWAP1 JUMPDEST DUP3 DUP3 LT PUSH2 0x19E JUMPI POP POP POP POP SWAP1 JUMP JUMPDEST DUP2 CALLDATALOAD PUSH1 0x1 PUSH1 0x1 PUSH1 0xA0 SHL SUB DUP2 AND DUP2 SUB PUSH2 0xBD JUMPI DUP2 MSTORE SWAP1 DUP4 ADD SWAP1 DUP4 ADD PUSH2 0x190 JUMP JUMPDEST PUSH1 0x60 CALLDATASIZE PUSH1 0x3 NOT ADD SLT PUSH2 0xBD JUMPI PUSH8 0xFFFFFFFFFFFFFFFF PUSH1 0x4 CALLDATALOAD DUP2 DUP2 GT PUSH2 0xBD JUMPI PUSH2 0x1EA SWAP1 CALLDATASIZE SWAP1 PUSH1 0x4 ADD PUSH2 0x14F JUMP JUMPDEST SWAP1 PUSH1 0x24 CALLDATALOAD DUP2 DUP2 GT PUSH2 0xBD JUMPI PUSH2 0x203 SWAP1 CALLDATASIZE SWAP1 PUSH1 0x4 ADD PUSH2 0x14F JUMP JUMPDEST PUSH1 0x44 CALLDATALOAD SWAP2 DUP3 GT PUSH2 0xBD JUMPI CALLDATASIZE PUSH1 0x23 DUP4 ADD SLT ISZERO PUSH2 0xBD JUMPI DUP2 PUSH1 0x4 ADD CALLDATALOAD SWAP3 PUSH2 0x227 DUP5 PUSH2 0x137 JUMP JUMPDEST SWAP3 PUSH2 0x235 PUSH1 0x40 MLOAD SWAP5 DUP6 PUSH2 0x115 JUMP JUMPDEST DUP5 DUP5 MSTORE PUSH1 0x20 SWAP5 PUSH1 0x24 DUP7 DUP7 ADD SWAP2 PUSH1 0x5 SHL DUP4 ADD ADD SWAP2 CALLDATASIZE DUP4 GT PUSH2 0xBD JUMPI PUSH1 0x24 ADD SWAP1 JUMPDEST DUP3 DUP3 LT PUSH2 0x266 JUMPI PUSH2 0x21 DUP7 DUP7 DUP7 PUSH2 0x2A9 JUMP JUMPDEST DUP2 CALLDATALOAD DUP2 MSTORE SWAP1 DUP7 ADD SWAP1 DUP7 ADD PUSH2 0x254 JUMP JUMPDEST PUSH1 0x40 MLOAD CALLVALUE DUP2 MSTORE TIMESTAMP PUSH1 0x20 DUP3 ADD MSTORE PUSH32 0xDF9A51129930649214DF58F542322C245372C6F2FA6FC3C9B40D927C597CD230 PUSH1 0x40 CALLER SWAP3 LOG2 JUMP JUMPDEST PUSH1 0x0 SLOAD SWAP2 SWAP4 SWAP3 SWAP1 SWAP2 PUSH1 0x1 PUSH1 0x1 PUSH1 0xA0 SHL SUB AND CALLER SUB PUSH2 0x37D JUMPI PUSH2 0x2CD DUP5 MLOAD DUP3 MLOAD EQ PUSH2 0x3BA JUMP JUMPDEST PUSH2 0x2DA DUP5 MLOAD DUP4 MLOAD EQ PUSH2 0x3BA JUMP JUMPDEST PUSH1 0x0 JUMPDEST DUP5 MLOAD DUP2 LT ISZERO PUSH2 0x376 JUMPI DUP1 PUSH2 0x313 PUSH2 0x307 PUSH2 0x2FA PUSH2 0x340 SWAP5 DUP10 PUSH2 0x42A JUMP JUMPDEST MLOAD PUSH1 0x1 PUSH1 0x1 PUSH1 0xA0 SHL SUB AND SWAP1 JUMP JUMPDEST PUSH1 0x1 PUSH1 0x1 PUSH1 0xA0 SHL SUB AND SWAP1 JUMP JUMPDEST PUSH2 0x345 JUMPI PUSH2 0x33B PUSH2 0x32A PUSH2 0x307 PUSH2 0x2FA DUP5 DUP9 PUSH2 0x42A JUMP JUMPDEST PUSH2 0x334 DUP4 DUP7 PUSH2 0x42A JUMP JUMPDEST MLOAD SWAP1 PUSH2 0x60E JUMP JUMPDEST PUSH2 0x405 JUMP JUMPDEST PUSH2 0x2DD JUMP JUMPDEST PUSH2 0x33B PUSH2 0x358 PUSH2 0x307 PUSH2 0x2FA DUP5 DUP11 PUSH2 0x42A JUMP JUMPDEST PUSH2 0x365 PUSH2 0x2FA DUP5 DUP9 PUSH2 0x42A JUMP JUMPDEST PUSH2 0x36F DUP5 DUP8 PUSH2 0x42A JUMP JUMPDEST MLOAD SWAP2 PUSH2 0x454 JUMP JUMPDEST POP POP POP SWAP1 POP JUMP JUMPDEST PUSH1 0x40 MLOAD PUSH3 0x461BCD PUSH1 0xE5 SHL DUP2 MSTORE PUSH1 0x20 PUSH1 0x4 DUP3 ADD MSTORE PUSH1 0x15 PUSH1 0x24 DUP3 ADD MSTORE PUSH21 0x2CB7BA9030B932903737BA103A34329037BBB732B9 PUSH1 0x59 SHL PUSH1 0x44 DUP3 ADD MSTORE PUSH1 0x64 SWAP1 REVERT JUMPDEST ISZERO PUSH2 0x3C1 JUMPI JUMP JUMPDEST PUSH1 0x64 PUSH1 0x40 MLOAD PUSH3 0x461BCD PUSH1 0xE5 SHL DUP2 MSTORE PUSH1 0x20 PUSH1 0x4 DUP3 ADD MSTORE PUSH1 0x20 PUSH1 0x24 DUP3 ADD MSTORE PUSH32 0x417272617973206D7573742068617665207468652073616D65206C656E677468 PUSH1 0x44 DUP3 ADD MSTORE REVERT JUMPDEST PUSH1 0x0 NOT DUP2 EQ PUSH2 0x414 JUMPI PUSH1 0x1 ADD SWAP1 JUMP JUMPDEST PUSH4 0x4E487B71 PUSH1 0xE0 SHL PUSH1 0x0 MSTORE PUSH1 0x11 PUSH1 0x4 MSTORE PUSH1 0x24 PUSH1 0x0 REVERT JUMPDEST DUP1 MLOAD DUP3 LT ISZERO PUSH2 0x43E JUMPI PUSH1 0x20 SWAP2 PUSH1 0x5 SHL ADD ADD SWAP1 JUMP JUMPDEST PUSH4 0x4E487B71 PUSH1 0xE0 SHL PUSH1 0x0 MSTORE PUSH1 0x32 PUSH1 0x4 MSTORE PUSH1 0x24 PUSH1 0x0 REVERT JUMPDEST PUSH1 0x40 MLOAD PUSH4 0xA9059CBB PUSH1 0xE0 SHL PUSH1 0x20 DUP1 DUP4 ADD SWAP2 DUP3 MSTORE PUSH1 0x1 PUSH1 0x1 PUSH1 0xA0 SHL SUB SWAP5 DUP6 AND PUSH1 0x24 DUP5 ADD MSTORE PUSH1 0x44 DUP1 DUP5 ADD SWAP7 SWAP1 SWAP7 MSTORE SWAP5 DUP3 MSTORE SWAP1 SWAP3 SWAP1 SWAP2 PUSH2 0x490 DUP5 PUSH2 0xD8 JUMP JUMPDEST AND SWAP1 PUSH1 0x40 MLOAD SWAP3 PUSH2 0x49F DUP5 PUSH2 0xF9 JUMP JUMPDEST DUP5 DUP5 MSTORE PUSH32 0x5361666545524332303A206C6F772D6C6576656C2063616C6C206661696C6564 DUP6 DUP6 ADD MSTORE DUP3 EXTCODESIZE ISZERO PUSH2 0x512 JUMPI PUSH2 0x4EB SWAP4 SWAP3 PUSH1 0x0 SWAP3 DUP4 DUP1 SWAP4 MLOAD SWAP3 GAS CALL PUSH2 0x4E5 PUSH2 0x5CE JUMP JUMPDEST SWAP1 PUSH2 0x6E9 JUMP JUMPDEST DUP1 MLOAD SWAP1 DUP2 PUSH2 0x4F8 JUMPI POP POP POP JUMP JUMPDEST DUP3 PUSH2 0x510 SWAP4 PUSH2 0x50B SWAP4 DUP4 ADD ADD SWAP2 ADD PUSH2 0x557 JUMP JUMPDEST PUSH2 0x56F JUMP JUMPDEST JUMP JUMPDEST PUSH1 0x40 MLOAD PUSH3 0x461BCD PUSH1 0xE5 SHL DUP2 MSTORE PUSH1 0x4 DUP2 ADD DUP7 SWAP1 MSTORE PUSH1 0x1D PUSH1 0x24 DUP3 ADD MSTORE PUSH32 0x416464726573733A2063616C6C20746F206E6F6E2D636F6E7472616374000000 PUSH1 0x44 DUP3 ADD MSTORE PUSH1 0x64 SWAP1 REVERT JUMPDEST SWAP1 DUP2 PUSH1 0x20 SWAP2 SUB SLT PUSH2 0xBD JUMPI MLOAD DUP1 ISZERO ISZERO DUP2 SUB PUSH2 0xBD JUMPI SWAP1 JUMP JUMPDEST ISZERO PUSH2 0x576 JUMPI JUMP JUMPDEST PUSH1 0x40 MLOAD PUSH3 0x461BCD PUSH1 0xE5 SHL DUP2 MSTORE PUSH1 0x20 PUSH1 0x4 DUP3 ADD MSTORE PUSH1 0x2A PUSH1 0x24 DUP3 ADD MSTORE PUSH32 0x5361666545524332303A204552433230206F7065726174696F6E20646964206E PUSH1 0x44 DUP3 ADD MSTORE PUSH10 0x1BDD081CDD58D8D95959 PUSH1 0xB2 SHL PUSH1 0x64 DUP3 ADD MSTORE PUSH1 0x84 SWAP1 REVERT JUMPDEST RETURNDATASIZE ISZERO PUSH2 0x609 JUMPI RETURNDATASIZE SWAP1 PUSH8 0xFFFFFFFFFFFFFFFF DUP3 GT PUSH2 0xF4 JUMPI PUSH1 0x40 MLOAD SWAP2 PUSH2 0x5FD PUSH1 0x1F DUP3 ADD PUSH1 0x1F NOT AND PUSH1 0x20 ADD DUP5 PUSH2 0x115 JUMP JUMPDEST DUP3 MSTORE RETURNDATASIZE PUSH1 0x0 PUSH1 0x20 DUP5 ADD RETURNDATACOPY JUMP JUMPDEST PUSH1 0x60 SWAP1 JUMP JUMPDEST DUP2 SELFBALANCE LT PUSH2 0x6A4 JUMPI PUSH1 0x0 SWAP2 DUP3 SWAP2 DUP3 SWAP2 DUP3 SWAP2 PUSH1 0x1 PUSH1 0x1 PUSH1 0xA0 SHL SUB AND GAS CALL PUSH2 0x631 PUSH2 0x5CE JUMP JUMPDEST POP ISZERO PUSH2 0x639 JUMPI JUMP JUMPDEST PUSH1 0x40 MLOAD PUSH3 0x461BCD PUSH1 0xE5 SHL DUP2 MSTORE PUSH1 0x20 PUSH1 0x4 DUP3 ADD MSTORE PUSH1 0x3A PUSH1 0x24 DUP3 ADD MSTORE PUSH32 0x416464726573733A20756E61626C6520746F2073656E642076616C75652C2072 PUSH1 0x44 DUP3 ADD MSTORE PUSH32 0x6563697069656E74206D61792068617665207265766572746564000000000000 PUSH1 0x64 DUP3 ADD MSTORE PUSH1 0x84 SWAP1 REVERT JUMPDEST PUSH1 0x40 MLOAD PUSH3 0x461BCD PUSH1 0xE5 SHL DUP2 MSTORE PUSH1 0x20 PUSH1 0x4 DUP3 ADD MSTORE PUSH1 0x1D PUSH1 0x24 DUP3 ADD MSTORE PUSH32 0x416464726573733A20696E73756666696369656E742062616C616E6365000000 PUSH1 0x44 DUP3 ADD MSTORE PUSH1 0x64 SWAP1 REVERT JUMPDEST SWAP1 SWAP2 SWAP1 ISZERO PUSH2 0x6F5 JUMPI POP SWAP1 JUMP JUMPDEST DUP2 MLOAD ISZERO PUSH2 0x705 JUMPI POP DUP1 MLOAD SWAP1 PUSH1 0x20 ADD REVERT JUMPDEST PUSH1 0x40 MLOAD SWAP1 PUSH3 0x461BCD PUSH1 0xE5 SHL DUP3 MSTORE DUP2 PUSH1 0x20 DUP1 PUSH1 0x4 DUP4 ADD MSTORE DUP3 MLOAD SWAP1 DUP2 PUSH1 0x24 DUP5 ADD MSTORE PUSH1 0x0 SWAP4 JUMPDEST DUP3 DUP6 LT PUSH2 0x74B JUMPI POP POP PUSH1 0x44 SWAP3 POP PUSH1 0x0 DUP4 DUP3 DUP5 ADD ADD MSTORE PUSH1 0x1F DUP1 NOT SWAP2 ADD AND DUP2 ADD SUB ADD SWAP1 REVERT JUMPDEST DUP5 DUP2 ADD DUP3 ADD MLOAD DUP7 DUP7 ADD PUSH1 0x44 ADD MSTORE SWAP4 DUP2 ADD SWAP4 DUP6 SWAP4 POP PUSH2 0x728 JUMP INVALID LOG2 PUSH5 0x6970667358 0x22 SLT KECCAK256 PUSH1 0x55 0x5D 0xC8 0xE1 0xD 0xCE PUSH30 0x7D6E3E1A4E2F44D4DE56D3EBDECE296C24FFAA6553A61A1564736F6C6343 STOP ADDMOD SLT STOP CALLER "},"methodIdentifiers":{"getBalance()":"12065fe0","multiTransfer(address[],address[],uint256[])":"cd72250d","owner()":"8da5cb5b","pay()":"1b9265b8"}}}}}