{"contracts/Middle.sol":{"Middle":{"abi":[{"inputs":[{"internalType":"address","name":"_myAddress","type":"address"}],"stateMutability":"nonpayable","type":"constructor"},{"inputs":[],"name":"callGreeter","outputs":[{"internalType":"string","name":"","type":"string"}],"stateMutability":"view","type":"function"},{"inputs":[],"name":"myAddress","outputs":[{"internalType":"address","name":"","type":"address"}],"stateMutability":"view","type":"function"},{"inputs":[{"internalType":"string","name":"newGreeting","type":"string"}],"name":"setGreet","outputs":[],"stateMutability":"nonpayable","type":"function"}],"evm":{"bytecode":{"linkReferences":{},"object":"60803461007457601f6103aa38819003918201601f19168301916001600160401b038311848410176100795780849260209460405283398101031261007457516001600160a01b0381169081900361007457600080546001600160a01b03191691909117905560405161031a90816100908239f35b600080fd5b634e487b7160e01b600052604160045260246000fdfe608060408181526004908136101561001657600080fd5b600092833560e01c90816326b85ee11461021957508381639698086b14610130575063d7b4291c1461004757600080fd5b3461012c578260031936011261012c578254815163cfae321760e01b815292849184919082906001600160a01b03165afa918215610122578392610097575b81518061009385826102b8565b0390f35b9091503d8084833e6100a98183610241565b81019060208183031261011a5780519067ffffffffffffffff821161011e570181601f8201121561011a578051936100e085610279565b926100ed85519485610241565b858452602086840101116101175750610093936101109160208085019101610295565b9038610086565b80fd5b8380fd5b8480fd5b81513d85823e3d90fd5b8280fd5b929050346102155760203660031901126102155767ffffffffffffffff813581811161011e573660238201121561011e578083013561016e81610279565b9161017b86519384610241565b818352366024838301011161021157818792602460209301838601378301015284546001600160a01b031690813b1561020d5785916101ce918651978880948193635209b43160e11b83528983016102b8565b03925af18015610203576101e0578480f35b83116101f0575052388080808480f35b634e487b7160e01b845260419052602483fd5b83513d87823e3d90fd5b8580fd5b8680fd5b5050fd5b84903461023d578160031936011261023d5790546001600160a01b03168152602090f35b5080fd5b90601f8019910116810190811067ffffffffffffffff82111761026357604052565b634e487b7160e01b600052604160045260246000fd5b67ffffffffffffffff811161026357601f01601f191660200190565b60005b8381106102a85750506000910152565b8181015183820152602001610298565b604091602082526102d88151809281602086015260208686019101610295565b601f01601f191601019056fea26469706673582212209f246326f8c7ff4969b718fee6aaa69dd577ca0da481df5e161edd6e211be7ba64736f6c63430008120033","opcodes":"PUSH1 0x80 CALLVALUE PUSH2 0x74 JUMPI PUSH1 0x1F PUSH2 0x3AA CODESIZE DUP2 SWAP1 SUB SWAP2 DUP3 ADD PUSH1 0x1F NOT AND DUP4 ADD SWAP2 PUSH1 0x1 PUSH1 0x1 PUSH1 0x40 SHL SUB DUP4 GT DUP5 DUP5 LT OR PUSH2 0x79 JUMPI DUP1 DUP5 SWAP3 PUSH1 0x20 SWAP5 PUSH1 0x40 MSTORE DUP4 CODECOPY DUP2 ADD SUB SLT PUSH2 0x74 JUMPI MLOAD PUSH1 0x1 PUSH1 0x1 PUSH1 0xA0 SHL SUB DUP2 AND SWAP1 DUP2 SWAP1 SUB PUSH2 0x74 JUMPI PUSH1 0x0 DUP1 SLOAD PUSH1 0x1 PUSH1 0x1 PUSH1 0xA0 SHL SUB NOT AND SWAP2 SWAP1 SWAP2 OR SWAP1 SSTORE PUSH1 0x40 MLOAD PUSH2 0x31A SWAP1 DUP2 PUSH2 0x90 DUP3 CODECOPY RETURN JUMPDEST PUSH1 0x0 DUP1 REVERT JUMPDEST PUSH4 0x4E487B71 PUSH1 0xE0 SHL PUSH1 0x0 MSTORE PUSH1 0x41 PUSH1 0x4 MSTORE PUSH1 0x24 PUSH1 0x0 REVERT INVALID PUSH1 0x80 PUSH1 0x40 DUP2 DUP2 MSTORE PUSH1 0x4 SWAP1 DUP2 CALLDATASIZE LT ISZERO PUSH2 0x16 JUMPI PUSH1 0x0 DUP1 REVERT JUMPDEST PUSH1 0x0 SWAP3 DUP4 CALLDATALOAD PUSH1 0xE0 SHR SWAP1 DUP2 PUSH4 0x26B85EE1 EQ PUSH2 0x219 JUMPI POP DUP4 DUP2 PUSH4 0x9698086B EQ PUSH2 0x130 JUMPI POP PUSH4 0xD7B4291C EQ PUSH2 0x47 JUMPI PUSH1 0x0 DUP1 REVERT JUMPDEST CALLVALUE PUSH2 0x12C JUMPI DUP3 PUSH1 0x3 NOT CALLDATASIZE ADD SLT PUSH2 0x12C JUMPI DUP3 SLOAD DUP2 MLOAD PUSH4 0xCFAE3217 PUSH1 0xE0 SHL DUP2 MSTORE SWAP3 DUP5 SWAP2 DUP5 SWAP2 SWAP1 DUP3 SWAP1 PUSH1 0x1 PUSH1 0x1 PUSH1 0xA0 SHL SUB AND GAS STATICCALL SWAP2 DUP3 ISZERO PUSH2 0x122 JUMPI DUP4 SWAP3 PUSH2 0x97 JUMPI JUMPDEST DUP2 MLOAD DUP1 PUSH2 0x93 DUP6 DUP3 PUSH2 0x2B8 JUMP JUMPDEST SUB SWAP1 RETURN JUMPDEST SWAP1 SWAP2 POP RETURNDATASIZE DUP1 DUP5 DUP4 RETURNDATACOPY PUSH2 0xA9 DUP2 DUP4 PUSH2 0x241 JUMP JUMPDEST DUP2 ADD SWAP1 PUSH1 0x20 DUP2 DUP4 SUB SLT PUSH2 0x11A JUMPI DUP1 MLOAD SWAP1 PUSH8 0xFFFFFFFFFFFFFFFF DUP3 GT PUSH2 0x11E JUMPI ADD DUP2 PUSH1 0x1F DUP3 ADD SLT ISZERO PUSH2 0x11A JUMPI DUP1 MLOAD SWAP4 PUSH2 0xE0 DUP6 PUSH2 0x279 JUMP JUMPDEST SWAP3 PUSH2 0xED DUP6 MLOAD SWAP5 DUP6 PUSH2 0x241 JUMP JUMPDEST DUP6 DUP5 MSTORE PUSH1 0x20 DUP7 DUP5 ADD ADD GT PUSH2 0x117 JUMPI POP PUSH2 0x93 SWAP4 PUSH2 0x110 SWAP2 PUSH1 0x20 DUP1 DUP6 ADD SWAP2 ADD PUSH2 0x295 JUMP JUMPDEST SWAP1 CODESIZE PUSH2 0x86 JUMP JUMPDEST DUP1 REVERT JUMPDEST DUP4 DUP1 REVERT JUMPDEST DUP5 DUP1 REVERT JUMPDEST DUP2 MLOAD RETURNDATASIZE DUP6 DUP3 RETURNDATACOPY RETURNDATASIZE SWAP1 REVERT JUMPDEST DUP3 DUP1 REVERT JUMPDEST SWAP3 SWAP1 POP CALLVALUE PUSH2 0x215 JUMPI PUSH1 0x20 CALLDATASIZE PUSH1 0x3 NOT ADD SLT PUSH2 0x215 JUMPI PUSH8 0xFFFFFFFFFFFFFFFF DUP2 CALLDATALOAD DUP2 DUP2 GT PUSH2 0x11E JUMPI CALLDATASIZE PUSH1 0x23 DUP3 ADD SLT ISZERO PUSH2 0x11E JUMPI DUP1 DUP4 ADD CALLDATALOAD PUSH2 0x16E DUP2 PUSH2 0x279 JUMP JUMPDEST SWAP2 PUSH2 0x17B DUP7 MLOAD SWAP4 DUP5 PUSH2 0x241 JUMP JUMPDEST DUP2 DUP4 MSTORE CALLDATASIZE PUSH1 0x24 DUP4 DUP4 ADD ADD GT PUSH2 0x211 JUMPI DUP2 DUP8 SWAP3 PUSH1 0x24 PUSH1 0x20 SWAP4 ADD DUP4 DUP7 ADD CALLDATACOPY DUP4 ADD ADD MSTORE DUP5 SLOAD PUSH1 0x1 PUSH1 0x1 PUSH1 0xA0 SHL SUB AND SWAP1 DUP2 EXTCODESIZE ISZERO PUSH2 0x20D JUMPI DUP6 SWAP2 PUSH2 0x1CE SWAP2 DUP7 MLOAD SWAP8 DUP9 DUP1 SWAP5 DUP2 SWAP4 PUSH4 0x5209B431 PUSH1 0xE1 SHL DUP4 MSTORE DUP10 DUP4 ADD PUSH2 0x2B8 JUMP JUMPDEST SUB SWAP3 GAS CALL DUP1 ISZERO PUSH2 0x203 JUMPI PUSH2 0x1E0 JUMPI DUP5 DUP1 RETURN JUMPDEST DUP4 GT PUSH2 0x1F0 JUMPI POP MSTORE CODESIZE DUP1 DUP1 DUP1 DUP5 DUP1 RETURN JUMPDEST PUSH4 0x4E487B71 PUSH1 0xE0 SHL DUP5 MSTORE PUSH1 0x41 SWAP1 MSTORE PUSH1 0x24 DUP4 REVERT JUMPDEST DUP4 MLOAD RETURNDATASIZE DUP8 DUP3 RETURNDATACOPY RETURNDATASIZE SWAP1 REVERT JUMPDEST DUP6 DUP1 REVERT JUMPDEST DUP7 DUP1 REVERT JUMPDEST POP POP REVERT JUMPDEST DUP5 SWAP1 CALLVALUE PUSH2 0x23D JUMPI DUP2 PUSH1 0x3 NOT CALLDATASIZE ADD SLT PUSH2 0x23D JUMPI SWAP1 SLOAD PUSH1 0x1 PUSH1 0x1 PUSH1 0xA0 SHL SUB AND DUP2 MSTORE PUSH1 0x20 SWAP1 RETURN JUMPDEST POP DUP1 REVERT JUMPDEST SWAP1 PUSH1 0x1F DUP1 NOT SWAP2 ADD AND DUP2 ADD SWAP1 DUP2 LT PUSH8 0xFFFFFFFFFFFFFFFF DUP3 GT OR PUSH2 0x263 JUMPI PUSH1 0x40 MSTORE JUMP JUMPDEST PUSH4 0x4E487B71 PUSH1 0xE0 SHL PUSH1 0x0 MSTORE PUSH1 0x41 PUSH1 0x4 MSTORE PUSH1 0x24 PUSH1 0x0 REVERT JUMPDEST PUSH8 0xFFFFFFFFFFFFFFFF DUP2 GT PUSH2 0x263 JUMPI PUSH1 0x1F ADD PUSH1 0x1F NOT AND PUSH1 0x20 ADD SWAP1 JUMP JUMPDEST PUSH1 0x0 JUMPDEST DUP4 DUP2 LT PUSH2 0x2A8 JUMPI POP POP PUSH1 0x0 SWAP2 ADD MSTORE JUMP JUMPDEST DUP2 DUP2 ADD MLOAD DUP4 DUP3 ADD MSTORE PUSH1 0x20 ADD PUSH2 0x298 JUMP JUMPDEST PUSH1 0x40 SWAP2 PUSH1 0x20 DUP3 MSTORE PUSH2 0x2D8 DUP2 MLOAD DUP1 SWAP3 DUP2 PUSH1 0x20 DUP7 ADD MSTORE PUSH1 0x20 DUP7 DUP7 ADD SWAP2 ADD PUSH2 0x295 JUMP JUMPDEST PUSH1 0x1F ADD PUSH1 0x1F NOT AND ADD ADD SWAP1 JUMP INVALID LOG2 PUSH5 0x6970667358 0x22 SLT KECCAK256 SWAP16 0x24 PUSH4 0x26F8C7FF 0x49 PUSH10 0xB718FEE6AAA69DD577CA 0xD LOG4 DUP2 0xDF 0x5E AND 0x1E 0xDD PUSH15 0x211BE7BA64736F6C63430008120033 "},"methodIdentifiers":{"callGreeter()":"d7b4291c","myAddress()":"26b85ee1","setGreet(string)":"9698086b"}}}}}