{"contracts/Root.sol":{"Root":{"abi":[{"inputs":[{"internalType":"string","name":"_greeting","type":"string"}],"stateMutability":"nonpayable","type":"constructor"},{"anonymous":false,"inputs":[{"indexed":false,"internalType":"string","name":"greeting","type":"string"}],"name":"SetGreeting","type":"event"},{"inputs":[],"name":"greet","outputs":[{"internalType":"string","name":"","type":"string"}],"stateMutability":"view","type":"function"},{"inputs":[{"internalType":"string","name":"_greeting","type":"string"}],"name":"setGreeting","outputs":[],"stateMutability":"nonpayable","type":"function"}],"evm":{"bytecode":{"linkReferences":{},"object":"60806040523461020a576106c9803803806100198161020f565b9283398101906020808284031261020a5781516001600160401b039283821161020a570190601f9184838201121561020a5780518481116101c057601f19916100678286018416850161020f565b9682885284838301011161020a57839060005b8381106101f657505060009187010152610095600054610234565b8381116101d6575b507f48692066726f6d20526f6f740000000000000000000000000000000000000018600081905585519485116101c0576100d690610234565b838111610188575b5081928411600114610126575050819260009261011b575b50508160011b916000199060031b1c1916176000555b60405161044390816102868239f35b0151905038806100f6565b6000808052828120918516959193925b8682106101705750508360019510610157575b505050811b0160005561010c565b015160001960f88460031b161c19169055388080610149565b80600185968294968601518155019501930190610136565b6101b19060008052836000208580880160051c8201928689106101b7575b0160051c019061026e565b386100de565b925081926101a6565b634e487b7160e01b600052604160045260246000fd5b6101f090600080528484600020910160051c81019061026e565b3861009d565b81810183015189820184015285920161007a565b600080fd5b6040519190601f01601f191682016001600160401b038111838210176101c057604052565b90600182811c92168015610264575b602083101461024e57565b634e487b7160e01b600052602260045260246000fd5b91607f1691610243565b818110610279575050565b6000815560010161026e56fe608080604052600436101561001357600080fd5b600090813560e01c908163a413686214610118575063cfae32171461003757600080fd5b3461011557806003193601126101155760405190808054610057816103d3565b808552916001918083169081156100eb5750600114610091575b61008d8561008181870382610352565b6040519182918261038a565b0390f35b80809450527f290decd9548b62a8d60345a988386fc84ba6bc95484008f6362f93160ef3e5635b8284106100d35750505081016020016100818261008d610071565b805460208587018101919091529093019281016100b8565b86955061008d9693506020925061008194915060ff191682840152151560051b8201019293610071565b80fd5b8234610115576020918260031936011261034e5760043567ffffffffffffffff9384821161034a573660238301121561034a57816004013585811161033657601f199261016c601f83018516840186610352565b81855236602483830101116103325781869260248593018388013785010152825194851161031e5761019e84546103d3565b601f81116102bd575b508091601f861160011461021757505090838394610206937f4dabe8361a35a905ec9d530e301d2e5c6cf44c65cdd7768f522a77a373436da9959161020c575b508160011b916000199060031b1c19161784556040519182918261038a565b0390a180f35b9050820151866101e7565b85929192168480527f290decd9548b62a8d60345a988386fc84ba6bc95484008f6362f93160ef3e5639285905b8282106102a5575050946102069392600192827f4dabe8361a35a905ec9d530e301d2e5c6cf44c65cdd7768f522a77a373436da997981061028c575b5050811b018455610081565b84015160001960f88460031b161c191690558680610280565b80600185968294968901518155019501930190610244565b8480527f290decd9548b62a8d60345a988386fc84ba6bc95484008f6362f93160ef3e563601f870160051c810191838810610314575b601f0160051c01905b81811061030957506101a7565b8581556001016102fc565b90915081906102f3565b634e487b7160e01b84526041600452602484fd5b8580fd5b634e487b7160e01b85526041600452602485fd5b8380fd5b5080fd5b90601f8019910116810190811067ffffffffffffffff82111761037457604052565b634e487b7160e01b600052604160045260246000fd5b6020808252825181830181905290939260005b8281106103bf57505060409293506000838284010152601f8019910116010190565b81810186015184820160400152850161039d565b90600182811c92168015610403575b60208310146103ed57565b634e487b7160e01b600052602260045260246000fd5b91607f16916103e256fea2646970667358221220bf6df06b6b1a9e36864c84d0d943e0b7a6eb18894a50d585b2645d2690958ba064736f6c63430008120033","opcodes":"PUSH1 0x80 PUSH1 0x40 MSTORE CALLVALUE PUSH2 0x20A JUMPI PUSH2 0x6C9 DUP1 CODESIZE SUB DUP1 PUSH2 0x19 DUP2 PUSH2 0x20F JUMP JUMPDEST SWAP3 DUP4 CODECOPY DUP2 ADD SWAP1 PUSH1 0x20 DUP1 DUP3 DUP5 SUB SLT PUSH2 0x20A JUMPI DUP2 MLOAD PUSH1 0x1 PUSH1 0x1 PUSH1 0x40 SHL SUB SWAP3 DUP4 DUP3 GT PUSH2 0x20A JUMPI ADD SWAP1 PUSH1 0x1F SWAP2 DUP5 DUP4 DUP3 ADD SLT ISZERO PUSH2 0x20A JUMPI DUP1 MLOAD DUP5 DUP2 GT PUSH2 0x1C0 JUMPI PUSH1 0x1F NOT SWAP2 PUSH2 0x67 DUP3 DUP7 ADD DUP5 AND DUP6 ADD PUSH2 0x20F JUMP JUMPDEST SWAP7 DUP3 DUP9 MSTORE DUP5 DUP4 DUP4 ADD ADD GT PUSH2 0x20A JUMPI DUP4 SWAP1 PUSH1 0x0 JUMPDEST DUP4 DUP2 LT PUSH2 0x1F6 JUMPI POP POP PUSH1 0x0 SWAP2 DUP8 ADD ADD MSTORE PUSH2 0x95 PUSH1 0x0 SLOAD PUSH2 0x234 JUMP JUMPDEST DUP4 DUP2 GT PUSH2 0x1D6 JUMPI JUMPDEST POP PUSH32 0x48692066726F6D20526F6F740000000000000000000000000000000000000018 PUSH1 0x0 DUP2 SWAP1 SSTORE DUP6 MLOAD SWAP5 DUP6 GT PUSH2 0x1C0 JUMPI PUSH2 0xD6 SWAP1 PUSH2 0x234 JUMP JUMPDEST DUP4 DUP2 GT PUSH2 0x188 JUMPI JUMPDEST POP DUP2 SWAP3 DUP5 GT PUSH1 0x1 EQ PUSH2 0x126 JUMPI POP POP DUP2 SWAP3 PUSH1 0x0 SWAP3 PUSH2 0x11B JUMPI JUMPDEST POP POP DUP2 PUSH1 0x1 SHL SWAP2 PUSH1 0x0 NOT SWAP1 PUSH1 0x3 SHL SHR NOT AND OR PUSH1 0x0 SSTORE JUMPDEST PUSH1 0x40 MLOAD PUSH2 0x443 SWAP1 DUP2 PUSH2 0x286 DUP3 CODECOPY RETURN JUMPDEST ADD MLOAD SWAP1 POP CODESIZE DUP1 PUSH2 0xF6 JUMP JUMPDEST PUSH1 0x0 DUP1 DUP1 MSTORE DUP3 DUP2 KECCAK256 SWAP2 DUP6 AND SWAP6 SWAP2 SWAP4 SWAP3 JUMPDEST DUP7 DUP3 LT PUSH2 0x170 JUMPI POP POP DUP4 PUSH1 0x1 SWAP6 LT PUSH2 0x157 JUMPI JUMPDEST POP POP POP DUP2 SHL ADD PUSH1 0x0 SSTORE PUSH2 0x10C JUMP JUMPDEST ADD MLOAD PUSH1 0x0 NOT PUSH1 0xF8 DUP5 PUSH1 0x3 SHL AND SHR NOT AND SWAP1 SSTORE CODESIZE DUP1 DUP1 PUSH2 0x149 JUMP JUMPDEST DUP1 PUSH1 0x1 DUP6 SWAP7 DUP3 SWAP5 SWAP7 DUP7 ADD MLOAD DUP2 SSTORE ADD SWAP6 ADD SWAP4 ADD SWAP1 PUSH2 0x136 JUMP JUMPDEST PUSH2 0x1B1 SWAP1 PUSH1 0x0 DUP1 MSTORE DUP4 PUSH1 0x0 KECCAK256 DUP6 DUP1 DUP9 ADD PUSH1 0x5 SHR DUP3 ADD SWAP3 DUP7 DUP10 LT PUSH2 0x1B7 JUMPI JUMPDEST ADD PUSH1 0x5 SHR ADD SWAP1 PUSH2 0x26E JUMP JUMPDEST CODESIZE PUSH2 0xDE JUMP JUMPDEST SWAP3 POP DUP2 SWAP3 PUSH2 0x1A6 JUMP JUMPDEST PUSH4 0x4E487B71 PUSH1 0xE0 SHL PUSH1 0x0 MSTORE PUSH1 0x41 PUSH1 0x4 MSTORE PUSH1 0x24 PUSH1 0x0 REVERT JUMPDEST PUSH2 0x1F0 SWAP1 PUSH1 0x0 DUP1 MSTORE DUP5 DUP5 PUSH1 0x0 KECCAK256 SWAP2 ADD PUSH1 0x5 SHR DUP2 ADD SWAP1 PUSH2 0x26E JUMP JUMPDEST CODESIZE PUSH2 0x9D JUMP JUMPDEST DUP2 DUP2 ADD DUP4 ADD MLOAD DUP10 DUP3 ADD DUP5 ADD MSTORE DUP6 SWAP3 ADD PUSH2 0x7A JUMP JUMPDEST PUSH1 0x0 DUP1 REVERT JUMPDEST PUSH1 0x40 MLOAD SWAP2 SWAP1 PUSH1 0x1F ADD PUSH1 0x1F NOT AND DUP3 ADD PUSH1 0x1 PUSH1 0x1 PUSH1 0x40 SHL SUB DUP2 GT DUP4 DUP3 LT OR PUSH2 0x1C0 JUMPI PUSH1 0x40 MSTORE JUMP JUMPDEST SWAP1 PUSH1 0x1 DUP3 DUP2 SHR SWAP3 AND DUP1 ISZERO PUSH2 0x264 JUMPI JUMPDEST PUSH1 0x20 DUP4 LT EQ PUSH2 0x24E JUMPI JUMP JUMPDEST PUSH4 0x4E487B71 PUSH1 0xE0 SHL PUSH1 0x0 MSTORE PUSH1 0x22 PUSH1 0x4 MSTORE PUSH1 0x24 PUSH1 0x0 REVERT JUMPDEST SWAP2 PUSH1 0x7F AND SWAP2 PUSH2 0x243 JUMP JUMPDEST DUP2 DUP2 LT PUSH2 0x279 JUMPI POP POP JUMP JUMPDEST PUSH1 0x0 DUP2 SSTORE PUSH1 0x1 ADD PUSH2 0x26E JUMP INVALID PUSH1 0x80 DUP1 PUSH1 0x40 MSTORE PUSH1 0x4 CALLDATASIZE LT ISZERO PUSH2 0x13 JUMPI PUSH1 0x0 DUP1 REVERT JUMPDEST PUSH1 0x0 SWAP1 DUP2 CALLDATALOAD PUSH1 0xE0 SHR SWAP1 DUP2 PUSH4 0xA4136862 EQ PUSH2 0x118 JUMPI POP PUSH4 0xCFAE3217 EQ PUSH2 0x37 JUMPI PUSH1 0x0 DUP1 REVERT JUMPDEST CALLVALUE PUSH2 0x115 JUMPI DUP1 PUSH1 0x3 NOT CALLDATASIZE ADD SLT PUSH2 0x115 JUMPI PUSH1 0x40 MLOAD SWAP1 DUP1 DUP1 SLOAD PUSH2 0x57 DUP2 PUSH2 0x3D3 JUMP JUMPDEST DUP1 DUP6 MSTORE SWAP2 PUSH1 0x1 SWAP2 DUP1 DUP4 AND SWAP1 DUP2 ISZERO PUSH2 0xEB JUMPI POP PUSH1 0x1 EQ PUSH2 0x91 JUMPI JUMPDEST PUSH2 0x8D DUP6 PUSH2 0x81 DUP2 DUP8 SUB DUP3 PUSH2 0x352 JUMP JUMPDEST PUSH1 0x40 MLOAD SWAP2 DUP3 SWAP2 DUP3 PUSH2 0x38A JUMP JUMPDEST SUB SWAP1 RETURN JUMPDEST DUP1 DUP1 SWAP5 POP MSTORE PUSH32 0x290DECD9548B62A8D60345A988386FC84BA6BC95484008F6362F93160EF3E563 JUMPDEST DUP3 DUP5 LT PUSH2 0xD3 JUMPI POP POP POP DUP2 ADD PUSH1 0x20 ADD PUSH2 0x81 DUP3 PUSH2 0x8D PUSH2 0x71 JUMP JUMPDEST DUP1 SLOAD PUSH1 0x20 DUP6 DUP8 ADD DUP2 ADD SWAP2 SWAP1 SWAP2 MSTORE SWAP1 SWAP4 ADD SWAP3 DUP2 ADD PUSH2 0xB8 JUMP JUMPDEST DUP7 SWAP6 POP PUSH2 0x8D SWAP7 SWAP4 POP PUSH1 0x20 SWAP3 POP PUSH2 0x81 SWAP5 SWAP2 POP PUSH1 0xFF NOT AND DUP3 DUP5 ADD MSTORE ISZERO ISZERO PUSH1 0x5 SHL DUP3 ADD ADD SWAP3 SWAP4 PUSH2 0x71 JUMP JUMPDEST DUP1 REVERT JUMPDEST DUP3 CALLVALUE PUSH2 0x115 JUMPI PUSH1 0x20 SWAP2 DUP3 PUSH1 0x3 NOT CALLDATASIZE ADD SLT PUSH2 0x34E JUMPI PUSH1 0x4 CALLDATALOAD PUSH8 0xFFFFFFFFFFFFFFFF SWAP4 DUP5 DUP3 GT PUSH2 0x34A JUMPI CALLDATASIZE PUSH1 0x23 DUP4 ADD SLT ISZERO PUSH2 0x34A JUMPI DUP2 PUSH1 0x4 ADD CALLDATALOAD DUP6 DUP2 GT PUSH2 0x336 JUMPI PUSH1 0x1F NOT SWAP3 PUSH2 0x16C PUSH1 0x1F DUP4 ADD DUP6 AND DUP5 ADD DUP7 PUSH2 0x352 JUMP JUMPDEST DUP2 DUP6 MSTORE CALLDATASIZE PUSH1 0x24 DUP4 DUP4 ADD ADD GT PUSH2 0x332 JUMPI DUP2 DUP7 SWAP3 PUSH1 0x24 DUP6 SWAP4 ADD DUP4 DUP9 ADD CALLDATACOPY DUP6 ADD ADD MSTORE DUP3 MLOAD SWAP5 DUP6 GT PUSH2 0x31E JUMPI PUSH2 0x19E DUP5 SLOAD PUSH2 0x3D3 JUMP JUMPDEST PUSH1 0x1F DUP2 GT PUSH2 0x2BD JUMPI JUMPDEST POP DUP1 SWAP2 PUSH1 0x1F DUP7 GT PUSH1 0x1 EQ PUSH2 0x217 JUMPI POP POP SWAP1 DUP4 DUP4 SWAP5 PUSH2 0x206 SWAP4 PUSH32 0x4DABE8361A35A905EC9D530E301D2E5C6CF44C65CDD7768F522A77A373436DA9 SWAP6 SWAP2 PUSH2 0x20C JUMPI JUMPDEST POP DUP2 PUSH1 0x1 SHL SWAP2 PUSH1 0x0 NOT SWAP1 PUSH1 0x3 SHL SHR NOT AND OR DUP5 SSTORE PUSH1 0x40 MLOAD SWAP2 DUP3 SWAP2 DUP3 PUSH2 0x38A JUMP JUMPDEST SUB SWAP1 LOG1 DUP1 RETURN JUMPDEST SWAP1 POP DUP3 ADD MLOAD DUP7 PUSH2 0x1E7 JUMP JUMPDEST DUP6 SWAP3 SWAP2 SWAP3 AND DUP5 DUP1 MSTORE PUSH32 0x290DECD9548B62A8D60345A988386FC84BA6BC95484008F6362F93160EF3E563 SWAP3 DUP6 SWAP1 JUMPDEST DUP3 DUP3 LT PUSH2 0x2A5 JUMPI POP POP SWAP5 PUSH2 0x206 SWAP4 SWAP3 PUSH1 0x1 SWAP3 DUP3 PUSH32 0x4DABE8361A35A905EC9D530E301D2E5C6CF44C65CDD7768F522A77A373436DA9 SWAP8 SWAP9 LT PUSH2 0x28C JUMPI JUMPDEST POP POP DUP2 SHL ADD DUP5 SSTORE PUSH2 0x81 JUMP JUMPDEST DUP5 ADD MLOAD PUSH1 0x0 NOT PUSH1 0xF8 DUP5 PUSH1 0x3 SHL AND SHR NOT AND SWAP1 SSTORE DUP7 DUP1 PUSH2 0x280 JUMP JUMPDEST DUP1 PUSH1 0x1 DUP6 SWAP7 DUP3 SWAP5 SWAP7 DUP10 ADD MLOAD DUP2 SSTORE ADD SWAP6 ADD SWAP4 ADD SWAP1 PUSH2 0x244 JUMP JUMPDEST DUP5 DUP1 MSTORE PUSH32 0x290DECD9548B62A8D60345A988386FC84BA6BC95484008F6362F93160EF3E563 PUSH1 0x1F DUP8 ADD PUSH1 0x5 SHR DUP2 ADD SWAP2 DUP4 DUP9 LT PUSH2 0x314 JUMPI JUMPDEST PUSH1 0x1F ADD PUSH1 0x5 SHR ADD SWAP1 JUMPDEST DUP2 DUP2 LT PUSH2 0x309 JUMPI POP PUSH2 0x1A7 JUMP JUMPDEST DUP6 DUP2 SSTORE PUSH1 0x1 ADD PUSH2 0x2FC JUMP JUMPDEST SWAP1 SWAP2 POP DUP2 SWAP1 PUSH2 0x2F3 JUMP JUMPDEST PUSH4 0x4E487B71 PUSH1 0xE0 SHL DUP5 MSTORE PUSH1 0x41 PUSH1 0x4 MSTORE PUSH1 0x24 DUP5 REVERT JUMPDEST DUP6 DUP1 REVERT JUMPDEST PUSH4 0x4E487B71 PUSH1 0xE0 SHL DUP6 MSTORE PUSH1 0x41 PUSH1 0x4 MSTORE PUSH1 0x24 DUP6 REVERT JUMPDEST DUP4 DUP1 REVERT JUMPDEST POP DUP1 REVERT JUMPDEST SWAP1 PUSH1 0x1F DUP1 NOT SWAP2 ADD AND DUP2 ADD SWAP1 DUP2 LT PUSH8 0xFFFFFFFFFFFFFFFF DUP3 GT OR PUSH2 0x374 JUMPI PUSH1 0x40 MSTORE JUMP JUMPDEST PUSH4 0x4E487B71 PUSH1 0xE0 SHL PUSH1 0x0 MSTORE PUSH1 0x41 PUSH1 0x4 MSTORE PUSH1 0x24 PUSH1 0x0 REVERT JUMPDEST PUSH1 0x20 DUP1 DUP3 MSTORE DUP3 MLOAD DUP2 DUP4 ADD DUP2 SWAP1 MSTORE SWAP1 SWAP4 SWAP3 PUSH1 0x0 JUMPDEST DUP3 DUP2 LT PUSH2 0x3BF JUMPI POP POP PUSH1 0x40 SWAP3 SWAP4 POP PUSH1 0x0 DUP4 DUP3 DUP5 ADD ADD MSTORE PUSH1 0x1F DUP1 NOT SWAP2 ADD AND ADD ADD SWAP1 JUMP JUMPDEST DUP2 DUP2 ADD DUP7 ADD MLOAD DUP5 DUP3 ADD PUSH1 0x40 ADD MSTORE DUP6 ADD PUSH2 0x39D JUMP JUMPDEST SWAP1 PUSH1 0x1 DUP3 DUP2 SHR SWAP3 AND DUP1 ISZERO PUSH2 0x403 JUMPI JUMPDEST PUSH1 0x20 DUP4 LT EQ PUSH2 0x3ED JUMPI JUMP JUMPDEST PUSH4 0x4E487B71 PUSH1 0xE0 SHL PUSH1 0x0 MSTORE PUSH1 0x22 PUSH1 0x4 MSTORE PUSH1 0x24 PUSH1 0x0 REVERT JUMPDEST SWAP2 PUSH1 0x7F AND SWAP2 PUSH2 0x3E2 JUMP INVALID LOG2 PUSH5 0x6970667358 0x22 SLT KECCAK256 0xBF PUSH14 0xF06B6B1A9E36864C84D0D943E0B7 0xA6 0xEB XOR DUP10 0x4A POP 0xD5 DUP6 0xB2 PUSH5 0x5D2690958B LOG0 PUSH5 0x736F6C6343 STOP ADDMOD SLT STOP CALLER "},"methodIdentifiers":{"greet()":"cfae3217","setGreeting(string)":"a4136862"}}}}}