{
  "_format": "hh-sol-artifact-1",
  "contractName": "Root",
  "sourceName": "contracts/Root.sol",
  "abi": [
    {
      "inputs": [
        {
          "internalType": "string",
          "name": "_greeting",
          "type": "string"
        }
      ],
      "stateMutability": "nonpayable",
      "type": "constructor"
    },
    {
      "anonymous": false,
      "inputs": [
        {
          "indexed": false,
          "internalType": "string",
          "name": "greeting",
          "type": "string"
        }
      ],
      "name": "SetGreeting",
      "type": "event"
    },
    {
      "inputs": [],
      "name": "greet",
      "outputs": [
        {
          "internalType": "string",
          "name": "",
          "type": "string"
        }
      ],
      "stateMutability": "view",
      "type": "function"
    },
    {
      "inputs": [
        {
          "internalType": "string",
          "name": "_greeting",
          "type": "string"
        }
      ],
      "name": "setGreeting",
      "outputs": [],
      "stateMutability": "nonpayable",
      "type": "function"
    }
  ],
  "bytecode": "0x60806040523461020a576106c9803803806100198161020f565b9283398101906020808284031261020a5781516001600160401b039283821161020a570190601f9184838201121561020a5780518481116101c057601f19916100678286018416850161020f565b9682885284838301011161020a57839060005b8381106101f657505060009187010152610095600054610234565b8381116101d6575b507f48692066726f6d20526f6f740000000000000000000000000000000000000018600081905585519485116101c0576100d690610234565b838111610188575b5081928411600114610126575050819260009261011b575b50508160011b916000199060031b1c1916176000555b60405161044390816102868239f35b0151905038806100f6565b6000808052828120918516959193925b8682106101705750508360019510610157575b505050811b0160005561010c565b015160001960f88460031b161c19169055388080610149565b80600185968294968601518155019501930190610136565b6101b19060008052836000208580880160051c8201928689106101b7575b0160051c019061026e565b386100de565b925081926101a6565b634e487b7160e01b600052604160045260246000fd5b6101f090600080528484600020910160051c81019061026e565b3861009d565b81810183015189820184015285920161007a565b600080fd5b6040519190601f01601f191682016001600160401b038111838210176101c057604052565b90600182811c92168015610264575b602083101461024e57565b634e487b7160e01b600052602260045260246000fd5b91607f1691610243565b818110610279575050565b6000815560010161026e56fe608080604052600436101561001357600080fd5b600090813560e01c908163a413686214610118575063cfae32171461003757600080fd5b3461011557806003193601126101155760405190808054610057816103d3565b808552916001918083169081156100eb5750600114610091575b61008d8561008181870382610352565b6040519182918261038a565b0390f35b80809450527f290decd9548b62a8d60345a988386fc84ba6bc95484008f6362f93160ef3e5635b8284106100d35750505081016020016100818261008d610071565b805460208587018101919091529093019281016100b8565b86955061008d9693506020925061008194915060ff191682840152151560051b8201019293610071565b80fd5b8234610115576020918260031936011261034e5760043567ffffffffffffffff9384821161034a573660238301121561034a57816004013585811161033657601f199261016c601f83018516840186610352565b81855236602483830101116103325781869260248593018388013785010152825194851161031e5761019e84546103d3565b601f81116102bd575b508091601f861160011461021757505090838394610206937f4dabe8361a35a905ec9d530e301d2e5c6cf44c65cdd7768f522a77a373436da9959161020c575b508160011b916000199060031b1c19161784556040519182918261038a565b0390a180f35b9050820151866101e7565b85929192168480527f290decd9548b62a8d60345a988386fc84ba6bc95484008f6362f93160ef3e5639285905b8282106102a5575050946102069392600192827f4dabe8361a35a905ec9d530e301d2e5c6cf44c65cdd7768f522a77a373436da997981061028c575b5050811b018455610081565b84015160001960f88460031b161c191690558680610280565b80600185968294968901518155019501930190610244565b8480527f290decd9548b62a8d60345a988386fc84ba6bc95484008f6362f93160ef3e563601f870160051c810191838810610314575b601f0160051c01905b81811061030957506101a7565b8581556001016102fc565b90915081906102f3565b634e487b7160e01b84526041600452602484fd5b8580fd5b634e487b7160e01b85526041600452602485fd5b8380fd5b5080fd5b90601f8019910116810190811067ffffffffffffffff82111761037457604052565b634e487b7160e01b600052604160045260246000fd5b6020808252825181830181905290939260005b8281106103bf57505060409293506000838284010152601f8019910116010190565b81810186015184820160400152850161039d565b90600182811c92168015610403575b60208310146103ed57565b634e487b7160e01b600052602260045260246000fd5b91607f16916103e256fea2646970667358221220bf6df06b6b1a9e36864c84d0d943e0b7a6eb18894a50d585b2645d2690958ba064736f6c63430008120033",
  "linkReferences": {},
  "deployedLinkReferences": {}
}