{
  "_format": "hh-sol-artifact-1",
  "contractName": "TokenF2L2",
  "sourceName": "contracts/MultiTransfer.sol",
  "abi": [
    {
      "inputs": [
        {
          "internalType": "address",
          "name": "_owner",
          "type": "address"
        }
      ],
      "stateMutability": "nonpayable",
      "type": "constructor"
    },
    {
      "anonymous": false,
      "inputs": [
        {
          "indexed": true,
          "internalType": "address",
          "name": "_from",
          "type": "address"
        },
        {
          "indexed": false,
          "internalType": "uint256",
          "name": "_amount",
          "type": "uint256"
        },
        {
          "indexed": false,
          "internalType": "uint256",
          "name": "_timestamp",
          "type": "uint256"
        }
      ],
      "name": "Paid",
      "type": "event"
    },
    {
      "inputs": [],
      "name": "getBalance",
      "outputs": [
        {
          "internalType": "uint256",
          "name": "",
          "type": "uint256"
        }
      ],
      "stateMutability": "view",
      "type": "function"
    },
    {
      "inputs": [
        {
          "internalType": "address[]",
          "name": "_recivers",
          "type": "address[]"
        },
        {
          "internalType": "address[]",
          "name": "_tokenAddresses",
          "type": "address[]"
        },
        {
          "internalType": "uint256[]",
          "name": "_tokenAmounts",
          "type": "uint256[]"
        }
      ],
      "name": "multiTransfer",
      "outputs": [],
      "stateMutability": "payable",
      "type": "function"
    },
    {
      "inputs": [],
      "name": "owner",
      "outputs": [
        {
          "internalType": "address",
          "name": "",
          "type": "address"
        }
      ],
      "stateMutability": "view",
      "type": "function"
    },
    {
      "inputs": [],
      "name": "pay",
      "outputs": [],
      "stateMutability": "payable",
      "type": "function"
    },
    {
      "stateMutability": "payable",
      "type": "receive"
    }
  ],
  "bytecode": "0x60803461007457601f61082a38819003918201601f19168301916001600160401b038311848410176100795780849260209460405283398101031261007457516001600160a01b0381169081900361007457600080546001600160a01b03191691909117905560405161079a90816100908239f35b600080fd5b634e487b7160e01b600052604160045260246000fdfe60806040526004361015610023575b361561001957600080fd5b610021610275565b005b6000803560e01c90816312065fe01461007a5781631b9265b814610061575080638da5cb5b1461005c5763cd72250d0361000e576101bd565b610094565b8060031936011261007757610074610275565b80f35b80fd5b346100775780600319360112610077574760805260206080f35b346100bd5760003660031901126100bd576000546040516001600160a01b039091168152602090f35b600080fd5b634e487b7160e01b600052604160045260246000fd5b6080810190811067ffffffffffffffff8211176100f457604052565b6100c2565b6040810190811067ffffffffffffffff8211176100f457604052565b90601f8019910116810190811067ffffffffffffffff8211176100f457604052565b67ffffffffffffffff81116100f45760051b60200190565b81601f820112156100bd5780359161016683610137565b926101746040519485610115565b808452602092838086019260051b8201019283116100bd578301905b82821061019e575050505090565b81356001600160a01b03811681036100bd578152908301908301610190565b60603660031901126100bd5767ffffffffffffffff6004358181116100bd576101ea90369060040161014f565b906024358181116100bd5761020390369060040161014f565b6044359182116100bd57366023830112156100bd5781600401359261022784610137565b926102356040519485610115565b84845260209460248686019160051b830101913683116100bd57602401905b828210610266576100218686866102a9565b81358152908601908601610254565b6040513481524260208201527fdf9a51129930649214df58f542322c245372c6f2fa6fc3c9b40d927c597cd23060403392a2565b60005491939290916001600160a01b0316330361037d576102cd84518251146103ba565b6102da84518351146103ba565b60005b845181101561037657806103136103076102fa610340948961042a565b516001600160a01b031690565b6001600160a01b031690565b6103455761033b61032a6103076102fa848861042a565b610334838661042a565b519061060e565b610405565b6102dd565b61033b6103586103076102fa848a61042a565b6103656102fa848861042a565b61036f848761042a565b5191610454565b5050509050565b60405162461bcd60e51b81526020600482015260156024820152742cb7ba9030b932903737ba103a34329037bbb732b960591b6044820152606490fd5b156103c157565b606460405162461bcd60e51b815260206004820152602060248201527f417272617973206d7573742068617665207468652073616d65206c656e6774686044820152fd5b60001981146104145760010190565b634e487b7160e01b600052601160045260246000fd5b805182101561043e5760209160051b010190565b634e487b7160e01b600052603260045260246000fd5b60405163a9059cbb60e01b60208083019182526001600160a01b03948516602484015260448084019690965294825290929091610490846100d8565b16906040519261049f846100f9565b8484527f5361666545524332303a206c6f772d6c6576656c2063616c6c206661696c656485850152823b15610512576104eb939260009283809351925af16104e56105ce565b906106e9565b805190816104f857505050565b826105109361050b938301019101610557565b61056f565b565b60405162461bcd60e51b815260048101869052601d60248201527f416464726573733a2063616c6c20746f206e6f6e2d636f6e74726163740000006044820152606490fd5b908160209103126100bd575180151581036100bd5790565b1561057657565b60405162461bcd60e51b815260206004820152602a60248201527f5361666545524332303a204552433230206f7065726174696f6e20646964206e6044820152691bdd081cdd58d8d9595960b21b6064820152608490fd5b3d15610609573d9067ffffffffffffffff82116100f457604051916105fd601f8201601f191660200184610115565b82523d6000602084013e565b606090565b8147106106a4576000918291829182916001600160a01b03165af16106316105ce565b501561063957565b60405162461bcd60e51b815260206004820152603a60248201527f416464726573733a20756e61626c6520746f2073656e642076616c75652c207260448201527f6563697069656e74206d617920686176652072657665727465640000000000006064820152608490fd5b60405162461bcd60e51b815260206004820152601d60248201527f416464726573733a20696e73756666696369656e742062616c616e63650000006044820152606490fd5b909190156106f5575090565b8151156107055750805190602001fd5b6040519062461bcd60e51b82528160208060048301528251908160248401526000935b82851061074b575050604492506000838284010152601f80199101168101030190fd5b848101820151868601604401529381019385935061072856fea264697066735822122060555dc8e10dce7d7d6e3e1a4e2f44d4de56d3ebdece296c24ffaa6553a61a1564736f6c63430008120033",
  "linkReferences": {},
  "deployedLinkReferences": {}
}