{
  "_format": "hh-sol-artifact-1",
  "contractName": "Greeter",
  "sourceName": "contracts/Greeter.sol",
  "abi": [
    {
      "inputs": [
        {
          "internalType": "string",
          "name": "_greeting",
          "type": "string"
        }
      ],
      "stateMutability": "nonpayable",
      "type": "constructor"
    },
    {
      "anonymous": false,
      "inputs": [
        {
          "indexed": false,
          "internalType": "string",
          "name": "greeting",
          "type": "string"
        }
      ],
      "name": "SetGreeting",
      "type": "event"
    },
    {
      "inputs": [],
      "name": "greet",
      "outputs": [
        {
          "internalType": "string",
          "name": "",
          "type": "string"
        }
      ],
      "stateMutability": "view",
      "type": "function"
    },
    {
      "inputs": [
        {
          "internalType": "string",
          "name": "_greeting",
          "type": "string"
        }
      ],
      "name": "setGreeting",
      "outputs": [],
      "stateMutability": "nonpayable",
      "type": "function"
    }
  ],
  "bytecode": "0x6080604052346101f55761066380380380610019816101fa565b928339810190602080828403126101f55781516001600160401b03928382116101f5570192601f908082860112156101f55784518481116101cb57601f1995610067828501881686016101fa565b928284528583830101116101f557849060005b8381106101e15750506000918301015280519384116101cb57600054926001938481811c911680156101c1575b828210146101ab57838111610165575b50809285116001146101005750839450908392916000946100f5575b50501b916000199060031b1c1916176000555b60405161044390816102208239f35b0151925038806100d3565b9294849081166000805284600020946000905b8883831061014b5750505010610132575b505050811b016000556100e6565b015160001960f88460031b161c19169055388080610124565b858701518855909601959485019487935090810190610113565b60008052816000208480880160051c8201928489106101a2575b0160051c019085905b8281106101965750506100b7565b60008155018590610188565b9250819261017f565b634e487b7160e01b600052602260045260246000fd5b90607f16906100a7565b634e487b7160e01b600052604160045260246000fd5b81810183015185820184015286920161007a565b600080fd5b6040519190601f01601f191682016001600160401b038111838210176101cb5760405256fe608080604052600436101561001357600080fd5b600090813560e01c908163a413686214610118575063cfae32171461003757600080fd5b3461011557806003193601126101155760405190808054610057816103d3565b808552916001918083169081156100eb5750600114610091575b61008d8561008181870382610352565b6040519182918261038a565b0390f35b80809450527f290decd9548b62a8d60345a988386fc84ba6bc95484008f6362f93160ef3e5635b8284106100d35750505081016020016100818261008d610071565b805460208587018101919091529093019281016100b8565b86955061008d9693506020925061008194915060ff191682840152151560051b8201019293610071565b80fd5b8234610115576020918260031936011261034e5760043567ffffffffffffffff9384821161034a573660238301121561034a57816004013585811161033657601f199261016c601f83018516840186610352565b81855236602483830101116103325781869260248593018388013785010152825194851161031e5761019e84546103d3565b601f81116102bd575b508091601f861160011461021757505090838394610206937f4dabe8361a35a905ec9d530e301d2e5c6cf44c65cdd7768f522a77a373436da9959161020c575b508160011b916000199060031b1c19161784556040519182918261038a565b0390a180f35b9050820151866101e7565b85929192168480527f290decd9548b62a8d60345a988386fc84ba6bc95484008f6362f93160ef3e5639285905b8282106102a5575050946102069392600192827f4dabe8361a35a905ec9d530e301d2e5c6cf44c65cdd7768f522a77a373436da997981061028c575b5050811b018455610081565b84015160001960f88460031b161c191690558680610280565b80600185968294968901518155019501930190610244565b8480527f290decd9548b62a8d60345a988386fc84ba6bc95484008f6362f93160ef3e563601f870160051c810191838810610314575b601f0160051c01905b81811061030957506101a7565b8581556001016102fc565b90915081906102f3565b634e487b7160e01b84526041600452602484fd5b8580fd5b634e487b7160e01b85526041600452602485fd5b8380fd5b5080fd5b90601f8019910116810190811067ffffffffffffffff82111761037457604052565b634e487b7160e01b600052604160045260246000fd5b6020808252825181830181905290939260005b8281106103bf57505060409293506000838284010152601f8019910116010190565b81810186015184820160400152850161039d565b90600182811c92168015610403575b60208310146103ed57565b634e487b7160e01b600052602260045260246000fd5b91607f16916103e256fea26469706673582212205202fe51dd83dc87143aaf4812eb74f95b34eec3501aa105dcaf98250fae7bda64736f6c63430008120033",
  "linkReferences": {},
  "deployedLinkReferences": {}
}