{
  "_format": "hh-sol-artifact-1",
  "contractName": "GCaller",
  "sourceName": "contracts/Caller.sol",
  "abi": [
    {
      "inputs": [
        {
          "internalType": "address",
          "name": "_callAddress",
          "type": "address"
        }
      ],
      "stateMutability": "nonpayable",
      "type": "constructor"
    },
    {
      "inputs": [],
      "name": "callAddress",
      "outputs": [
        {
          "internalType": "address",
          "name": "",
          "type": "address"
        }
      ],
      "stateMutability": "view",
      "type": "function"
    },
    {
      "inputs": [],
      "name": "myAddress",
      "outputs": [
        {
          "internalType": "address",
          "name": "",
          "type": "address"
        }
      ],
      "stateMutability": "view",
      "type": "function"
    },
    {
      "inputs": [],
      "name": "newCallGreeter",
      "outputs": [
        {
          "internalType": "string",
          "name": "",
          "type": "string"
        }
      ],
      "stateMutability": "view",
      "type": "function"
    },
    {
      "inputs": [
        {
          "internalType": "string",
          "name": "_greeting",
          "type": "string"
        }
      ],
      "name": "newSetGreet",
      "outputs": [],
      "stateMutability": "nonpayable",
      "type": "function"
    }
  ],
  "bytecode": "0x60803461013357601f61058138819003918201601f19168301916001600160401b038311848410176101385780849260209460405283398101031261013357516001600160a01b0381169081900361013357600254906001918281811c91168015610129575b602082101461011357601f81116100c6575b507f48692066726f6d2043616c6c657200000000000000000000000000000000001c600255600080546001600160a01b03199081163017909155825416179055604051610432908161014f8239f35b6002600052601f0160051c7f405787fa12a823e0f2b7631cc41b3ba8828b3321ca811111fa75cd3aa3bb5ace9081019083905b828110610107575050610077565b600081550183906100f9565b634e487b7160e01b600052602260045260246000fd5b90607f1690610065565b600080fd5b634e487b7160e01b600052604160045260246000fdfe608060408181526004908136101561001657600080fd5b600092833560e01c90816326b85ee114610335575080633e23ee431461030c57806349900eec1461013a576370225fc71461005057600080fd5b3461013657826003193601126101365760015481516335ed0a4760e21b815292849184919082906001600160a01b03165afa91821561012c5783926100a1575b81518061009d85826103d0565b0390f35b9091503d8084833e6100b38183610359565b8101906020818303126101245780519067ffffffffffffffff8211610128570181601f82011215610124578051936100ea85610391565b926100f785519485610359565b85845260208684010111610121575061009d9361011a91602080850191016103ad565b9038610090565b80fd5b8380fd5b8480fd5b81513d85823e3d90fd5b8280fd5b5082903461030857602092836003193601126101365767ffffffffffffffff81358181116101285736602382011215610128578083013561017a81610391565b9161018786519384610359565b81835236602483830101116103045781879260248a93018386013783010152805115610228578495505b6001546001600160a01b031690813b156102245785916101e5918651978880948193639698086b60e01b83528983016103d0565b03925af1801561021a576101f7578480f35b8311610207575052818080808480f35b634e487b7160e01b845260419052602483fd5b83513d87823e3d90fd5b8580fd5b5082518495600254600181811c9181811680156102fa575b84841081146102e7578386529081156102c95750600114610271575b50505061026c8186970382610359565b6101b1565b6002885291975086917f405787fa12a823e0f2b7631cc41b3ba8828b3321ca811111fa75cd3aa3bb5ace5b8284106102b65750505081869761026c928201019761025c565b80548585018b015292890192810161029c565b60ff1916858501525050151560051b820101955061026c818661025c565b634e487b7160e01b8a526022885260248afd5b92607f1692610240565b8680fd5b5080fd5b83823461030857816003193601126103085760015490516001600160a01b039091168152602090f35b84903461030857816003193601126103085790546001600160a01b03168152602090f35b90601f8019910116810190811067ffffffffffffffff82111761037b57604052565b634e487b7160e01b600052604160045260246000fd5b67ffffffffffffffff811161037b57601f01601f191660200190565b60005b8381106103c05750506000910152565b81810151838201526020016103b0565b604091602082526103f081518092816020860152602086860191016103ad565b601f01601f191601019056fea264697066735822122023ed7494a3c851b54638a538e10284a07eb2354f9ff1fd3f11d3ecdb081936c464736f6c63430008120033",
  "linkReferences": {},
  "deployedLinkReferences": {}
}