{
  "_format": "hh-sol-artifact-1",
  "contractName": "BootloaderUtilities",
  "sourceName": "@matterlabs/zksync-contracts/l2/system-contracts/BootloaderUtilities.sol",
  "abi": [
    {
      "inputs": [
        {
          "components": [
            {
              "internalType": "uint256",
              "name": "txType",
              "type": "uint256"
            },
            {
              "internalType": "uint256",
              "name": "from",
              "type": "uint256"
            },
            {
              "internalType": "uint256",
              "name": "to",
              "type": "uint256"
            },
            {
              "internalType": "uint256",
              "name": "gasLimit",
              "type": "uint256"
            },
            {
              "internalType": "uint256",
              "name": "gasPerPubdataByteLimit",
              "type": "uint256"
            },
            {
              "internalType": "uint256",
              "name": "maxFeePerGas",
              "type": "uint256"
            },
            {
              "internalType": "uint256",
              "name": "maxPriorityFeePerGas",
              "type": "uint256"
            },
            {
              "internalType": "uint256",
              "name": "paymaster",
              "type": "uint256"
            },
            {
              "internalType": "uint256",
              "name": "nonce",
              "type": "uint256"
            },
            {
              "internalType": "uint256",
              "name": "value",
              "type": "uint256"
            },
            {
              "internalType": "uint256[4]",
              "name": "reserved",
              "type": "uint256[4]"
            },
            {
              "internalType": "bytes",
              "name": "data",
              "type": "bytes"
            },
            {
              "internalType": "bytes",
              "name": "signature",
              "type": "bytes"
            },
            {
              "internalType": "bytes32[]",
              "name": "factoryDeps",
              "type": "bytes32[]"
            },
            {
              "internalType": "bytes",
              "name": "paymasterInput",
              "type": "bytes"
            },
            {
              "internalType": "bytes",
              "name": "reservedDynamic",
              "type": "bytes"
            }
          ],
          "internalType": "struct Transaction",
          "name": "_transaction",
          "type": "tuple"
        }
      ],
      "name": "getTransactionHashes",
      "outputs": [
        {
          "internalType": "bytes32",
          "name": "txHash",
          "type": "bytes32"
        },
        {
          "internalType": "bytes32",
          "name": "signedTxHash",
          "type": "bytes32"
        }
      ],
      "stateMutability": "view",
      "type": "function"
    }
  ],
  "bytecode": "0x60808060405234610016576114e4908161001c8239f35b600080fdfe6080604052600436101561001257600080fd5b6000803560e01c63ebe4a3d71461002857600080fd5b346101205760031960203682011261012357600435916001600160401b0383116101205761026083600401928436030112610120575061006781610e4a565b918135607181036100ad5750610088610094926101e461008e930190610127565b90610a6a565b826101b5565b602081519101205b604080519182526020820192909252f35b9050806100c357506100be906103f5565b61009c565b600281036100d557506100be90610889565b6001036100e5576100be90610671565b60405162461bcd60e51b8152602060048201526013602482015272556e737570706f72746564207478207479706560681b6044820152606490fd5b80fd5b5080fd5b903590601e198136030182121561015957018035906001600160401b0382116101595760200191813603831361015957565b600080fd5b634e487b7160e01b600052604160045260246000fd5b604081019081106001600160401b0382111761018f57604052565b61015e565b90601f801991011681019081106001600160401b0382111761018f57604052565b9190604051926020840152604083015260408252606082018281106001600160401b0382111761018f57604052565b9081519160005b8381106101fc575050016000815290565b80602080928401015181850152016101eb565b61023f9061023161022b949360405195869360208501906101e4565b906101e4565b03601f198101845283610194565b565b634e487b7160e01b600052603260045260246000fd5b90156102605790565b610241565b90604010156102605760400190565b6001600160401b03811161018f57601f01601f191660200190565b6040519061029c82610174565b60018252608160f81b6020830152565b906020116101595790602090565b906040116101595760200190602090565b3590602081106102d9575090565b6000199060200360031b1b1690565b156102ef57565b60405162461bcd60e51b815260206004820152600f60248201526e496e76616c696420762076616c756560881b6044820152606490fd5b634e487b7160e01b600052601160045260246000fd5b908160011b918083046002149015171561035257565b610326565b600801908160081161035257565b9190820180921161035257565b989694919285939b9a989694919b6040519c8d9b60208d01610393916101e4565b61039c916101e4565b6103a5916101e4565b6103ae916101e4565b6103b7916101e4565b6103c0916101e4565b91823701600081526103d1916101e4565b6103da916101e4565b6103e3916101e4565b03601f198101835261023f9083610194565b610403610100820135610bfe565b61042661041360a0840135610bfe565b6104206060850135610bfe565b9061020f565b9161043d60408201356001600160a01b0316610bba565b9061044c610120820135610bfe565b926101c082019160606001600160401b036104678584610127565b9050166001811415600014610598576104809150610c81565b6101e08201956104908784610127565b610499916102ac565b6104a2916102cb565b6104ab90610bfe565b956104b68885610127565b6104bf916102ba565b6104c8916102cb565b6104d190610bfe565b976104dc9085610127565b6104e591610265565b610564999061055c90610519903560f81c601b8114801561058e575b61050a906102e8565b61014088013561056e57610bfe565b976105566105518951855101865101875101885101610538848b610127565b90508d519101018d51018b51016001600160401b031690565b610d32565b96610127565b969095610372565b6020815191012090565b6105899061058361057e4661033c565b610357565b90610365565b610bfe565b50601c8114610501565b506105a38483610127565b600160ff1b916001600160f81b0319916105cf916105c19190610257565b356001600160f81b03191690565b161061048057506105de61028f565b610480565b9261023f9461022b61022b9261022b6102319661022b61022b9c9b976040519d8e9b60208d01906101e4565b601a1981019190821161035257565b969492909897959380926040519a8b99600160f81b60208c015260218b01610645916101e4565b61064e916101e4565b610657916101e4565b9182370160008152610668916101e4565b6103d1916101e4565b6106d161067d46610bfe565b61068b610100840135610bfe565b61069860a0850135610bfe565b6106a56060860135610bfe565b906106bc60408701356001600160a01b0316610bba565b926106cb610120880135610bfe565b946105e3565b6101c082019160606001600160401b036106eb8584610127565b9050169060018214156000146107ec575061070590610c81565b925b61070f610d1e565b6101e083019361071f8585610127565b610728916102ac565b610731916102cb565b61073a90610bfe565b936107458682610127565b61074e916102ba565b610757916102cb565b61076090610bfe565b9561076b9082610127565b61077491610265565b61056497906107da906107a290610589903560f81c601b811480156107e2575b61079d906102e8565b61060f565b956107d461055186518551016107b88488610127565b905089519101018a51018b51018951016001600160401b031690565b93610127565b93909261061e565b50601c8114610794565b9390506107f98183610127565b600160ff1b916001600160f81b031991610817916105c19190610257565b161061070757925061082761028f565b92610707565b9492909695939160405197889660208801610847916101e4565b610850916101e4565b610859916101e4565b610668916101e4565b969492909897959380926040519a8b99600160f91b60208c015260218b01610645916101e4565b6108f661089546610bfe565b6108a3610100840135610bfe565b6108b060c0850135610bfe565b6108bd60a0860135610bfe565b6108ca6060870135610bfe565b916108e160408801356001600160a01b0316610bba565b936108f0610120890135610bfe565b9561082d565b6101c082019160606001600160401b036109108584610127565b9050169060018214156000146109c9575061092a90610c81565b925b610934610d1e565b6101e08301936109448585610127565b61094d916102ac565b610956916102cb565b61095f90610bfe565b9361096a8682610127565b610973916102ba565b61097c916102cb565b61098590610bfe565b956109909082610127565b61099991610265565b61056497906109c1906107a290610589903560f81c601b811480156107e25761079d906102e8565b939092610862565b9390506109d68183610127565b600160ff1b916001600160f81b0319916109f4916105c19190610257565b161061092c579250610a0461028f565b9261092c565b15610a1157565b60405162461bcd60e51b815260206004820152601f60248201527f6b656363616b3235362072657475726e656420696e76616c69642064617461006044820152606490fd5b6020815191015190602081106102d9575090565b905a9160009061ffff928280858161ffeb81fa5080610b16575050610a9463ffffffff3616610e35565b63ffffffff8311610ae657610ae392610ad1928291610ac49060c01b63ffffffff60c01b16600160e01b17610e26565b8161fff6618010fa610b96565b610ade6020825114610a0a565b610a56565b90565b60405162461bcd60e51b81526020600482015260086024820152674f766572666c6f7760c01b6044820152606490fd5b63ffffffff918380868161ffe9878616fa5081018091116103525736039036821161035257610b459116610e35565b610a94565b60405190610b5782610174565b6001825260203681840137565b90610b6e82610274565b610b7b6040519182610194565b8281528092610b8c601f1991610274565b0190602036910137565b15610bb0573d90610ba682610b64565b916000602084013e565b3d806000803e6000fd5b90604051610bc781610174565b60158152602560fa1b602082015260609290921b6bffffffffffffffffffffffff19166021830152565b8051156102605760200190565b906080821015610c3e57610c10610b4a565b9180610c2c5750600160ff1b5b60001a610c2983610bf1565b53565b60f81b6001600160f81b031916610c1d565b610c4782610d9e565b91610c5460028401610b64565b926081810160f81b6001600160f81b03191660001a610c7285610bf1565b53601f0360031b1b6021830152565b6001600160401b031660018114610d08576038811015610cc457610ca3610b4a565b9060800160f81b6001600160f81b03191660001a610cc082610bf1565b5390565b610ccd81610d9e565b90610cda60028301610b64565b9160b8810160f81b6001600160f81b03191660001a610cf884610bf1565b53601f0360031b1b602182015290565b634e487b7160e01b600052600160045260246000fd5b610d26610b4a565b9060c0610c2983610bf1565b6001600160401b0316906038821015610d6a57610d4d610b4a565b9160c00160f81b6001600160f81b03191660001a610c2983610bf1565b610d7382610d9e565b91610d8060028401610b64565b9260f8808201901b6001600160f81b03191660001a610c7285610bf1565b906000916fffffffffffffffffffffffffffffffff8111610e1a575b806001600160401b0360ff9211610e0c575b63ffffffff8111610dfe575b61ffff8111610df0575b11610de957565b9060010190565b60029060101c930192610de2565b60049060201c930192610dd8565b60089060401c930192610dcc565b6010925060801c610dba565b600061ffff8161ffe78194fa50565b600061ffff8161ffe863ffffffff829516fa50565b803580610e5b5750610ae3906111c7565b60718103610e6d5750610ae390610f24565b60028103610e7f5750610ae39061141b565b600103610e8f57610ae39061132e565b60405162461bcd60e51b815260206004820152601760248201527f456e636f64696e6720756e737570706f727465642074780000000000000000006044820152606490fd5b903590601e198136030182121561015957018035906001600160401b03821161015957602001918160051b3603831361015957565b91906001600160fb1b0381116101595760051b809282370190565b611127611133610f6292610f3f6100886101c0830183610127565b61105f610f50610200840184610ed4565b60405197602089019289928491610f09565b0396610f76601f1998898101835282610194565b51902091611053610f8e610088610220870187610127565b6040519485936020850197610120810135906101008101359060e08101359060c0810135908c60a0820135916080810135916060820135916040810135916020820135913590999693909d9c9b9895926101a09b9895926101c08c019f7f848e1bfa1ac4e3576b728bda6721b215c70a7799a5b4866282a71bab954baac88d5260208d015260408c015260608b015260808a015260a089015260c088015260e08701526101008601526101208501526101408401526101608301526101808201520152565b03868101835282610194565b5190209260405160208101906110fc816110f046859190606060808401937fc2f8787176b8ac6bf7215b4adcc1e069bf4ab82d9ab1df05a57a91d425935b6e81527f19b453ce45aaaaf3a300f5a9ec95869b4f28ab10430b572ee218c3a6a5e07d6f60208201527fad7c5bef027816a800da1736444fb58a807ef4c9603b7848673f7e3a68eb14a560408201520152565b03848101835282610194565b51902093604051938491602083019687909160429261190160f01b8352600283015260228201520190565b03908101835282610194565b51902090565b9061023f60026111539360405194859160208301906101e4565b61010160f71b815203601d19810185520183610194565b9694919285939998969491996040519a8b9960208b01611189916101e4565b611192916101e4565b61119b916101e4565b6111a4916101e4565b6111ad916101e4565b6111b6916101e4565b91823701600081526103e3916101e4565b610564906111d9610100820135610bfe565b6111e961041360a0840135610bfe565b9161120060408201356001600160a01b0316610bba565b9261120f610120830135610bfe565b6101c083019460606001600160401b036112298887610127565b9050169060018214156000146112ae575061124390610c81565b925b606096610140860135611290575b611288906105566105518951855101865101875101885101611275848b610127565b90508c519101016001600160401b031690565b96909561116a565b96506112886112a66112a146610bfe565b611139565b979050611253565b9390506112bb8786610127565b600160ff1b916001600160f81b0319916112d9916105c19190610257565b16106112455792506112e961028f565b92611245565b929361023f94816113206102319561022b61022b9b9a966040519c8d9a600160f81b60208d015260218c01906101e4565b9182370190600082526101e4565b6105649061133e61067d46610bfe565b6101c082019160606001600160401b036113588584610127565b90501660018114156000146113ad576113719150610c81565b6113a561137c610d1e565b946107d461055186518551016113928488610127565b905089519101016001600160401b031690565b9390926112ef565b506113b88483610127565b600160ff1b916001600160f81b0319916113d6916105c19190610257565b161061137157506113e561028f565b611371565b929361023f94816113206102319561022b61022b9b9a966040519c8d9a600160f91b60208d015260218c01906101e4565b6105649061142b61089546610bfe565b6101c082019160606001600160401b036114458584610127565b90501660018114156000146114715761145e9150610c81565b61146961137c610d1e565b9390926113ea565b5061147c8483610127565b600160ff1b916001600160f81b03199161149a916105c19190610257565b161061145e57506114a961028f565b61145e56fea26469706673582212201ec62201581e0bc2ce1269f0fb33fcd1a9bb5abf856e4634e565726ba47cf39864736f6c63430008120033",
  "linkReferences": {},
  "deployedLinkReferences": {}
}