{
  "_format": "hh-sol-artifact-1",
  "contractName": "Middle",
  "sourceName": "contracts/Middle.sol",
  "abi": [
    {
      "inputs": [
        {
          "internalType": "address",
          "name": "_myAddress",
          "type": "address"
        }
      ],
      "stateMutability": "nonpayable",
      "type": "constructor"
    },
    {
      "inputs": [],
      "name": "callGreeter",
      "outputs": [
        {
          "internalType": "string",
          "name": "",
          "type": "string"
        }
      ],
      "stateMutability": "view",
      "type": "function"
    },
    {
      "inputs": [],
      "name": "myAddress",
      "outputs": [
        {
          "internalType": "address",
          "name": "",
          "type": "address"
        }
      ],
      "stateMutability": "view",
      "type": "function"
    },
    {
      "inputs": [
        {
          "internalType": "string",
          "name": "newGreeting",
          "type": "string"
        }
      ],
      "name": "setGreet",
      "outputs": [],
      "stateMutability": "nonpayable",
      "type": "function"
    }
  ],
  "bytecode": "0x60803461007457601f6103aa38819003918201601f19168301916001600160401b038311848410176100795780849260209460405283398101031261007457516001600160a01b0381169081900361007457600080546001600160a01b03191691909117905560405161031a90816100908239f35b600080fd5b634e487b7160e01b600052604160045260246000fdfe608060408181526004908136101561001657600080fd5b600092833560e01c90816326b85ee11461021957508381639698086b14610130575063d7b4291c1461004757600080fd5b3461012c578260031936011261012c578254815163cfae321760e01b815292849184919082906001600160a01b03165afa918215610122578392610097575b81518061009385826102b8565b0390f35b9091503d8084833e6100a98183610241565b81019060208183031261011a5780519067ffffffffffffffff821161011e570181601f8201121561011a578051936100e085610279565b926100ed85519485610241565b858452602086840101116101175750610093936101109160208085019101610295565b9038610086565b80fd5b8380fd5b8480fd5b81513d85823e3d90fd5b8280fd5b929050346102155760203660031901126102155767ffffffffffffffff813581811161011e573660238201121561011e578083013561016e81610279565b9161017b86519384610241565b818352366024838301011161021157818792602460209301838601378301015284546001600160a01b031690813b1561020d5785916101ce918651978880948193635209b43160e11b83528983016102b8565b03925af18015610203576101e0578480f35b83116101f0575052388080808480f35b634e487b7160e01b845260419052602483fd5b83513d87823e3d90fd5b8580fd5b8680fd5b5050fd5b84903461023d578160031936011261023d5790546001600160a01b03168152602090f35b5080fd5b90601f8019910116810190811067ffffffffffffffff82111761026357604052565b634e487b7160e01b600052604160045260246000fd5b67ffffffffffffffff811161026357601f01601f191660200190565b60005b8381106102a85750506000910152565b8181015183820152602001610298565b604091602082526102d88151809281602086015260208686019101610295565b601f01601f191601019056fea26469706673582212209f246326f8c7ff4969b718fee6aaa69dd577ca0da481df5e161edd6e211be7ba64736f6c63430008120033",
  "linkReferences": {},
  "deployedLinkReferences": {}
}