{
  "_format": "hh-sol-artifact-1",
  "contractName": "MyPaymaster",
  "sourceName": "contracts/MyPaymaster.sol",
  "abi": [
    {
      "inputs": [
        {
          "internalType": "address",
          "name": "_erc20",
          "type": "address"
        }
      ],
      "stateMutability": "nonpayable",
      "type": "constructor"
    },
    {
      "inputs": [],
      "name": "allowedToken",
      "outputs": [
        {
          "internalType": "address",
          "name": "",
          "type": "address"
        }
      ],
      "stateMutability": "view",
      "type": "function"
    },
    {
      "inputs": [
        {
          "internalType": "bytes",
          "name": "_context",
          "type": "bytes"
        },
        {
          "components": [
            {
              "internalType": "uint256",
              "name": "txType",
              "type": "uint256"
            },
            {
              "internalType": "uint256",
              "name": "from",
              "type": "uint256"
            },
            {
              "internalType": "uint256",
              "name": "to",
              "type": "uint256"
            },
            {
              "internalType": "uint256",
              "name": "gasLimit",
              "type": "uint256"
            },
            {
              "internalType": "uint256",
              "name": "gasPerPubdataByteLimit",
              "type": "uint256"
            },
            {
              "internalType": "uint256",
              "name": "maxFeePerGas",
              "type": "uint256"
            },
            {
              "internalType": "uint256",
              "name": "maxPriorityFeePerGas",
              "type": "uint256"
            },
            {
              "internalType": "uint256",
              "name": "paymaster",
              "type": "uint256"
            },
            {
              "internalType": "uint256",
              "name": "nonce",
              "type": "uint256"
            },
            {
              "internalType": "uint256",
              "name": "value",
              "type": "uint256"
            },
            {
              "internalType": "uint256[4]",
              "name": "reserved",
              "type": "uint256[4]"
            },
            {
              "internalType": "bytes",
              "name": "data",
              "type": "bytes"
            },
            {
              "internalType": "bytes",
              "name": "signature",
              "type": "bytes"
            },
            {
              "internalType": "bytes32[]",
              "name": "factoryDeps",
              "type": "bytes32[]"
            },
            {
              "internalType": "bytes",
              "name": "paymasterInput",
              "type": "bytes"
            },
            {
              "internalType": "bytes",
              "name": "reservedDynamic",
              "type": "bytes"
            }
          ],
          "internalType": "struct Transaction",
          "name": "_transaction",
          "type": "tuple"
        },
        {
          "internalType": "bytes32",
          "name": "",
          "type": "bytes32"
        },
        {
          "internalType": "bytes32",
          "name": "",
          "type": "bytes32"
        },
        {
          "internalType": "enum ExecutionResult",
          "name": "_txResult",
          "type": "uint8"
        },
        {
          "internalType": "uint256",
          "name": "_maxRefundedGas",
          "type": "uint256"
        }
      ],
      "name": "postTransaction",
      "outputs": [],
      "stateMutability": "payable",
      "type": "function"
    },
    {
      "inputs": [
        {
          "internalType": "bytes32",
          "name": "",
          "type": "bytes32"
        },
        {
          "internalType": "bytes32",
          "name": "",
          "type": "bytes32"
        },
        {
          "components": [
            {
              "internalType": "uint256",
              "name": "txType",
              "type": "uint256"
            },
            {
              "internalType": "uint256",
              "name": "from",
              "type": "uint256"
            },
            {
              "internalType": "uint256",
              "name": "to",
              "type": "uint256"
            },
            {
              "internalType": "uint256",
              "name": "gasLimit",
              "type": "uint256"
            },
            {
              "internalType": "uint256",
              "name": "gasPerPubdataByteLimit",
              "type": "uint256"
            },
            {
              "internalType": "uint256",
              "name": "maxFeePerGas",
              "type": "uint256"
            },
            {
              "internalType": "uint256",
              "name": "maxPriorityFeePerGas",
              "type": "uint256"
            },
            {
              "internalType": "uint256",
              "name": "paymaster",
              "type": "uint256"
            },
            {
              "internalType": "uint256",
              "name": "nonce",
              "type": "uint256"
            },
            {
              "internalType": "uint256",
              "name": "value",
              "type": "uint256"
            },
            {
              "internalType": "uint256[4]",
              "name": "reserved",
              "type": "uint256[4]"
            },
            {
              "internalType": "bytes",
              "name": "data",
              "type": "bytes"
            },
            {
              "internalType": "bytes",
              "name": "signature",
              "type": "bytes"
            },
            {
              "internalType": "bytes32[]",
              "name": "factoryDeps",
              "type": "bytes32[]"
            },
            {
              "internalType": "bytes",
              "name": "paymasterInput",
              "type": "bytes"
            },
            {
              "internalType": "bytes",
              "name": "reservedDynamic",
              "type": "bytes"
            }
          ],
          "internalType": "struct Transaction",
          "name": "_transaction",
          "type": "tuple"
        }
      ],
      "name": "validateAndPayForPaymasterTransaction",
      "outputs": [
        {
          "internalType": "bytes4",
          "name": "magic",
          "type": "bytes4"
        },
        {
          "internalType": "bytes",
          "name": "context",
          "type": "bytes"
        }
      ],
      "stateMutability": "payable",
      "type": "function"
    },
    {
      "stateMutability": "payable",
      "type": "receive"
    }
  ],
  "bytecode": "0x60803461007457601f61083038819003918201601f19168301916001600160401b038311848410176100795780849260209460405283398101031261007457516001600160a01b0381169081900361007457600080546001600160a01b0319169190911790556040516107a090816100908239f35b600080fd5b634e487b7160e01b600052604160045260246000fdfe60406080815260048036101561001f575b5050361561001d57600080fd5b005b600090813560e01c928363038a24bc1461005c575050508063817b17f014610057576385fa292f14610052573880610010565b6103ff565b61039d565b60603660031901126103265760443567ffffffffffffffff811161032257610087903690840161032a565b9261022084016100a48461009b8388610428565b9050101561045b565b6100b76100b18287610428565b906104cd565b6325250c7760e21b916001600160e01b0319916100d3916104f8565b16036102d7576100f06100e96100f89287610428565b80916104db565b81019061057d565b5082546001600160a01b0396919287169061011690881682146105ff565b8451636eb1769f60e11b81526001600160a01b0360208481013590991690811688830190815230818b015290949192908990849081906040010381845afa9384156102d2578661018a8a9261017b60016101c6998f9986916102a5575b501015610656565b606060a082013591013561069a565b89516323b872dd60e01b81526001600160a01b039098169288019283523060208401526040830194909452929594859384929091839160600190565b03925af19081610278575b5061024e5750506101e06106db565b80519383851161024857825162461bcd60e51b81526020818601818152602a918101919091527f4661696c656420746f207472616e7366657246726f6d2066726f6d20757365726040820152691cc9c81858d8dbdd5b9d60b21b606082015281906080010390fd5b84925001fd5b90808080610269946180015af16102636106db565b5061070b565b51806102748161033e565b0390f35b61029790873d891161029e575b61028f818361053a565b8101906106c3565b50866101d1565b503d610285565b6102c591508a3d8c116102cb575b6102bd818361053a565b81019061063b565b38610173565b503d6102b3565b61064a565b825162461bcd60e51b81526020818601818152601a918101919091527f556e737570706f72746564207061796d617374657220666c6f77000000000000604082015281906060010390fd5b8380fd5b8280fd5b90816102609103126103395790565b600080fd5b62e2892f60e21b815260209060408282015260609182519081604084015260005b82811061037c5750506000828201840152601f01601f1916010190565b6080810151848201860152810161035f565b60843590600282101561033957565b60c03660031901126103395767ffffffffffffffff6004358181116103395736602382011215610339578060040135828111610339573691016024011161033957602435908111610339576103f690369060040161032a565b5061001d61038e565b34610339576000366003190112610339576000546040516001600160a01b039091168152602090f35b903590601e1981360301821215610339570180359067ffffffffffffffff82116103395760200191813603831361033957565b1561046257565b60405162461bcd60e51b815260206004820152603a60248201527f546865207374616e64617264207061796d617374657220696e707574206d757360448201527f74206265206174206c656173742034206279746573206c6f6e670000000000006064820152608490fd5b906004116103395790600490565b909291928360041161033957831161033957600401916003190190565b6001600160e01b0319903581811693926004811061051557505050565b60040360031b82901b16169150565b634e487b7160e01b600052604160045260246000fd5b90601f8019910116810190811067ffffffffffffffff82111761055c57604052565b610524565b67ffffffffffffffff811161055c57601f01601f191660200190565b90916060828403126103395781356001600160a01b0381168103610339579260208301359260408101359067ffffffffffffffff8211610339570181601f82011215610339578035906105cf82610561565b926105dd604051948561053a565b8284526020838301011161033957816000926020809301838601378301015290565b1561060657565b60405162461bcd60e51b815260206004820152600d60248201526c24b73b30b634b2103a37b5b2b760991b6044820152606490fd5b90816020910312610339575190565b6040513d6000823e3d90fd5b1561065d57565b60405162461bcd60e51b81526020600482015260156024820152744d696e20616c6c6f77616e636520746f6f206c6f7760581b6044820152606490fd5b818102929181159184041417156106ad57565b634e487b7160e01b600052601160045260246000fd5b90816020910312610339575180151581036103395790565b3d15610706573d906106ec82610561565b916106fa604051938461053a565b82523d6000602084013e565b606090565b1561071257565b60405162461bcd60e51b815260206004820152602a60248201527f4661696c656420746f207472616e736665722066756e647320746f20746865206044820152693137b7ba3637b0b232b960b11b6064820152608490fdfea2646970667358221220b99ef07141bf7f486036e0b62c9970053bfbb59093df49b0de39c9ea0cd9b2a564736f6c63430008120033",
  "linkReferences": {},
  "deployedLinkReferences": {}
}